:020000022000DC
:1060000000000120756302005D6302005F6302000F
:106010006163020063630200656302000000000028
:1060200000000000000000000000000067630200A4
:1060300069630200000000006B6302006D630200F0
:1060400071B302006F630200A5B802006F63020023
:106050006F6302006F630200A1B702006F6302006A
:106060006F6302006F6302006F6302006F630200E0
:106070006F63020009BC02006F6302006F630200DD
:106080006F630200017402006F6302006F6302001D
:106090006F6302006F63020011AE03006F630200C2
:1060A0006F6302006F6302006F6302006F630200A0
:1060B0006F6302006F630200000000000000000038
:1060C0006F6302006F6302006F6302006F63020080
:1060D0006F6302006F6302006F6302000000000044
:1060E00000000000000000000000000000000000B0
:1060F00000000000000000000000000000000000A0
:10610000000000000000000000000000000000008F
:10611000000000000000000000000000000000007F
:10612000000000000000000000000000000000006F
:10613000000000000000000000000000000000005F
:10614000000000000000000000000000000000004F
:10615000000000000000000000000000000000003F
:10616000000000000000000000000000000000002F
:10617000000000000000000000000000000000001F
:10618000000000000000000000000000000000000F
:1061900000000000000000000000000000000000FF
:1061A00000000000000000000000000000000000EF
:1061B00000000000000000000000000000000000DF
:1061C00000000000000000000000000000000000CF
:1061D00000000000000000000000000000000000BF
:1061E00000000000000000000000000000000000AF
:1061F000000000000000000000000000000000009F
:10620000354936480A1A02D0072291438D4634494F
:1062100034480A1A06D00722914381F309880222E2
:1062200082F3148830483149314A00F044F831484B
:106230003149324A00F03FF831483249324A00F0E1
:106240003AF832483249334A00F035F83248334997
:10625000334A00F030F833483349344A00F02BF821
:1062600033483449344A00F026F83448344900228F
:1062700000F02CF833483449002200F027F8334866
:106280003349091A082902DB002202604160314AC1
:1062900090471F481F49884205D00268043003B464
:1062A000904703BCF7E700208646EC46002000211B
:1062B000294A9047FEE7884207D0521A05D0037852
:1062C00001300B700131013AF9D17047884202D098
:1062D00002700130FAE770470000012000E0002062
:1062E0000000012000000120A0230400E42B002076
:1062F000882C0020D0630200D063020040CE03004F
:10630000A0230400E42B0020E42B002024D0030071
:1063100024D0030024D0030024D0030024D00300A1
:1063200024D0030024D0030024D00300A0230400C1
:1063300044240400882C0020882C0020882C002075
:10634000C8430020C8430020C8430020C8430020A1
:10635000C86300209D630200CD140300FEE7FEE742
:10636000FEE7FEE7FEE7FEE7FEE7FEE7FEE7FEE705
:1063700000F002B8FFF7FCBF0F484FF00701884359
:1063800085460E4880470E48016841F4700101605F
:10639000BFF34F8FBFF36F8FFFF732BF09480A4932
:1063A0000A4A884207D0521A05D0037801300B7090
:1063B0000131013AF9D1704700000120011D0300AD
:1063C00088ED00E010D00300D02B0020E42B00204B
:1063D00000B583B0002100200AF03CF80190019B39
:1063E000184603B05DF804FB00B583B00AF0ACF8C2
:1063F0000190019B184603B05DF804FB84B0019046
:10640000019B13F1360F0ED0019B002B04D0019B92
:1064100013F1380F03D00AE0002303930BE048F296
:106420001153039307E048F21453039303E048F237
:106430001653039300BF039B184604B0704700B582
:1064400085B00390029101920199029804F038FD01
:106450000023184605B05DF804FB000000B589B0C4
:1064600003900291039B04330793002004F070FC17
:106470000690069B002B01D0069B10E0079809F0C0
:106480009DFA00230093002300220749079809F092
:10649000C3FC05900598FFF7B1FF0690069B1846D0
:1064A00009B05DF804FB00BF3F64020000B585B091
:1064B0000190019B04330393039809F08CFA04F0D4
:1064C0008DFC0023184605B05DF804FB00B587B0CD
:1064D0000390029101928DF80330039B04330593DE
:1064E000019A0299059809F084FD04900498FFF739
:1064F00085FF0346184607B05DF804FB00B587B07A
:106500000390029101920093039B04330593009A38
:106510000199059809F007FC04900498FFF76EFFB5
:106520000346184607B05DF804FB00B587B001903C
:106530000023039300230493019B059303AB1A46A6
:10654000002144F2010000F017F800BF07B05DF829
:1065500004FB0000BFF34F8F054BDB6803F4E062E0
:106560000349044B1343CB60BFF34F8F00BFFDE7DC
:1065700000ED00E00400FA0500B585B0039002913B
:10658000019272B608F03AF800BF07F0F7FD034633
:10659000002BFAD10F4A104BD31ADB081B0443F02F
:1065A00001030E49184607F077FD0D4B1B6803F0F9
:1065B0000103002B00D000BE064A074BD31ADB08AC
:1065C0001B0443F002030749184607F065FDFFF777
:1065D000C1FF00BF28CF0300F8CE030030D0030076
:1065E000F0ED00E03CD003002DE9F04182B013480B
:1065F00000F0ECFE034619464FF00002104BD3E9C1
:106600000034CF1842EB0408CDE900780D4BD3E9F4
:106610000034DDE90012A24208BF994207D2DDE949
:10662000003413F1807544F10006CDE90056DDE930
:1066300000341846214602B0BDE8F081E42B00206A
:10664000902C0020982C002010B489B0019000916B
:10665000019B0793009B0693079BD3E90234CDE986
:106660000434069BD3E90234CDE90234DDE9043475
:10667000DDE90212A24208BF99422CBF0123002388
:10668000DBB2184609B05DF8044B704770B584B0B2
:10669000019000238DF80F30274B1B78002B46D03C
:1066A000019B002B43D0019B1B7FDBB2002B3ED014
:1066B000FFF79AFF0A460146019BD3E90234A24242
:1066C00008BF99422BD3019B1B69002B02D1019B70
:1066D00000221A77019B5B69019A926910469847DC
:1066E000019B1B69002B22D0019B1B7FDBB2002B7F
:1066F0001DD0019BD3E90212019B1B694FF00004DE
:10670000CD1842EB0406019BC3E90256019B1946D2
:106710000A4804F08CF801238DF80F3007E0019B44
:106720001946064804F083F801238DF80F309DF8D0
:106730000F30184604B070BD8C2C00205CD00300D4
:10674000F0B589B0019000910D230793009B0022C2
:106750001A70019BD3E90245FFF746FF02460B463C
:10676000A61A65EB0307CDE90467DDE90434012BC4
:1067700074F100031ADB049BB3F5350F05D300F069
:106780005DFA0246124B134402E0019BD3E9023446
:1067900003934FF49603039A00210E4800F022FD64
:1067A0000790079B002B05D101230EE0002109482B
:1067B00000F0E6FD079B0D2B06D10198FFF766FF61
:1067C00003461A46009B1A700023184609B0F0BD14
:1067D000FFFFB400E42B002000B583B0044804F0B0
:1067E0004FF80190019B184603B05DF804FB00BF11
:1067F0005CD0030000B583B0044804F057F8019062
:10680000019B184603B05DF804FB00BF5CD0030099
:1068100000B583B0FFF7E0FF0190019B002B02D091
:10682000019B00221A77019B002BF3D100BF03B01C
:106830005DF804FB10B4074BD3E9003413F1807109
:1068400044F10002034BC3E9001200BF5DF8044BA2
:10685000704700BF902C002000B583B00190084B1A
:106860001B68002B07D0064B1B681846FFF70EFF6E
:10687000034B00221A6000BF03B05DF804FB00BFA9
:10688000882C002010B582B00190FFF7ADFE0346C2
:106890000C46034AC2E9003400BF02B010BD00BF7D
:1068A000982C002010B586B00190FFF7A3FF04904C
:1068B00000238DF81730049B002B48D02B4B1B680E
:1068C000002B03D101238DF8173019E0049BD3E985
:1068D0000212264B1B68D3E90234A24208BF994238
:1068E0000ED201238DF81730204B1B681B7FDBB2C3
:1068F000002B05D01D4B1B6819461D4803F097FF60
:106900009DF81730002B2AD0FFF766FF04900DF199
:106910000F0319460498FFF713FF0346002B12D00C
:10692000124B1B68002B02D1019800F0A1FB0F4A0B
:10693000049B13609DF80F3083F00103DBB2002B42
:10694000B3D000BF0EE0094B00221A60ADE7074B41
:106950001B68002B05D1019800F097FB01E000BFF8
:1069600000E000BF00BF06B010BD00BF882C0020B3
:106970005CD0030000B587B001902A4A03AB1946EA
:10698000104602F05EF9059045E0059B1B78012B4F
:1069900017D0022B29D0002B2DD1059B5B681B7FC4
:1069A000DBB283F00103DBB2002B26D0059B5B68D2
:1069B00001221A77059B5B6819461B4803F037FFD5
:1069C0001BE0059B5A68194B1B689A4203D1174B71
:1069D00000221A6012E0059B5B681946124803F01A
:1069E0006DFF03468DF8133008E0FFF711FF104BE1
:1069F00001221A7002E000BF00E000BF094A03ABA9
:106A00001946104602F036F9064A03AB19461046FD
:106A100002F017F90590059B002BB6D100BF07B017
:106A20005DF804FBF82C00205CD00300882C0020CB
:106A30008C2C002000B583B00190019800F093FCED
:106A40000346002B01D0FFF7F5FE0021019800F06E
:106A5000A8FC0346002B02D00198FFF7FDFE0121A0
:106A6000019800F09EFC0346002B02D00198FFF72E
:106A700009FF0198FFF77EFF0198FFF713FF00BFA2
:106A800003B05DF804FB000008B5024800F0ABFC61
:106A900000BF08BDE42B002000B585B0034600917F
:106AA0008DF80730114A02AB1946104602F09CF8E7
:106AB0000390039B002B13D0039B9DF807201A70B3
:106AC000039B009A5A60094A02AB1946104602F02D
:106AD000A4F80346002B01D0FFF7D6FF002300E007
:106AE0000423184605B05DF804FB00BFF82C002015
:106AF00000B583B0164B1B68009316480823582234
:106B0000154902F03EF80190019B002B01D0019B3A
:106B100019E06B46114A1946114800F043FA0190FA
:106B2000019B002B01D0019B0DE001210C4800F0DE
:106B300009FC01230B4A0121094800F0B3FA0A4B72
:106B400001221A70019B184603B05DF804FB00BFD8
:106B500058D00300F82C0020A02C0020356A020039
:106B6000E42B0020FFFF7F008C2C002086B00390D8
:106B70000B4601928DF80B30019B002B01D10723AE
:106B800010E0039B1B680593059B019A5A619DF8D1
:106B90000B30012B0CBF01230023DBB21A46059BEF
:106BA0001A610023184606B0704770B586B003908E
:106BB00002910192039B0593059B1B7FDBB2002B87
:106BC00001D000231BE0059B019A9A61FFF70CFDA1
:106BD0000A460146029B4FF00004CD1842EB040622
:106BE000059BC3E90256059B1B69002B02D0059B40
:106BF000029A1A6105990020FFF74EFF03461846D6
:106C000006B070BD00B585B00190019B0393039B56
:106C100000221A7703990120FFF73EFF034618462A
:106C200005B05DF804FB82B001900091019A009BD1
:106C3000D31A23F07F43184602B0704708B50348C3
:106C400000F0C4FB0346184608BD00BFE42B00203B
:106C500082B0EFF310830093009B019372B6019B07
:106C6000184602B0704762B600BF704700B585B0E5
:106C70000190FFF7EDFF0390164B9B68002B1BD193
:106C8000144B01229A60144BD3F88020134B13400D
:106C9000104A1360104B114AC3F880200E4BD3F8F2
:106CA00084300C4A53600C4B4FF0FF32C3F8842001
:106CB000019B00221A7002E0019B01221A70039BC3
:106CC000002B01D1FFF7CFFF0023184605B05DF878
:106CD00004FB00BF0C2D002000E100E0FC06FFBD1E
:106CE00000B585B003468DF80730104B9B68002B2C
:106CF00016D09DF80730002B12D1FFF7A9FF0390A3
:106D00000B4A0A4B1B681360094A084B5B685360C7
:106D1000064B00229A60039B002B01D1FFF7A3FFD3
:106D20000023184605B05DF804FB00BF0C2D0020C1
:106D300000E100E000B583B001900198FFF796FFF5
:106D400000BF03B05DF804FB00B583B003468DF8C7
:106D500007309DF807301846FFF7C2FF00BF03B0A9
:106D60005DF804FB82B003468DF807309DF90730CB
:106D7000002B0CDB9DF8073003F01F0205499DF93D
:106D800007305B09012000FA02F241F8232000BF1E
:106D900002B0704700E100E082B003468DF8073092
:106DA0009DF90730002B0DDB9DF8073003F01F0223
:106DB00006499DF907305B09012000FA02F24033D1
:106DC00041F8232000BF02B0704700BF00E100E09F
:106DD00082B0034600918DF807309DF90730002BF3
:106DE0000ADB009BDAB20C499DF907305201D2B29E
:106DF0000B4483F800230BE0009BDAB207499DF8AF
:106E0000073003F00F03043B5201D2B20B441A7651
:106E100000BF02B0704700BF00E100E000ED00E0FD
:106E200000B583B003460A468DF8073013468DF847
:106E300006309DF806209DF9073011461846FFF7E9
:106E4000C7FF00BF03B05DF804FB00B583B0034685
:106E50008DF807309DF907301846FFF783FF00BF14
:106E600003B05DF804FB000000B585B00190019B04
:106E7000002B0AD0074B43F001030393019B9B01B6
:106E80000293039B0298984700E000BF05B05DF8AD
:106E900004FB00BFC0D0030084B0039002910192B4
:106EA000039B029A02F5A872019943F8221000BFD1
:106EB00004B0704782B001900091019B009A02F5E6
:106EC000A87253F82230184602B0704782B0019081
:106ED0000091019B009AC3F8042300BF02B07047E1
:106EE00082B001900091019B009AC3F8082300BF73
:106EF00002B0704782B001900B46ADF80230BDF889
:106F00000230019A13441B68184602B0704784B0DF
:106F100001900B46ADF80230BDF80230019A1344DF
:106F200000221A60BDF80230019A13441B680393D3
:106F3000039B00BF04B0704782B00190019BD3F85F
:106F40000435184602B0704782B001900091019B51
:106F5000009AC3F8082500BF02B0704782B00190C4
:106F60000B468DF803309DF80320019B13441A460D
:106F70000123136000BF02B0704782B001900091FE
:106F8000019B009AC3F8442300BF02B0704782B04F
:106F900001900091019B009AC3F8482300BF02B002
:106FA0007047000000B587B0039002910192039BE7
:106FB0005B791946284A019B42F82130039B5B7993
:106FC000264ADB0013441B79002B0ED008230593BF
:106FD000234A244BD31ADB081B0443F00203224943
:106FE000184607F059F8059B32E0039B1A68029B8C
:106FF0001B8819461046FFF7A7FF039B93F904204F
:10700000029B9B7819461046FFF70AFF039B93F9F2
:1070100004301846FFF719FF039B5B790F4ADB002A
:10702000134401221A71039B5B7919460B4A039B97
:1070300042F8313000230593094A0A4BD31ADB0882
:107040001B0443F003030949184607F025F8059B84
:10705000184607B05DF804FB182D00201C2D0020F9
:1070600038CF0300F8CE030068D003008CD00300B3
:1070700000B583B00190019B1B6800211846FFF703
:107080006DFF00BF03B05DF804FB00B583B0019055
:10709000019B1B6804211846FFF760FF00BF03B087
:1070A0005DF804FB00B587B00390029101928DF862
:1070B00003304FF48032029B02FA03F30593029BE4
:1070C00050339BB29B00ADF81230019B23F07F43FD
:1070D0000193039B1B6805991846FFF701FF039B6B
:1070E0001B6805991846FFF752FF039B1B68BDF804
:1070F000122011461846FFF70AFF039B1B68019AEE
:1071000002991846FFF7C8FE039B1B6805991846AD
:10711000FFF733FF9DF80330002B05D0039B1B685E
:1071200005991846FFF7D2FE00BF07B05DF804FBD3
:1071300000B585B00390029113468DF80730039B8C
:107140001B6802991846FFF718FF9DF80730002BBF
:1071500005D0039B1B6802991846FFF7B7FE00BFD6
:1071600005B05DF804FB00B583B001900091019B70
:107170001B6800991846FFF70AFF019B1B680099DE
:107180001846FFF7ADFE00BF03B05DF804FB00B585
:1071900083B001900B46ADF80230019B1B68BDF82F
:1071A000022011461846FFF7A5FE0346002B09D022
:1071B000019B1B68BDF8022011461846FFF7A7FE89
:1071C000012300E00023184603B05DF804FB82B001
:1071D00001900091019A009BD31A23F07F43184637
:1071E00002B0704700B58BB00390029101920093FA
:1071F0004FF48032029B02FA03F30993029B50334F
:107200009BB29B00ADF82230019B23F07F4301939A
:1072100009990398FFF7A7FF039B1B681846FFF720
:107220008BFE0790039B1B6802991846FFF742FEEE
:107230000690039B1B68079A02991846FFF72CFEDD
:10724000039B1B68BDF8222011461846FFF75FFE1E
:1072500007990698FFF7BBFF0346012B0AD11020C0
:10726000FFF702FE039B1B68BDF82220114618465B
:10727000FFF74DFE039B1B681846FFF75DFE079066
:1072800007990198FFF7A3FF0590039B1B680999D5
:107290001846FFF772FE059B012B15D1039B18685A
:1072A000019B01331A460299FFF7F6FD1020FFF704
:1072B000DBFD039B1B681846FFF73EFE0246079B5B
:1072C000934235D00D2339E0039B1B68019A029944
:1072D0001846FFF7E1FD039B1B681846FFF72CFEDD
:1072E0000790019B013B07991846FFF770FF059037
:1072F000009BC3F1FF1303F57F43059A9A4201D91E
:107300000D231BE0059B002B12D1039B1868019BEA
:1073100001331A460299FFF7BFFD039B1B6818460D
:10732000FFF70AFE0246079B934201D00D2305E0BA
:10733000012209990398FFF7FBFE002318460BB0C2
:107340005DF804FB00B583B001900B468DF8033067
:107350009DF803301A4602210198FFF7E9FE00BFAD
:1073600003B05DF804FB00B583B001904FF4827167
:107370000198FFF70CFF0346184603B05DF804FBC5
:1073800000B583B0019000914FF48032009B02FA67
:1073900003F319460198FFF7E6FE00BF03B05DF85E
:1073A00004FB00B585B001900091009B50339BB267
:1073B0009B00ADF80E30BDF80E3019460198FFF76E
:1073C000E6FE0346184605B05DF804FB00B583B041
:1073D0000190019B1B681846FFF7AEFD0346184657
:1073E00003B05DF804FB00B583B00190019B93F9F5
:1073F00004301846FFF7D0FC00BF03B05DF804FB73
:1074000008B5044B1B68044A12681046984700BF31
:1074100008BD00BF182D00201C2D002082B0019057
:10742000019B03F00303002B0CBF01230023DBB2FD
:10743000184602B07047000000B585B001900023E7
:1074400003930EE00A4A039B52F82330002B05D029
:10745000074A039B52F8233001989847039B013356
:107460000393039B032BEDD900BF05B05DF804FB2C
:10747000302D002082B001900091019B1B78013BD0
:10748000052B61D801A252F823F000BFA5740200B9
:10749000AD740200D3740200057502002575020068
:1074A00041750200009B00221A704EE0009B0122F1
:1074B0001A70019B1A89009B9A81019B9A88009BF4
:1074C000DA81019BDA68009B9A60009B00221A74A3
:1074D0003BE0009B02221A70019B1A89009B9A8153
:1074E000019B9A88009BDA81019BDA68009B9A6075
:1074F000019B9B7D062B0CBF01230023DAB2009B6E
:107500001A7422E0009B03221A70019BDA88009B08
:107510009A81019B1A89009BDA81019BDA68009BA2
:107520009A6012E0009B04221A70019BDA88009B8B
:107530009A81009B0022DA81009B00229A6004E07D
:10754000009B05221A7000E000BF00BF02B0704728
:1075500084B001900091019B0393039A009B9A428F
:1075600006D2039B1B68B3F1FF3F01D0012300E06B
:10757000002303F00103DBB2184604B0704782B069
:107580000190019B5B8803339B00019A13441846CA
:1075900002B0704700B583B0019000910198FFF7E9
:1075A000EEFF0246009B934201D2022311E0019BB1
:1075B0009B884FF6FF72934208D0019B1B88002BDB
:1075C00004D0019B9B68B3F1FF3F01D1012300E090
:1075D0000023184603B05DF804FB000000B583B03B
:1075E0000190019B002B13D00D4BDB681A46019BC9
:1075F00093420DD30A4B1B691A46019B934207D84D
:107600000198FFF70BFF0346002B01D0012300E098
:10761000002303F00103DBB2184603B05DF804FB5E
:10762000D02B002082B003460A46ADF80630134640
:10763000ADF80430BDF80620134913469B001344EF
:107640009B000B4408331A88BDF804301344ADF88E
:107650000430BDF806200C4913469B0013449B00E0
:107660000B440A331A88BDF804301344ADF80430D3
:10767000BDF80430B3F5806F94BF01230023DBB263
:10768000184602B0704700BF542D002084B001900E
:10769000009148F2096303930023ADF80A3027E014
:1076A000BDF80A20164913469B0013449B000B4467
:1076B00004331B68009A9A4215D9BDF80A20104974
:1076C00013469B0013449B000B4404331B6803F5D3
:1076D0008053009A9A4206D200230393019BBDF87F
:1076E0000A201A8008E0BDF80A300133ADF80A30EC
:1076F000BDF80A30012BD3D9039B184604B070475C
:10770000542D002082B001900091009B9B7D022BA4
:1077100009D9019B1A89009BDB8813449BB2033370
:107720009AB2019B1A81019B5A89009BDB88D31A6C
:107730009BB2033B9AB2019B5A8100BF02B07047D3
:1077400000B583B0074B1B6819460023009308233C
:10775000054A064802F0C0F80346184603B05DF833
:1077600004FB00BF7C2D0020C8D00300D02B0020DC
:1077700000B585B003900399002300930823044AC1
:10778000044802F0A9F80346184605B05DF804FB6A
:10779000D0D00300D02B002000B585B00346009167
:1077A000ADF8063000238DF80F30BDF806300333F6
:1077B000ADF80A30BDF80A3040F2FE32934202D9E9
:1077C00048F208634BE00023ADF80C303BE0BDF815
:1077D0000C20254913469B0013449B000B441B7847
:1077E000002B2BD1BDF80A20BDF80C3011461846ED
:1077F000FFF718FF0346002B20D001238DF80F3030
:10780000009BBDF80C201A80BDF80C2016491346C9
:107810009B0013449B000B440A331988BDF80C20CD
:10782000BDF80A300B4498B20F4913469B0013442D
:107830009B000B440A3302461A8008E0BDF80C3066
:107840000133ADF80C30BDF80C30012BBFD99DF8D9
:107850000F30002B01D0002301E048F206631846E8
:1078600005B05DF804FB00BF542D002082B0034634
:107870000A46ADF806301346ADF80430BDF80420D2
:107880000D4913469B0013449B000B440A331A888E
:10789000BDF80630D31A9BB2BDF80420033B98B262
:1078A000054913469B0013449B000B440A330246D0
:1078B0001A8000BF02B07047542D002008B5012186
:1078C000024801F043FB0346184608BD402D002046
:1078D00000B585B003460091ADF80630BDF806202E
:1078E000224913469B0013449B000B4404331B683E
:1078F00003F580530293009B1B680393039B002BAB
:1079000004D00398FFF73BFE039023E0BDF8062068
:10791000164913469B0013449B000B4404331B6819
:107920000833039316E002990398FFF733FE0346EA
:10793000012B08D0022B0BD0002B0BD1009B039AFC
:107940001A6001230EE00398FFF719FE039001E08F
:10795000002307E002990398FFF7FAFD0346002B86
:10796000E1D10023184605B05DF804FB542D00203A
:1079700000B585B001900091019B5B681846FFF748
:107980002DFE0346002B19D0019B1A89244B1B891D
:107990009A4213D1019B1A68019B5B689B689A42CB
:1079A0000CD1019B5B6819460098FFF76FFE0346F8
:1079B000002B0CBF01230023DBB22CE0009B002234
:1079C0001A8023E00023029310E0029B0393039BA1
:1079D0009A68019B1B689A4208D1029A019B5A60DF
:1079E0000F4B1A89019B1A81012314E0009B1B880D
:1079F00002AA11461846FFF76BFF0346002BE4D19D
:107A0000009B1B8801339AB2009B1A80009B1B8845
:107A1000012BD7D90023184605B05DF804FB00BF41
:107A2000842D002000B587B003900291019200934D
:107A3000324B1B78DBB283F00103DBB2002B02D0A8
:107A400048F2016355E0019B002B02D0009B002B04
:107A500049D148F204634CE0009B9B881946284AB0
:107A60000B469B000B449B0013441B78002B33D127
:107A700024E0009B1B680593039B002B06D0059B0D
:107A80009A88039B1B889A4200D017E0029B002B28
:107A900006D0059B1A88029B1B889A4200D00DE0F5
:107AA000059B9A68019B1A60009B1A68019B5A60AB
:107AB000144B1A89019B1A8100231AE0009B9B88B2
:107AC000009A11461846FFF703FF0346002BD0D15A
:107AD000009B00221A6000E000BF009B9B880133DE
:107AE0009AB2009B9A80009B9B88012BB4D948F2E4
:107AF0000963184607B05DF804FB00BF242D002081
:107B0000542D0020842D002000B585B00190084B35
:107B10000199184601F068F803901C22002103988F
:107B200013F048FD039B184605B05DF804FB00BF49
:107B3000442D002000B583B00190044B01991846F4
:107B400001F06BF800BF03B05DF804FB442D00208A
:107B500000B583B00190054B0199184601F071F80A
:107B60000346184603B05DF804FB00BF442D002017
:107B700000B583B00190044B0199184601F07AF8E2
:107B800000BF03B05DF804FB442D002008B50121BF
:107B9000054801F0F3F90346002B14BF012300232D
:107BA000DBB2184608BD00BF2C2D002000B587B001
:107BB00003900291039B02229A750299039B1A1D5E
:107BC000002300930423074801F086FE0590059BDF
:107BD000002B01D1002301E048F20D63184607B0E5
:107BE0005DF804FBD02B002000B587B00390029114
:107BF000039B1B69002B01D0032200E00122039BA1
:107C00009A75029B08331946039B03F10C0200236B
:107C100000930423074801F05FFE0590059B002BAD
:107C200001D1002301E048F20D63184607B05DF86A
:107C300004FB00BFD02B002000B587B00390029159
:107C4000039B1B78032B01D1052200E00622039B36
:107C50009A75029B04331946039B03F10802002323
:107C600000930423074801F037FE0590059B002B85
:107C700001D1002301E048F20D63184607B05DF81A
:107C800004FB00BFD02B002000B587B003900B464B
:107C9000ADF80A3003990023009304230D4A0E48DF
:107CA00001F01AFE0590059B002B02D048F20D63EF
:107CB0000BE0BDF80A20094913469B0013449B00C2
:107CC0000B44103301221A700023184607B05DF8E8
:107CD00004FB00BFD8D00300D02B0020542D00207F
:107CE00000B589B0019002AB00221A605A609A6018
:107CF000019BDB6802930DF1160202AB1146184698
:107D0000FFF736FE0346002B12D0039B0693069B1B
:107D10009A88019BDA80069B1A88019B1A81039B33
:107D2000BDF8162011461846FFF7AEFF079002E097
:107D300048F209630793079B184609B05DF804FBF6
:107D400000B587B00190019B981D02AA0D4B002140
:107D5000FFF768FE0590059B002B08D1039A094B9D
:107D60009B8819461046FFF78FFF059004E0082214
:107D70000021044813F01EFC059B184607B05DF86F
:107D800004FB00BF942D002000B587B00390029142
:107D9000039B01229A75029B0C331846039B1A69B8
:107DA000039BDB889900002300930B46014607489C
:107DB00001F092FD0590059B002B01D1002301E00D
:107DC00048F20D63184607B05DF804FBD02B002085
:107DD00082B0184B1B8901339AB2164B1A81154B8E
:107DE00000225A80134B00221A730023ADF806308C
:107DF00018E0BDF80620104913469B0013449B0071
:107E00000B441A78BDF80630002A0CBF012200226C
:107E1000D1B2084A13440A469A72BDF806300133BB
:107E2000ADF80630BDF80630012BE2D900BF02B034
:107E3000704700BF842D0020542D002084B0019095
:107E400000238DF80F300023ADF80C3031E0BDF881
:107E50000C301C4A13449B7A002B25D0BDF80C3003
:107E6000184A134400229A72BDF80C201649134692
:107E70009B0013449B000B440C331B68002B13D155
:107E8000BDF80C20104913469B0013449B000B4483
:107E900010331B78002B07D0019BBDF80C201A80F3
:107EA00001238DF80F3008E0BDF80C300133ADF838
:107EB0000C30BDF80C30012BC9D99DF80F30184695
:107EC00004B07047842D0020542D002008B5084BC5
:107ED00005221A70074B02229A80064B1B6819462E
:107EE00000230122044801F0D9FD0346184608BDCD
:107EF000842D00207C2D0020D02B002000B583B0E5
:107F0000164B5B88ADF80230BDF8022014491346C9
:107F10009B0013449B000B440C331B68002B14D1B3
:107F20000E4B04221A70BDF802200D4913469B0027
:107F300013449B000B4404331B68194600230122A1
:107F4000084801F0ABFD019002E0FFF7BFFF019090
:107F5000019B184603B05DF804FB00BF842D002090
:107F6000542D0020D02B002000B587B0114B5B684A
:107F70000593114B1A68104B9B889B001344049384
:107F8000059B5B880333ADF80E300A4B03221A7051
:107F90000499084B5A68BDF80E30980000230093EE
:107FA0000346064801F098FC0346184607B05DF802
:107FB00004FB00BF842D00207C2D0020D02B00204E
:107FC00000B583B00A4B5B880A491846FFF780FC6E
:107FD0000346002B03D0FFF7C7FF019002E0FFF735
:107FE0008DFF0190019B184603B05DF804FB00BFB4
:107FF000842D0020882D002008B50A4B06221A7017
:10800000084B5B881946084A0B469B000B449B00B3
:10801000134404331B681846FFF7AAFB03461846AF
:1080200008BD00BF842D0020542D002008B5054B4D
:1080300007221A70034B00225A60FFF781FB0346A8
:10804000184608BD842D002008B50D48FFF7F6FE40
:10805000034683F00103DBB2002B0BD0094B002257
:108060001A70084B00225A80064B00225A6041F6D3
:108070001D5302E0FFF7A4FF0346184608BD00BFEA
:10808000862D0020842D002082B0094B5B6801936F
:10809000019B5B880333ADF80230064B9A88BDF82C
:1080A000023013449AB2034B9A8000BF02B070476B
:1080B000842D00207C2D002082B01E4B1B68019374
:1080C0001D4B5B8819461D4A0B469B000B449B00C9
:1080D000134404331B68174A1360174B5B88194617
:1080E000164A0B469B000B449B0013440433019A31
:1080F0001A60114B5B8819460E4B98880F4A0B4645
:108100009B000B449B001344083302461A80094B22
:1081100002229A80084B5B881946084A0B469B004E
:108120000B449B001344103300221A7000BF02B0AE
:10813000704700BF7C2D0020842D0020542D00208E
:1081400008B51A4B1B78072B2CD801A252F823F044
:1081500071810200A5810200A58102007D810200DB
:108160008981020095810200958102009D810200B3
:10817000FFF72EFE0D4B01221A7014E0FFF784FF6B
:108180000A4B02221A700EE0FFF796FF074B0622F9
:108190001A7008E0054B07221A7004E0034B012215
:1081A0001A7000E000BF00BF08BD00BF842D002092
:1081B00000B587B00190009148F20E630593019BD2
:1081C000002B05D0634B00225A604FF40643BCE0FD
:1081D000009B1B79032B00F2AB8001A252F823F025
:1081E000F1810200FF8102008D820200AD82020057
:1081F000009B01221A71FFF7A3FA05909BE0002370
:108200008DF813300023ADF810302BE0BDF81020AE
:10821000514913469B0013449B000B441B78022BCF
:108220001BD1BDF810204C4913469B0013449B0002
:108230000B4400221A7001238DF81330BDF8102072
:10824000454913469B0013449B000B4404331B68B1
:108250001846FFF78DFA059008E0BDF8103001339D
:10826000ADF81030BDF81030012BCFD99DF8133088
:1082700083F00103DBB2002B5CD0364B01221A7075
:10828000344B00225A6041F61D535EE0009B0022F1
:108290001A71324B02229A80304B1B681946002318
:1082A00001222F4801F0FAFB059044E0009B0022D8
:1082B0001A712A4B1B681846FFF75AFA0590294B8A
:1082C0005B88ADF80E30254B1B680293BDF80E207D
:1082D000214913469B0013449B000B4404331B6845
:1082E0001E4A1360BDF80E201B4913469B00134421
:1082F0009B000B440433029A1A60BDF80E20174B02
:108300009888154913469B0013449B000B4408337F
:1083100002461A80114B02229A80BDF80E200E49A7
:1083200013469B0013449B000B4400221A7002E08A
:1083300000BF00E000BF059B002B05D0054B0022CD
:108340005A6048F20D6300E00023184607B05DF85C
:1083500004FB00BF242D0020542D00207C2D002084
:10836000D02B0020842D002000B587B00190009113
:10837000009B9B8A1A4613469B0013449B003B4A72
:1083800013440493019B002B06D000990498FFF737
:10839000B9F94FF4064364E0049B5A68049B1B89B7
:1083A0009B0013440393009B9B7D062B4DD801A299
:1083B00052F823F0F98302001D84020005840200B4
:1083C00011840200D1830200298402004384020048
:1083D000274B00225A60009B9B69254A1360254960
:1083E0002348FFF7C5FA034683F00103DBB2002BF5
:1083F00002D048F2096334E003990098FFF7D6FBF6
:10840000059026E003990098FFF7EEFB059020E029
:1084100003990098FFF7B8FC05901AE003990098BB
:10842000FFF70AFC059014E0009B06229A75104B9A
:108430005A68104B1B8819461046FFF725FC05901B
:1084400007E041F61D53059303E048F20E630593E0
:1084500000BF059B002B03D000990498FFF752F949
:10846000059B184607B05DF804FB00BF542D0020A3
:108470009C2D0020A82D002000B585B00190009112
:10848000019B002B02D04FF4064326E0009B1B7992
:10849000012B0BD0022B16D0002B18D1009B0222EF
:1084A0001A710098FFF71CFC039015E00098FFF785
:1084B00047FC0390039B48F2096293420BD141F6BB
:1084C0001D53039307E041F61D53039304E048F264
:1084D0000E63039300E000BF039B184605B05DF8F0
:1084E00004FB000000B585B00190019B002B02D079
:1084F0004FF406433DE0214B1B7B002B03D01F4B69
:1085000000221A7301E0FFF71BFE1C4B1B78013B96
:10851000062B29D801A252F823F000BF39850200AA
:1085200041850200498502005185020069850200EB
:108530005985020061850200FFF786FD039017E070
:10854000FFF73EFD039013E0FFF70EFD03900FE0F1
:10855000FFF7D4FC03900BE0FFF74EFD039007E01C
:10856000FFF764FD039003E048F20E63039300BF3E
:10857000039B184605B05DF804FB00BF842D002066
:1085800000B589B001903B4B1B68002B05D13A48E0
:10859000FFF7DEFA0246374B1A60364B1B681B7832
:1085A000013B052B2BD801A252F823F0C585020010
:1085B000D5850200D5850200E5850200E58502002B
:1085C000F58502002B4B1B6819460198FFF7F0FD5B
:1085D000019018E0274B1B6819460198FFF7C4FE6D
:1085E000019010E0234B1B6819460198FFF744FFE8
:1085F000019008E00198FFF775FF019003E048F251
:108600000E63019300BF019B002B2BD003AB002214
:108610001A605A609A60DA601A61019B41F61D5235
:10862000934201D0019B00E000230493114B1B688F
:1086300003AA11461846FEF71DFF03AB1846FEF7C6
:10864000FBFE0C4B00221A60002301930A48FFF73F
:108650008FFAFFF79BFA034683F00103DBB2002B8E
:1086600002D190E700BF00E000BF00BF09B05DF895
:1086700004FB00BFAC2D0020B02D002008B5012167
:10868000054800F04BFC0346002B02D10020FFF709
:1086900077FF00BF08BD00BF2C2D002000B583B0C0
:1086A0000190019B5B681846FFF76AFF00BF03B0AB
:1086B0005DF804FB00B58BB00390029101928DF838
:1086C00003300023ADF824300023ADF82630534B9F
:1086D0001B78DBB283F00103DBB2002B02D048F23F
:1086E000016397E0029B002B02D148F2046391E002
:1086F000029B1B884FF6FF72934203D0029B5B885C
:10870000002B02D148F2036384E0029B5B681846A9
:10871000FEF784FE034683F00103DBB2002B02D098
:1087200048F2026376E0019B002B11D1029B9B680B
:10873000ADF826300DF11A02BDF826301146184664
:10874000FFF72AF80890089B002B09D0089B61E0EE
:10875000019B1B88ADF81A30019B5B88ADF8263071
:1087600005AB1846FFF7D0F90790079B002B0AD1FD
:10877000BDF81A20BDF8263011461846FFF776F8E6
:1087800048F2076346E0079B9DF803201A70079B99
:1087900000229A75BDF81A20079B9A82029B5A689C
:1087A000079B1A61FFF78AF80246079BDA60029B73
:1087B0001A88079B1A81029B5A88079B9A80079BFD
:1087C000BDF82620DA809DF80330032B06D1079BE5
:1087D00004229A75039B1A68079B9A61079BBDF850
:1087E00024205A8105AB1846FFF7A4F9039B002B00
:1087F0000DD0039B00225A60079BDA68039B1A6026
:10880000039B00229A72064B1A89039B1A81FFF779
:1088100035FF002318460BB05DF804FB242D002023
:10882000842D002000B585B001900091019B002BA4
:1088300002D0009B002B02D148F204632AE00DF124
:108840000A0319460198FFF793F80346002B1FD03F
:10885000019B5B680393BDF80A301A4613469B00E0
:1088600013449B0008330D4A134404330121184676
:1088700000F06CFB009B039A1A60019B5B6803F19C
:108880000C02009B5A60019B01229A72002301E0B6
:1088900048F20963184605B05DF804FB542D00202A
:1088A00000B585B00190019B002B02D148F2046312
:1088B0003BE00DF10A0319460198FFF759F803460A
:1088C000002B2ED0BDF80A3019461A4A0B469B00E1
:1088D0000B449B0013440C331B68002B1DD0019BE1
:1088E0009B7A002B19D0BDF80A301A46114913465D
:1088F0009B0013449B000B440C331B68591E0D480E
:1089000013469B0013449B0003440C331960019BE6
:1089100000229A720023039306E048F20563039352
:1089200002E048F209630393039B184605B05DF823
:1089300004FB00BF542D002000B583B001900091CE
:108940000223002200990198FFF7B4FE034618465F
:1089500003B05DF804FB00B583B001900091019B6A
:10896000002B02D148F2046306E0032300220099A1
:108970000198FFF79FFE0346184603B05DF804FB1D
:1089800000B585B00346ADF806301A4B1B78DBB254
:1089900083F00103DBB2002B02D048F2016324E034
:1089A000BDF806304FF6FF72934202D148F20363DE
:1089B0001BE002AB1846FFF7A7F80390039B002BC0
:1089C00002D148F2076310E0039B05221A70039B53
:1089D00001221A71039BBDF80620DA8002AB18460B
:1089E000FFF7A8F8FFF74AFE0023184605B05DF828
:1089F00004FB00BF242D002000B585B00292019336
:108A00000346ADF80E300B46ADF80C3003A90DF15E
:108A10000E00019B029AFFF705F80346184605B0C1
:108A20005DF804FB00B585B0034602910192ADF8F4
:108A30000E300DF10E01019B029A0020FEF7F2FFAD
:108A40000346184605B05DF804FB00B585B0034643
:108A500002910192ADF80E300DF10E00019B029AC9
:108A60000021FEF7DFFF0346184605B05DF804FB62
:108A700082B001900091019B002B02D0009B002B43
:108A800002D148F2046304E0019B1A68009B1A605B
:108A90000023184602B0704786B001900091019BF8
:108AA00053E8011F8AB2D88902449889824228BFBC
:108AB000121A1889824202BFBFF32F8F002307E0EA
:108AC000C2EA010243E801200028E9D14FF0010386
:108AD0008DF80F30059002910492029A009B1A6063
:108AE0009DF80F30DBB2184606B0704784B0019095
:108AF000019951E8013FC3EA034341E80132002AEA
:108B0000F7D10392029300BF04B0704786B0019082
:108B10000091019B53E8021F1FFAA1F2D8888242FC
:108B200002BFBFF32F8F00230DE0D889024498893C
:108B3000824228BF121AC1EA024243E802200028FA
:108B4000E8D14FF001038DF80F30059002910492A7
:108B5000029A009B1A609DF80F30DBB2184606B0EF
:108B6000704784B00190019951E8023FC3EA234362
:108B700041E80232002AF7D10392029300BF04B009
:108B8000704784B00390029111461A460B46ADF827
:108B900006301346ADF80430029B002B01D10E23A2
:108BA0001FE0BDF80630BDF80420B3FBF2F102FB74
:108BB00001F29B1A9BB2002B01D0092311E0039B09
:108BC000029A1A60039B00225A60039B00229A605B
:108BD000039BBDF806209A81039BBDF80420DA812F
:108BE0000023184604B0704700B585B0019000918D
:108BF000009B19460198FFF74FFF0346002B07D053
:108C0000019B1B68009A128813440393039B00E0A6
:108C10000023184605B05DF804FB00B583B0019051
:108C20000091009B1A88009B5B889A4204D10198AE
:108C3000FFF75CFF012300E00023184603B05DF856
:108C400004FB00B585B001900091009B1946019886
:108C5000FFF75CFF0346002B07D0019B1B68009ABF
:108C6000528813440393039B00E00023184605B089
:108C70005DF804FB00B583B001900091009B1A8859
:108C8000009B5B889A4204D10198FFF76AFF012399
:108C900000E00023184603B05DF804FB00B585B082
:108CA00001900091009B5B099B00019AD018009BEA
:108CB00003F01F03012202FA03F3194600F0E6F85D
:108CC000039000BF05B05DF804FB00B583B00190D0
:108CD0000091009B5B099B00019AD018009B03F058
:108CE0001F03012202FA03F3194600F0B7F8024607
:108CF000009B03F01F0322FA03F303F00103002B90
:108D000014BF01230023DBB2184603B05DF804FB57
:108D100000B585B001900091009B5B099B00019A12
:108D2000D018009B03F01F03012202FA03F3DB4378
:108D3000194600F0DBF8039000BF05B05DF804FBB6
:108D400082B001900091009B5B099B00019A134443
:108D50001A68009B03F01F0322FA03F303F00103D8
:108D6000002B14BF01230023DBB2184602B070476A
:108D700000B58DB00190009100230B934BE00B9B4D
:108D80009B00019A13441B68DB430793079B93FAEC
:108D9000A3F30693069B0893089B002B01D1202385
:108DA00003E0089BB3FA83F3DBB20A932BE00B9B3F
:108DB0005B010A9A13440993099A009B9A4226D2AE
:108DC00009990198FFF781FF034683F00103DBB2A5
:108DD000002B01D0099B26E00B9B9B00019A1344BA
:108DE0001B68DB430493049B93FAA3F30393039B55
:108DF0000593059B002B01D1202303E0059BB3FACB
:108E000083F3DBB20A930A9B1F2BD0D900E000BF8B
:108E10000B9B01330B93009B013B5B0901330B9AC6
:108E20009A42ACD3009B18460DB05DF804FB10B419
:108E300087B001900091019B009A53E8004F1046C3
:108E400043E8000191F0000FF7D1059404900391DD
:108E5000059B184607B05DF8044B704710B487B007
:108E600001900091019B009A53E8004F44EA0200F0
:108E700043E8000191F0000FF6D1059404900391AE
:108E8000059B184607B05DF8044B704710B487B0D7
:108E900001900091019B009A53E8004F44EA0200C0
:108EA00043E8000191F0000FF6D10594049003917E
:108EB000049B184607B05DF8044B704710B487B0A8
:108EC00001900091019B009A53E8004F04EA0200D0
:108ED00043E8000191F0000FF6D10594049003914E
:108EE000059B184607B05DF8044B704710B487B077
:108EF00001900091019B009A53E8004F04EA0200A0
:108F000043E8000191F0000FF6D10594049003911D
:108F1000049B184607B05DF8044B704710B487B047
:108F200001900091019B009A53E8004F04EB02006E
:108F300043E8000191F0000FF6D1059404900391ED
:108F4000059B184607B05DF8044B704710B487B016
:108F500001900091019B009A53E8004F04EB02003E
:108F600043E8000191F0000FF6D1059404900391BD
:108F7000049B184607B05DF8044B704710B487B0E7
:108F800001900091019B009A53E8004FA4EB02006E
:108F900043E8000191F0000FF6D10594049003918D
:108FA000049B184607B05DF8044B704700B583B0CA
:108FB000019001210198FFF769FF0346184603B0AD
:108FC0005DF804FB00B583B0019000210198FFF724
:108FD00075FF0346184603B05DF804FB82B00190AC
:108FE0000B468DF80330019BDA689DF80330019938
:108FF000098A01FB03F31344184602B0704782B09C
:1090000001900091009B019AD2689B1A019A128AE2
:10901000B3FBF2F3DBB2184602B0704784B00190A4
:10902000019B002B01D10E2320E0019B9A68019B3C
:109030005B68D31A8DF80F30019B1B68019A526848
:109040001A6007E0019B1A681368591C11609DF8AB
:109050000F201A709DF80F305A1E8DF80F20002B2C
:10906000F0D1019B1B6800221A710023184604B03E
:10907000704700B585B001900023039300238DF85D
:109080000A300DF10A031846FDF754FE019B1B68D8
:109090001A68019B5B689A421FD9019B1B681A687A
:1090A000013A1A601B681B7819460198FFF796FF72
:1090B0000390019B9A68019B1B681B68D31A8DF86B
:1090C0000B30019B1B681B799DF80B209A4204D939
:1090D000019B1B689DF80B201A719DF80A301846F9
:1090E000FDF732FE039B184605B05DF804FB10B592
:1090F00084B001900091009B039300238DF80B3006
:109100000DF10B031846FDF715FE019B1B681C684B
:10911000621C1A6003990198FFF771FF03462370E0
:109120009DF80B301846FDF70FFE00BF04B010BDD0
:1091300000B583B00190019B9B68002B0CD0019B74
:109140005B69019A1069019A1168019A92689847BF
:10915000019B00229A6000E000BF03B05DF804FBB1
:109160000EB400B584B00190059B002B0AD00023FB
:10917000039306AB039303AB1A460599019800F0DD
:10918000B5F900E000BF04B05DF804EB03B0704730
:1091900000B583B001900B468DF803309DF8033085
:1091A0000A2B03D10D210198FFF7F2FF019B1A68EA
:1091B000019B9B68581C0199886013449DF803200B
:1091C0001A70019B9A68019B5B689A4202D30198CE
:1091D000FFF7AEFF00BF03B05DF804FB00B587B03A
:1091E000039002910192009300230593009B03F0EA
:1091F0000103002B24D00BE0029B01330293059B5B
:10920000013305939DF8133019460398FFF7C0FF0B
:10921000029B1B788DF813309DF81330002BEBD197
:1092200006E0019B013B019320210398FFF7B0FF6B
:10923000019A059B9A422ED9019B002BF1D12AE07D
:10924000029B002B0BD0029812F009FA059006E061
:10925000019B013B019320210398FFF799FF019A9D
:10926000059B9A420FD9019B002BF1D10BE0029B89
:1092700001330293059B013305939DF81330194682
:109280000398FFF785FF029B1B788DF813309DF83C
:109290001330002BEBD100BF07B05DF804FB0000DA
:1092A00000B589B00390029101920093029B07934D
:1092B0000123069307E0079A019BB2FBF3F30793A0
:1092C000069B01330693079A019B9A42F3D2009AB8
:1092D000069B9A4201D9009B06930B9B03F0010366
:1092E000002B22D10A9B002B1FD00B9B03F0020303
:1092F000002B06D0009B002B03D130238DF81730B4
:1093000002E020238DF8173008E00A9B013B0A9306
:109310009DF8173019460398FFF73AFF0A9B002B78
:1093200003D0069A0A9B9A42EFD301230793009B2E
:10933000012B03D9009B013B009309E0029A079B94
:10934000B2FBF3F30493049A019B9A4200D205E026
:10935000079B019A02FB03F30793E8E7029A079B36
:10936000B2FBF3F30493049B079A02FB03F3029A04
:10937000D31A0293154A049B13441B781946039889
:10938000FFF706FF079A019BB2FBF3F30793079BD6
:10939000002BE3D10B9B03F00103002B11D00A9BA0
:1093A000002B0ED006E00A9B013B0A932021039874
:1093B000FFF7EEFE0A9B002B03D0069A0A9B9A4207
:1093C000F1D300BF09B05DF804FB00BFE8D0030093
:1093D00000B589B00590049103920293049B002B81
:1093E000B8BF5B4206930123079307E0039B069AED
:1093F00092FBF3F30693079B01330793039B069AB3
:109400009A42F3DA029A079B9A4201D9029B079388
:109410000A9B002B0AD0049B002B04DB0B9B03F060
:109420000403002B02D00A9B013B0A930B9B03F021
:109430000203002B02D0029B002B16D00B9B03F0E3
:109440000103002B11D10A9B002B0ED006E00A9BD2
:10945000013B0A9320210598FFF79AFE0A9B002BF7
:1094600003D0079A0A9B9A42F1D3049B002B07DA98
:10947000049B5B4204932D210598FFF789FE08E0C9
:109480000B9B03F00403002B03D02B210598FFF75F
:109490007FFE0B9B03F00203002B19D00B9B03F004
:1094A0000103002B14D1029B002B11D10A9B002B2E
:1094B0000ED006E00A9B013B0A9330210598FFF786
:1094C00067FE0A9B002B03D0079A0A9B9A42F1D3AE
:1094D00004990B9B01930A9B0093029B039A0598A6
:1094E000FFF7DEFE00BF09B05DF804FB00B58FB0EA
:1094F000059004910392049B002B00F0E981049BEA
:109500001B788DF83730049B013304939DF8373076
:10951000002B00F0D4819DF83730252B40F0C3811B
:1095200000230A9301230C93049B1B788DF837309A
:109530009DF837302D2B04D0302B0AD02B2B10D098
:1095400017E00A9B43F001030A93049B0133049341
:1095500012E00A9B43F002030A93049B0133049335
:109560000AE00A9B43F004030A93049B013304932B
:1095700002E000230C9300BF0C9B002BD4D10023EE
:1095800009939DF837302A2B0CD1039B1B68191DBA
:10959000039A11601B68099A13440993049B0133D1
:1095A00004931AE0049B1B788DF837309DF8373010
:1095B0002F2B12D99DF83730392B0ED8049B01334D
:1095C0000493099A13469B0013445B001A469DF8C6
:1095D00037301344303B0993D3E700230B93049BAC
:1095E0001B788DF837309DF837302E2B1DD1049B1A
:1095F00001330493049B1B788DF837309DF8373086
:109600002F2B12D99DF83730392B0ED8049B0133FC
:1096100004930B9A13469B0013445B001A469DF873
:1096200037301344303B0B93E4E7049B1B788DF8F1
:1096300037309DF837306C2B03D09DF83730682BCE
:1096400007D1049B01330493049B1B788DF83730BA
:10965000EFE79DF83730253B532B00F21F8101A225
:1096600052F823F0939802009D9802009D98020002
:109670009D9802009D9802009D9802009D9802000E
:109680009D9802009D9802009D9802009D980200FE
:109690009D9802009D9802009D9802009D980200EE
:1096A0009D9802009D9802009D9802009D980200DE
:1096B0009D9802009D9802009D9802009D980200CE
:1096C0009D9802009D9802009D9802009D980200BE
:1096D0009D9802009D9802009D9802009D980200AE
:1096E0009D9802009D9802009D9802009D9802009E
:1096F0009D9802009D9802009D9802009D9802008E
:109700009D9802009D9802009D9802009D9802007D
:109710009D9802009D9802009D9802009D9802006D
:109720009D9802009D9802009D9802009D9802005D
:109730001F9802009D9802009D9802009D980200CB
:109740009D9802009D9802009D9802009D9802003D
:109750009D9802009D9802009D980200B597020016
:10976000D79702009D9802009D9802009D980200E4
:109770009D980200D79702009D9802009D980200D4
:109780009D9802009D9802009D9802009D980200FD
:109790005F9802009D9802009D9802004398020085
:1097A0009D980200FB9702009D9802009D98020080
:1097B0001F980200039B1B68191D039A11601B6808
:1097C0000C930C9B8DF823309DF823301946059897
:1097D000FFF7DEFC63E0039B1B68191D039A116011
:1097E0001B680C930A9B0193099B00930B9B0A2215
:1097F0000C990598FFF7ECFD51E0039B1B68191DC0
:10980000039A11601B680C930C990A9B0193099BA6
:1098100000930B9B0A220598FFF742FD3FE0039B54
:109820001B68191D039A11601B680C930C990A9B05
:109830000193099B00930B9B10220598FFF730FDC5
:109840002DE0039B1B68191D039A11601B68079389
:109850000A9B099A07990598FFF7C0FC1FE0039B34
:109860001B68191D039A11601B680C933021059821
:10987000FFF78EFC78210598FFF78AFC0C990023EE
:10988000019308230093082310220598FFF708FD91
:1098900005E025210598FFF77BFC00E000BF049B55
:1098A0000133049305E09DF8373019460598FFF71A
:1098B0006FFC049B1B78002B7FF421AE00E000BFFF
:1098C000059B1B7B002B04D00598FFF731FC00E0C3
:1098D00000BF0FB05DF804FB10B586B00590049191
:1098E00003920293059B002B10D1604A604BD31A60
:1098F000DB081B0443F001005E4A5F490E2300931E
:109900000B465E4904F0FBFB0E23ABE0039B002BF0
:1099100010D1564A564BD31ADB081B0443F0010002
:10992000574A55490E2300930B46544904F0E7FB70
:109930000E2397E0059B1B68002B10D14B4A4C4B24
:10994000D31ADB081B0443F001004E4A4A4908239E
:1099500000930B46494904F0D2FB082382E0029BA6
:10996000002B10D1414A424BD31ADB081B0443F0B1
:109970000100454A4049092300930B463F4904F042
:10998000BEFB09236EE0059B5B685A68029BB3FB34
:10999000F2F102FB01F29B1A002B10D0334A344B38
:1099A000D31ADB081B0443F00100384A324909236B
:1099B00000930B46314904F0A2FB092352E00498BE
:1099C00000F01EF90346002B10D1284A284BD31A69
:1099D000DB081B0443F001002D4A274910230093A4
:1099E0000B46264904F08BFB10233BE0039B1846F3
:1099F00000F006F90346002B10D11C4A1C4BD31A69
:109A0000DB081B0443F00100224A1B49102300938A
:109A10000B461A4904F073FB102323E0029A0499C1
:109A2000059800F0D3F80346002B10D10F4A104BD5
:109A3000D31ADB081B0443F00100174A0E49102318
:109A400000930B460D4904F05AFB10230AE0059BD6
:109A50001B68DC68089B0093029B039A0499059895
:109A6000A0470346184606B010BD00BF68CF0300EC
:109A7000F8CE030008D10300ACD2030010D10300DC
:109A80009CD1030044D1030058D10300A4D10300AA
:109A9000D0D10300E8D103000CD2030010B586B08A
:109AA0000590049103920293059B002B10D13E4A2E
:109AB0003E4BD31ADB081B0443F001003C4A3D49EE
:109AC0000E2300930B463C4904F019FB0E2368E07B
:109AD000059B1B68002B10D1334A344BD31ADB088B
:109AE0001B0443F00100354A3249082300930B461A
:109AF000314904F004FB082353E0039B002B10D1F1
:109B0000294A2A4BD31ADB081B0443F001002C4AD4
:109B10002849092300930B46274904F0F0FA09234A
:109B20003FE00499059800F078F80346002B10D127
:109B30001D4A1E4BD31ADB081B0443F00100214AC7
:109B40001C49102300930B461B4904F0D8FA10233C
:109B500027E0059B5B681B68039A02FB03F31A4628
:109B60000499059800F032F80346002B10D10E4AF4
:109B70000E4BD31ADB081B0443F00100124A0D49B7
:109B8000102300930B460C4904F0B9FA102308E0A7
:109B9000059B1B681C69029B039A04990598A047C2
:109BA0000346184606B010BD68CF0300F8CE030088
:109BB00008D10300C0D2030010D1030044D1030038
:109BC00058D1030034D203005CD2030084B0039068
:109BD00002910192039BDB68029A9A4209D3029A8E
:109BE000019B13445A1E039B1B699A4201D801230F
:109BF00000E0002303F00103DBB2184604B0704715
:109C000082B00190019B03F00303002B0CBF0123E2
:109C10000023DBB2184602B0704782B00190009179
:109C2000019B5B681B685A1E009B1340002B0CBFF6
:109C300001230023DBB2184602B0704729DF7047CA
:109C400000BF184628DF704700BF184600B589B02E
:109C500001900091019B1B689B68002B35D002ABE3
:109C600000221A605A609A60DA601A615A61009B99
:109C70000393019B9B680793019B1B79002B02D0E8
:109C8000012B0DD01AE001238DF80830019B1B69D0
:109C90000493019BDB680593019B5B6906930DE0D0
:109CA00002238DF80830019BDB684FF4805202FBE1
:109CB00003F30493019B5B69069300BF019B1B6840
:109CC0009B6802AA1046984700E000BF09B05DF803
:109CD00004FB00B587B00190019B5A69019B9B6909
:109CE000D31AB3F5805F28BF4FF480530593042245
:109CF000059BB3FBF2F3012B38BF01230593019BB6
:109D00001A69019B9B6913440493019BDB681A4603
:109D1000019B9B6913440393059A03990498FFF7E9
:109D20008DFF0346184607B05DF804FB00B583B00D
:109D30000190019BDA68019B1B6913441846FFF7E9
:109D400081FF0346184603B05DF804FB08B5034BDA
:109D500003491846FEF78EFF00BF08BDB42D002052
:109D6000DC2D002008B5084B08491846FEF769FFAE
:109D70000246074B1A60064B1B68002B14BF0123D9
:109D80000023DBB2184608BDB42D0020DC2D0020D6
:109D9000D82D002000B583B02B4B1B7A002B0BD1A4
:109DA000FFF7E0FF034683F00103DBB2002B03D093
:109DB000254B00225A6043E0234B02221A72234BA8
:109DC0001B681B79002B02D0012B07D00DE01F4B25
:109DD0001B681846FFF77DFF019009E01B4B1B68CD
:109DE0001846FFF7A3FF019002E00323019300BF91
:109DF000019B002B03D0019B112B0CD00FE0124BC9
:109E00001B7C83F00103DBB2002B18D00021022061
:109E100000F070F813E00C4B01221A7210E00B4BAB
:109E20001B6803211846FFF711FF074B00221A7227
:109E3000054B00225A60FFF789FF00BF00E000BF1A
:109E400003B05DF804FB00BFC42D0020D82D002016
:109E500084B001901B4B0022DA60019B1B79002B20
:109E600002D0012B19D028E0019B5A69019B9B6904
:109E7000D31AB3F5805F28BF4FF480530393019B3F
:109E80009A69039B1A44019B9A61019B9A69019B01
:109E90005B699A420ED1012310E0019B1B695A1C99
:109EA000019B1A61019B1A69019B5B699A4203D16C
:109EB000012303E000BF00E000BF0023184604B008
:109EC000704700BFC42D002082B00190084BDB68B2
:109ED0000133074AD360064BDB68082B04D9044BD7
:109EE0000022DA60012300E00023184602B0704728
:109EF000C42D002000B585B001900091019B022B7C
:109F000002D0019B032B4AD1274B1B7A012B36D061
:109F1000022B02D0002B35D142E000238DF80F3008
:109F2000019B022B03D0019B032B09D011E01F4B97
:109F30001B681846FFF78CFF03468DF80F3008E0CA
:109F40001A4B1B681846FFF7BFFF03468DF80F300A
:109F500000BF9DF80F30002B13D0134B00221A7254
:109F6000124B1A68019B022B01D1002300E00D2344
:109F700019461046FFF76AFEFFF7E8FE01E000BF52
:109F800000E000BF084B5B7C83F00103DBB2002BD9
:109F900002D0FFF7FFFE03E010F0F2FE00E000BF8A
:109FA00005B05DF804FB00BFC42D0020D82D0020B3
:109FB00082B0034600918DF80730064B01225A7497
:109FC000044B1B7A002B0CBF01230023DBB2184685
:109FD00002B07047C42D002000B583B00346009145
:109FE0008DF807309DF80730012B03D09DF807301E
:109FF000032B0DD1084B00225A749DF80730012B1A
:10A000000CBF01230023DAB2034B1A74FFF7C2FE20
:10A0100000BF03B05DF804FBC42D002000B583B081
:10A0200001900198FEF7FAFF0346184603B05DF869
:10A0300004FB00B58BB001900091019B1B8A043B8F
:10A040000793009A079B1344DA1C079BB2FBF3F3B8
:10A050008DF81B300198FFF70CF80590059B002B3D
:10A0600001D1002338E0059B00221A71059B0122D3
:10A070005A71079B9AB2059BDA80059B09939DF85C
:10A080001B30013B0493099B019A1A60002308933B
:10A090001DE00198FEF7EDFF0390039B002B0ED00F
:10A0A000059B5B790133DAB2059B5A71099B039AD0
:10A0B0001A60039B019A1A60039B099304E00598B8
:10A0C00000F00EF8002307E0089B01330893089A7C
:10A0D000049B9A42DDD3059B18460BB05DF804FB48
:10A0E00000B58BB00190019B0793079B5B798DF8BE
:10A0F0001B30019B08939DF81B30013B0593002307
:10A10000099305E0089B1B680893099B0133099399
:10A11000099A059B9A42F5D3089B1B680493019BFF
:10A120000893002309930BE0089B1B68039308998D
:10A130000498FEF7DCFF039B0893099B0133099306
:10A140009DF81B30099A9A42EED300BF0BB05DF820
:10A1500004FB00B585B00190019B0393039B04337E
:10A1600001211846FEF7F2FE00BF05B05DF804FBC2
:10A1700000B587B00190019B0593059B0433012135
:10A180001846FEF7FBFE0346039303AB0493049BC0
:10A190001B78002B02D10198FFF7A2FF00BF07B088
:10A1A0005DF804FB00B591B0039002910192009319
:10A1B000039B0993039B0F93099BDB881A46099B1A
:10A1C0005B7903FB02F3043B0893099BDB8807934D
:10A1D000009B1A1D079BB2FBF3F30E93009B043305
:10A1E000079AB3FBF2F2079901FB02F29B1A0D9357
:10A1F000019B1A68009B1344089A9A4203D2089A5A
:10A20000009BD31A01E0019B1B680C93019B0C9AE5
:10A210001A6005E00F9B1B680F930E9B013B0E938A
:10A220000E9B002BF6D100230B93079A0D9BD31A9C
:10A230000A930A9A0C9B934228BF13460A932AE07A
:10A24000029A0B9B134406930F9A0D9B13440433FD
:10A2500005939DF84830002B05D00A9A0599069879
:10A2600011F07FF904E00A9A0699059811F079F93E
:10A2700000230D930F9B1B680F930C9A0A9BD31A14
:10A280000C930B9A0A9B13440B93079A0C9B9342D3
:10A2900028BF13460A930C9B002BD1D100BF11B0ED
:10A2A0005DF804FB00B589B0059004910392029318
:10A2B000039B079307AA00230093029B0499059828
:10A2C000FFF770FF00BF09B05DF804FB00B589B06F
:10A2D0000590049103920293039B079307AA01231D
:10A2E0000093029B04990598FFF75CFF00BF09B03B
:10A2F0005DF804FB82B003468DF807309DF9073006
:10A30000002B0DDB9DF8073003F01F0206499DF975
:10A3100007305B09012000FA02F2603341F8232084
:10A3200000BF02B0704700BF00E100E082B00190C2
:10A33000019B00221A60BFF35F8F00BF02B070471D
:10A3400041DF704700BF184600B585B000238DF887
:10A3500003300DF103031846FCF7ECFCF1EE103A64
:10A360000193019B0393039B23F09F030293029BA2
:10A37000E1EE103ABFF35F8F2620FFF7BBFF9DF899
:10A3800003301846FCF7E0FC00BF05B05DF804FBA5
:10A3900008B5064B00221A700548FFF7C7FF0549AC
:10A3A000054800F00EFA0023184608BDE42D0020F1
:10A3B000E02D0020E0D20300E82D002000B583B09E
:10A3C000FFF7C2FF10F0F8FC0346002B03D0FFF7A5
:10A3D000B7FF019002E020BF40BF20BF00BF03B025
:10A3E0005DF804FB82B00190019B9B68024A1278E1
:10A3F0001344184602B07047ECD2030082B00190BB
:10A400000091019B9B68009A9A4202D2009B013303
:10A4100000E00023184602B0704700B585B00190F7
:10A42000019B1B681B680393019B1B685B6802937D
:10A43000029A039B9A4203D3029A039BD31A07E022
:10A440000198FFF7CFFF0246039BD21A029B1344E9
:10A45000184605B05DF804FB00B585B00190019B7E
:10A460001B681B680393019B1B685B68029302993E
:10A470000198FFF7C3FF0246039B93420CBF0123E1
:10A480000023DBB2184605B05DF804FB10B588B0B8
:10A49000019000910023069300238DF80F300DF1F9
:10A4A0000F031846FCF746FC0198FFF7D5FF03465B
:10A4B0008DF81F309DF81F3083F00103DBB2002BB5
:10A4C00003D1019B1B7C002B7BD1019B1B685B682C
:10A4D0000593019B1B685A68019B1C6811460198F3
:10A4E000FFF78CFF034663609DF81F30002B0AD0F6
:10A4F000019B1B681A68019B1C6811460198FFF7B5
:10A500007DFF03462360019BDB68013B072B38D8A6
:10A5100001A252F823F000BF39A5020049A50200AC
:10A5200083A502005BA5020083A5020083A50200AB
:10A5300083A502006DA50200019B5A68059B134488
:10A54000009A12781A702DE0019B5A68059B5B00F7
:10A550001344009A12881A8024E0019B5A68059BD4
:10A560009B001344009A12681A601BE0019B5A6812
:10A57000059BDB001A44009BD3E90034C2E9003498
:10A5800010E0019B5B681946019BDB68059A02FBA2
:10A5900003F30B441846019BDB681A46009910F040
:10A5A000E0FF00BF0198FFF738FF0490019B1B6894
:10A5B0009B68049A9A4207D9019B1B68049A9A6087
:10A5C00002E00423069300E000BF9DF80F30184618
:10A5D000FCF7BAFB069B184608B010BD00B585B065
:10A5E00001900B468DF80330019B1B681B68039399
:10A5F000019B1B685B6802939DF80330002B0ED013
:10A60000029A039B9A4206D30198FFF7EBFE02469B
:10A61000029BD31A11E0039A029BD31A0DE0029A0F
:10A62000039B9A4203D3029A039BD31A05E0019835
:10A63000FFF7D8FE0246039BD31A184605B05DF813
:10A6400004FB00B58BB0039002910192039B1B6841
:10A650001B68099300210398FFF7C0FF0890039B34
:10A660005B681946039BDB68099A02FB03F30B4402
:10A670000793019A089B9A4219D8039BDB68019AB9
:10A6800002FB03F31A460799029810F06AFF099A31
:10A69000019B1A44039B9B689A4203D8099A019B29
:10A6A000134400E00023039A1268136020E0039B28
:10A6B000DA68089B02FB03F30693069A079902984F
:10A6C00010F04FFF019A089BD31A0593029A069B3C
:10A6D00013441846039B5968039BDB68059A02FBE9
:10A6E00003F31A4610F03DFF039B1B68059A1A609E
:10A6F00000BF0BB05DF804FB00B587B0039002917A
:10A70000019200230593019B002B01D100231CE043
:10A7100000238DF813300DF113031846FCF70AFBE4
:10A720000398FFF77AFE0246019B934205D8019AEF
:10A7300002990398FFF785FF01E0052305939DF833
:10A7400013301846FCF700FB059B184607B05DF870
:10A7500004FB00B585B0019000238DF80F300DF19A
:10A760000F031846FCF7E6FA019B1B680C22002138
:10A77000184610F01FFF9DF80F301846FCF7E4FA5A
:10A7800000BF05B05DF804FB82B00190019B9B689F
:10A7900000229A60019B9B6800221A61019B9B68C2
:10A7A00000225A61019B9B680022DA60019B9B6832
:10A7B00000225A60019B9B6800221A6000BF02B011
:10A7C000704782B001900091019B009A1A60019B32
:10A7D0001B681A68019B5A60019B5A68019B1B68A1
:10A7E0005B689A4202D1019B00225A6000BF02B00E
:10A7F000704782B00190019B5B68002B14D0019BD5
:10A800005B681A46019B1B689B6813441A46019BB0
:10A810005A60019B5A68019B1B685B689A4204D18D
:10A82000019B00225A6000E000BF02B0704700B5F3
:10A8300085B001900091019B5B6803930FE0019B41
:10A840009B68039A1268009910469847034683F064
:10A850000103DBB2002B07D1039B1B680393039B0F
:10A860001B68002BEBD100E000BF039B1A68009B24
:10A870001A60039B009A1A6000BF05B05DF804FBE4
:10A8800084B00190019B5B681B680393019B5B682C
:10A890001B68002B06D0019B5B681A68019B5B68F4
:10A8A00012681A60039B184604B0704782B001908A
:10A8B000019B5B681B68184602B0704784B001902A
:10A8C000009100238DF80F30019B5B6802930FE02D
:10A8D000029B1B68009A9A4207D1009B1A68029B50
:10A8E0001A6001238DF80F3006E0029B1B6802936B
:10A8F000029B1B68002BEBD19DF80F30184604B06B
:10A900007047000000B585B00190019800F00EF886
:10A910000390039B002B01D0039B00E0024B1846E1
:10A9200005B05DF804FB00BFFCD2030086B00190C7
:10A93000164B0593164B04931FE0049A059BD31AFC
:10A94000DB10DA0F13445B10DB00059A134403930A
:10A95000039B1B680293029A019B9A4202D9039BB4
:10A9600004930AE0029A019B9A4203D2039B0833A4
:10A97000059302E0039B5B6804E0059A049B9A42FE
:10A98000DBD30023184606B0704700BFFCD6030097
:10A9900024D8030082B001900091009B1B7B002B08
:10A9A00007D0009B5A68019B1A60019B00221A7114
:10A9B00006E0009B1A68019B1A60019B01221A7134
:10A9C00000BF02B0704700B583B001900091019BB9
:10A9D0001B79002B04D00099019800F00BF803E0DC
:10A9E0000099019800F024F8019B1B68184603B0F9
:10A9F0005DF804FB82B001900091009B5A68019BB6
:10AA00001B68D21A009B9B689A4207D9019B1A685F
:10AA1000009B9B681A44019B1A6006E0009B5A68E1
:10AA2000019B1A60019B00221A7100BF02B070479F
:10AA300082B001900091019B1A68009B1B68D21A9A
:10AA4000009B9B689A4207D9019B1A68009B9B68F0
:10AA5000D21A019B1A6006E0009B1A68019B1A60DB
:10AA6000019B01221A7100BF02B0704782B00346F9
:10AA70008DF807309DF90730002B11DB9DF807306A
:10AA800003F01F0208499DF907305B09012000FA15
:10AA900002F2203341F82320BFF34F8FBFF36F8FB3
:10AAA00000BF02B0704700BF00E100E0044BD3F8E4
:10AAB0000034002B14BF01230023DBB2184670477B
:10AAC0000000014008B5FFF7F1FF034683F00103E2
:10AAD000DBB2002B04D000F037FC024B00229A704E
:10AAE00000BF08BDF02D002000B583B00023019306
:10AAF000184B1B78002B02D0852301931CE0154BCB
:10AB000000229A60134B00225A60124B00221A61F5
:10AB1000104B0022DA60104800F0F4FB019010F0B6
:10AB20004BF9034683F00103DBB2002B01D000F0A8
:10AB300003FC084B01221A70FFF7B8FF0346002BF5
:10AB400002D0044B01229A70019B184603B05DF8B5
:10AB500004FB00BFF02D002009AC020084B001907E
:10AB6000019B1B680393039B002B03D0039B1A6874
:10AB7000019B1A60039B184604B0704700B583B070
:10AB800000238DF807300DF107031846FCF7D2F8C3
:10AB9000094BDB68013B084AD360074BDB68002B9D
:10ABA00001D1FFF78FFF9DF807301846FCF7CCF86E
:10ABB00000BF03B05DF804FBF02D002000B585B0A8
:10ABC00003468DF807309DF80730002B02D10C4B5F
:10ABD000039301E00B4B03930398FFF7BFFF029031
:10ABE000029B002B06D0029B5B689DF80720104655
:10ABF0009847F1E700BF00BF05B05DF804FB00BF58
:10AC0000F82D0020002E002000B583B003468DF8FB
:10AC100007309DF80730002B05D10A4B01225A70EE
:10AC20000020FFF7CBFF9DF80730012B05D1054B26
:10AC300001229A700120FFF7C1FF00BF03B05DF849
:10AC400004FB00BFF02D002000B583B001900091FF
:10AC5000019B002B05D1054B01225A700020FFF704
:10AC6000ADFF00BF03B05DF804FB00BFF02D002076
:10AC700000B585B0034600918DF807309DF8073088
:10AC8000012B07D0032B24D0002B27D10020FFF766
:10AC9000EDFE24E000238DF80F300DF10F03184670
:10ACA000FCF748F8104B1B7883F00103DBB2002B54
:10ACB00001D0FFF719FF0C4BDB6801330A4AD36060
:10ACC000094B01229A709DF80F301846FCF73CF8AA
:10ACD00005E000F031FBFFF751FF00E000BF00BFCF
:10ACE00005B05DF804FB00BFF02D002031DF704798
:10ACF00000BF184600B585B003468DF80730002325
:10AD00008DF80F300DF10F031846FCF713F810F013
:10AD100053F8034683F00103DBB2002B0DD00DF195
:10AD2000070319460948FFF7B1FB0848FFF794FBF2
:10AD30000346002B01D000F04CFF9DF80F30184661
:10AD4000FCF702F800BF05B05DF804FB98CE0300E5
:10AD500000B585B00190002303931C4B1B78002B9A
:10AD600001D085232EE0019B002B01D1184B0193CC
:10AD7000164B019A013312881A8000238DF80B308C
:10AD80000DF10B031846FBF7D5FF10F015F803463D
:10AD900083F00103DBB2002B0BD00E490E4800F00C
:10ADA000DDFE0390039B002B01D0039B0AE000F023
:10ADB00003FF064B01221A709DF80B301846FBF773
:10ADC000C3FF039B184605B05DF804FB042E00206A
:10ADD00030D80300F5AC0200052E002000B583B08A
:10ADE00000238DF807300DF107031846FBF7A2FF8B
:10ADF0000FF0E2FF034683F00103DBB2002B03D028
:10AE000000F0E7FE00F0EEFE9DF807301846FBF775
:10AE10009BFF0548FFF79DFC044B00221A7000BF02
:10AE200003B05DF804FB00BF98CE0300042E0020A1
:10AE300000B585B001900B468DF8033000230393D5
:10AE400000238DF80A300DF10A031846FBF772FF54
:10AE50000FF0B2FF03468DF80B309DF80B3083F0F6
:10AE60000103DBB2002B09D09DF803301A4601998B
:10AE70001248FFF741FC039000F09EFE9DF80A3057
:10AE80001846FBF761FF9DF80B30002B0DD09DF8A5
:10AE9000033019460198FFF729FF0390039B42F204
:10AEA0000702934201D105230393039B022BC7D0D2
:10AEB000039B184605B05DF804FB00BF98CE030065
:10AEC00000B585B00190009116E0009B402B28BF93
:10AED00040230393039BDBB219460198FFF7A8FFB9
:10AEE0000290029B002BF5D1009A039BD31A00938A
:10AEF000019A039B13440193009B002BE5D100BFF3
:10AF000005B05DF804FB000000B585B00346009174
:10AF10008DF807309DF80730002B02D0032B09D0A5
:10AF200022E0134B1B78012B1DD100F052FE00F0E4
:10AF300059FE18E000238DF80B300DF10B03184675
:10AF4000FBF7F8FE0A4B1B78012B06D109490A488A
:10AF500000F004FE039000F02FFE9DF80B30184621
:10AF6000FBF7F2FE00E000BF00BF05B05DF804FB98
:10AF7000042E0020F5AC0200052E002000B589B09B
:10AF800001900091009B0793019B1B788DF80C307A
:10AF9000019B5B680493019B9B68DBB28DF81430C6
:10AFA000019BDB680693074A079B52F8233006494A
:10AFB000079A51F8221003AA1046984700BF09B01B
:10AFC0005DF804FB582E00205C2E002000B589B0EF
:10AFD00001900091009B0793019B1B788DF80C302A
:10AFE000019B5B680493019B9B68DBB28DF8143076
:10AFF000019BDB680693074A079B52F823300649FA
:10B00000079A51F8221003AA1046984700BF09B0CA
:10B010005DF804FB582E00205C2E002030B58FB068
:10B02000039002910192039B1B780C9326490C9B81
:10B03000019A41F82320029B1A6924490C9B41F88C
:10B040002320029B5B7F1946214A0C9B13440A462E
:10B050001A70029B04AC1D460FCD0FC495E80F007B
:10B0600084E80F000C9B089300230D93039B1B782F
:10B070001A46174B9B5C002B0DD0039B181D019BA0
:10B08000002B01D0134A00E0002204AB194601F066
:10B09000FDFE0D9014E0039B1B781A460C4B9B5C45
:10B0A000002B0DD1039B03F10C00019B002B01D061
:10B0B000094A00E0002204AB194601F0E5F80D90C2
:10B0C0000D9B18460FB030BD582E00205C2E00207E
:10B0D000602E00207DAF0200CDAF020082B003469B
:10B0E0008DF807309DF90730002B0CDB9DF80730F9
:10B0F00003F01F0205499DF907305B09012000FAA2
:10B1000002F241F8232000BF02B0704700E100E0E6
:10B1100082B0034600918DF807309DF90730002B6F
:10B120000ADB009BDAB20C499DF907305201D2B21A
:10B130000B4483F800230BE0009BDAB207499DF82B
:10B14000073003F00F03043B5201D2B20B441A76CE
:10B1500000BF02B0704700BF00E100E000ED00E07A
:10B1600082B00190019B1B0B5BB2184602B0704786
:10B1700000B583B003460A468DF8073013468DF8B4
:10B1800006309DF806209DF9073011461846FFF756
:10B19000BFFF00BF03B05DF804FB00B583B00346FA
:10B1A0008DF807309DF907301846FFF797FF00BF6D
:10B1B00003B05DF804FB000082B003468DF8073051
:10B1C0000F4A9DF90730002B00DA1F335B115BB289
:10B1D00052F823209DF90730594203F01F0301F074
:10B1E0001F0158BF4B425BB222FA03F303F0010385
:10B1F000002B14BF01230023DBB2184602B07047B6
:10B2000000E100E082B001904FF08042019BC2F863
:10B21000083300BF02B0704782B003468DF8073094
:10B220009DF8073003F1804301221A6000BF02B08D
:10B23000704784B00346ADF80630BDF8063003F120
:10B24000804300221A60BDF8063003F180431B687A
:10B250000393039B00BF04B0704782B00346ADF870
:10B260000630BDF8063003F180431B68002B14BF85
:10B2700001230023DBB2184602B0704782B0019070
:10B280004FF08042019BC2F8183500BF02B07047F2
:10B290004FF08043D3F818341B0C03F00103002B4C
:10B2A00014BF01230023DBB21846704700B583B0FA
:10B2B00006238DF807304FF08040FFF751FF03461B
:10B2C0001846FFF779FF034683F00103DBB2002B3A
:10B2D00013D04FF08040FFF743FF03461A469DF816
:10B2E000073019461046FFF743FF4FF08040FFF745
:10B2F00037FF03461846FFF750FF00BF03B05DF865
:10B3000004FB000084B0019000230393094B1B79D8
:10B31000002B02D08523039308E0064A019B1360AB
:10B32000044B01221A71034B00225A71039B1846E9
:10B3300004B07047642E002008B5FFF7B7FF012066
:10B34000FFF79CFF00BF08BD08B50220FFF75AFFBA
:10B350004FF48270FFF76DFF0C20FFF75DFF00BF19
:10B36000FFF796FF0346002BFAD100BF08BD00008F
:10B3700008B54FF48070FFF770FF0346002B14D020
:10B380004FF48070FFF755FF0120FFF73BFF114B93
:10B390005B7983F00103DBB2002B06D00D4B012259
:10B3A0005A710C4B1B68002098474FF48270FFF7CE
:10B3B00054FF0346002B0AD04FF48270FFF739FF89
:10B3C0000220FFF71FFF034B1B680120984700BFB7
:10B3D00008BD00BF642E002000B583B00346ADF861
:10B3E0000630BDF80630184600F026F803461B6804
:10B3F000012B0CBF01230023DBB2184603B05DF81C
:10B4000004FB00B585B00346ADF80630BDF8063044
:10B41000184600F011F803461A4600231360BDF8E1
:10B420000630184600F008F803461B680393039B98
:10B4300000BF05B05DF804FB82B00346ADF80630EE
:10B44000BDF8063003F1804303F5C043184602B04F
:10B450007047000082B00190034BD3F80423019B96
:10B460001340184602B070470060004082B001905F
:10B47000054A019B03F5A27352F823301B0A03F01F
:10B480001F03184602B070470060004082B0019070
:10B49000064A019B03F5A27352F823301B0C03F0FC
:10B4A0000303DBB2184602B0704700BF00600040E3
:10B4B00082B001904FF0A043184602B0704700B52B
:10B4C00085B001900B468DF8033001AB1846FFF7AD
:10B4D000EFFF0390019A039B02F5E07253F82230CC
:10B4E000019A23F44031039B02F5E07243F82210E5
:10B4F000019A039B02F5E07253F822309DF8032075
:10B5000012041146019A1943039B02F5E07243F8B5
:10B51000221000BF05B05DF804FB00B585B00190B6
:10B5200001AB1846FFF7C4FF0390019A039B02F595
:10B53000E07253F822301B0C03F00303DBB2184611
:10B5400005B05DF804FB86B00390029101924FF0C4
:10B55000A0430493039B059319E0059B9B0006AA57
:10B56000134453F8083CD3F82025019B1A60059B2F
:10B570009B0006AA134453F8083C019A1268C3F8CA
:10B580002025019B04330193059B01330593039A06
:10B59000029B1344059A9A42DFD300BF06B070475E
:10B5A00000B585B0019001AB1846FFF781FF03900D
:10B5B000019B012202FA03F31A46039BC3F82025DC
:10B5C00000BF05B05DF804FB84B001900091009BC2
:10B5D0000393019BDB080293019B03F00703019394
:10B5E0000122019B02FA03F30399029A0A4412789A
:10B5F0001340184604B0704782B00190044A019B82
:10B600001344303393F90030184602B0704700BF3E
:10B610006C2E002082B00190034A019B52F8233027
:10B62000184602B0704700BF6C2E002084B0019015
:10B63000074A019B1344503393F900308DF80F30C3
:10B640009DF80F3023F0C003184604B0704700BFC8
:10B650006C2E002084B00190074A019B13445033A4
:10B6600093F900308DF80F309DF80F309B09DBB255
:10B67000184604B0704700BF6C2E002000B585B09E
:10B680000190019A01210020FFF75DFF0023039341
:10B690000BE0039B9B00019A13441B68002B01D015
:10B6A000012306E0039B01330393039B002BF0D09F
:10B6B0000023184605B05DF804FB000000B587B014
:10B6C0000190002305935BE0344A059B13445033FB
:10B6D00093F90030B3F1FF3F4ED00598FFF7A6FF76
:10B6E000049001990498FFF76FFF0346002B44D0A4
:10B6F0000598FFF7AFFF03468DF80F300498FFF76A
:10B700000CFF03468DF80E309DF80E30022B01D150
:10B71000032300E002238DF80D309DF80D3019460B
:10B720000498FFF7CCFE0498FFF73AFF0498FFF760
:10B7300063FF03461846FFF76DFF0290029B002B44
:10B740001BD09DF80F30032B0FD09DF80E30022B2D
:10B7500003D19DF80F30012B07D09DF80E30032B3D
:10B760000BD19DF80F30022B07D19DF80F20029BC3
:10B7700011460498984700E000BF059B01330593EC
:10B78000059B032BA0D90198FFF778FF0346002BF8
:10B7900097D100BF07B05DF804FB00BF6C2E0020FE
:10B7A00000B589B000230693002300934FF4807303
:10B7B000ADF81230012307930023059321E0BDF873
:10B7C00012301846FFF708FE0346002B0ED00798EC
:10B7D000FFF740FE0346002B08D0BDF81230184694
:10B7E000FFF70FFE069A079B13430693079B5B0028
:10B7F0000793BDF812300433ADF81230059B0133C6
:10B800000593059B072BDAD94FF4BE70FFF7E4FDD3
:10B810000346002B0DD04FF4BE70FFF7F2FD069BE0
:10B8200043F0004306936B461A4601210020FFF7C0
:10B830008AFE069BDBB2002B29D00123079300234D
:10B84000059321E0079A069B1340002B16D005981C
:10B85000FFF70CFE03900598FFF718FE03468DF8DE
:10B860000B300598FFF7D6FE0190019B002B05D009
:10B870009DF80B20019B114603989847079B5B009E
:10B880000793059B01330593059B072BDAD9069B8C
:10B89000002B03DA6B461846FFF710FF00BF09B014
:10B8A0005DF804FB08B5024B1B68984700BF08BD54
:10B8B000C82E002082B00190019B044A934201D11E
:10B8C000034B00E00023184602B070470020004000
:10B8D000C82E002000B587B0019000910198FFF7B5
:10B8E000E9FF0490049B002B25D000238DF817302E
:10B8F00000238DF80B300DF10B031846FBF71AFAF5
:10B90000049B1B79002B03D001238DF8173005E031
:10B91000049B009A1A60049B01221A719DF80B3057
:10B920001846FBF711FA9DF81730002B03D01123AE
:10B930000393039B02E000230393039B184607B085
:10B940005DF804FB00B585B001900198FFF7B2FFE8
:10B950000390039B002B05D0039B00221A60039BDE
:10B9600000221A7100BF05B05DF804FB82B00346E7
:10B970008DF807309DF90730002B0CDB9DF8073060
:10B9800003F01F0205499DF907305B09012000FA09
:10B9900002F241F8232000BF02B0704700E100E04E
:10B9A00082B003468DF807309DF90730002B11DB7C
:10B9B0009DF8073003F01F0208499DF907305B0925
:10B9C000012000FA02F2203341F82320BFF34F8F09
:10B9D000BFF36F8F00BF02B0704700BF00E100E00F
:10B9E00082B0034600918DF807309DF90730002B97
:10B9F0000ADB009BDAB20C499DF907305201D2B242
:10BA00000B4483F800230BE0009BDAB207499DF852
:10BA1000073003F00F03043B5201D2B20B441A76F5
:10BA200000BF02B0704700BF00E100E000ED00E0A1
:10BA300000B583B003460A468DF8073013468DF8EB
:10BA400006309DF806209DF9073011461846FFF78D
:10BA5000C7FF00BF03B05DF804FB00B583B0034629
:10BA60008DF807309DF907301846FFF77FFF00BFBC
:10BA700003B05DF804FB00B583B003468DF80730D2
:10BA80009DF907301846FFF78BFF00BF03B05DF844
:10BA900004FB000082B00190034A019BC2F804330A
:10BAA00000BF02B0704700BF00D0004082B00190DC
:10BAB000034A019BC2F8083300BF02B0704700BFC1
:10BAC00000D0004082B003468DF807309DF8073063
:10BAD00003F1804303F5504301221A6000BF02B016
