:020000022000DC
:1060000000000120756302005D6302005F6302000F
:106010006163020063630200656302000000000028
:1060200000000000000000000000000067630200A4
:1060300069630200000000006B6302006D630200F0
:10604000058402006F630200558802006F6302003E
:106050006F6302006F6302000D8702006F6302002E
:106060006F6302006F6302006F6302006F630200E0
:106070006F6302006F6302006F6302006F630200D0
:106080006F630200DD7002006F6302006F63020045
:106090006F6302006F63020029C602006F63020093
:1060A0006F6302006F6302006F6302006F630200A0
:1060B0006F6302006F630200000000000000000038
:1060C0006F6302006F6302006F6302006F63020080
:1060D0006F6302006F6302006F6302000000000044
:1060E00000000000000000000000000000000000B0
:1060F00000000000000000000000000000000000A0
:10610000000000000000000000000000000000008F
:10611000000000000000000000000000000000007F
:10612000000000000000000000000000000000006F
:10613000000000000000000000000000000000005F
:10614000000000000000000000000000000000004F
:10615000000000000000000000000000000000003F
:10616000000000000000000000000000000000002F
:10617000000000000000000000000000000000001F
:10618000000000000000000000000000000000000F
:1061900000000000000000000000000000000000FF
:1061A00000000000000000000000000000000000EF
:1061B00000000000000000000000000000000000DF
:1061C00000000000000000000000000000000000CF
:1061D00000000000000000000000000000000000BF
:1061E00000000000000000000000000000000000AF
:1061F000000000000000000000000000000000009F
:10620000354936480A1A02D0072291438D4634494F
:1062100034480A1A06D00722914381F309880222E2
:1062200082F3148830483149314A00F044F831484B
:106230003149324A00F03FF831483249324A00F0E1
:106240003AF832483249334A00F035F83248334997
:10625000334A00F030F833483349344A00F02BF821
:1062600033483449344A00F026F83448344900228F
:1062700000F02CF833483449002200F027F8334866
:106280003349091A082902DB002202604160314AC1
:1062900090471F481F49884205D00268043003B464
:1062A000904703BCF7E700208646EC46002000211B
:1062B000294A9047FEE7884207D0521A05D0037852
:1062C00001300B700131013AF9D17047884202D098
:1062D00002700130FAE770470000012000E0002062
:1062E00000000120000001209CCB020014250020AA
:1062F00044250020D0630200D063020008CA0200D7
:106300009CCB02001425002014250020B8CA0200EE
:10631000B8CA0200B8CA0200B8CA0200B8CA02006D
:10632000B8CA0200B8CA0200B8CA02009CCB020078
:10633000CCCB020044250020442500204425002029
:10634000C42F0020C42F0020C42F0020C42F002001
:10635000C44F00209D630200758D0200FEE7FEE73A
:10636000FEE7FEE7FEE7FEE7FEE7FEE7FEE7FEE705
:1063700000F002B8FFF7FCBF0F484FF00701884359
:1063800085460E4880470E48016841F4700101605F
:10639000BFF34F8FBFF36F8FFFF732BF09480A4932
:1063A0000A4A884207D0521A05D0037801300B7090
:1063B0000131013AF9D1704700000120F96402006F
:1063C00088ED00E0A4CA020000250020142500206A
:1063D000054A4FF0A043105CD3F8043523FA00F0CF
:1063E000C04300F001007047B8CA0200044B1A5CB9
:1063F000012393404FF0A042C2F80C35704700BF14
:10640000B8CA0200044B1A5C012393404FF0A0422B
:10641000C2F80835704700BFB8CA020008B50020AE
:10642000FFF7F0FF0120FFF7EDFF0220FFF7EAFF83
:106430000320BDE80840FFF7E5BF08B50020FFF7DF
:10644000D5FF0120FFF7D2FF0220FFF7CFFF032087
:10645000BDE80840FFF7CABF074A4FF0A041105CF3
:10646000D1F804350122824022EA03001340C1F82A
:106470000805C1F80C357047B8CA0200C20708B554
:1064800001460CD54FF0A0430322C3F84427C3F8BC
:106490004827C3F84C27C3F85027FFF7BFFF8B07E7
:1064A0000AD54FF0A0430C22C3F83427C3F838278D
:1064B000C3F83C27C3F8402708BD0000044B186808
:1064C000421C04BF034B1878831F58425841704741
:1064D00030010010E00F00F0064B1868083B1B78F5
:1064E000062B05D1C0F30310C31E58425841704714
:1064F00000207047E80F00F008B5FFF7DFFF28B174
:10650000804B814A1B68C3F304231360FFF7E4FF49
:1065100010B17E4B7E4A1A60FFF7D0FF28B17D4B49
:106520007D4A1B68C3F342331360FFF7D5FF20B1E8
:106530007A4AD36823F08073D360FFF7BFFF40B17E
:106540004FF080430022C3F80C21C3F81021C3F898
:106550003825FFF7C1FF10B1714B03221A60FFF716
:10656000BBFF40B16F4B05221A6001229A670022DF
:106570009A603F225A606C4B1A68511C0BBF6B4BE0
:106580006B4B1A781B6802BF08331B68C3F30313F5
:10659000062A49D1033B012B46D94FF08052654B67
:1065A000D2F80414C3F82015D2F80814C3F824153F
:1065B000D2F80C14C3F82815D2F81014C3F82C150F
:1065C000D2F81414C3F83015D2F81814C3F83415DF
:1065D000D2F81C14C3F84015D2F82014C3F844159F
:1065E000D2F82414C3F84815D2F82814C3F84C156F
:1065F000D2F82C14C3F85015D2F83014C3F854153F
:10660000D2F83414C3F86015D2F83814C3F86415FE
:10661000D2F83C14C3F86815D2F84014C3F86C15CE
:10662000D2F84424C3F87025FFF748FF28B1424B45
:10663000424A1B6803F04F031360FFF73FFF48B166
:106640004FF08043D3F80024D20744BF6FF001021B
:10665000C3F80024344B1B68062B09D1344B1B684C
:10666000033B022B81BF364A136843F480631360F7
:10667000344AD2F8883043F47003C2F88830BFF34C
:106680004F8FBFF36F8F4FF01023D3F80022002AF3
:1066900003DBD3F80432002B2FDA2B4B0122C3F893
:1066A0000425D3F80024002AFBD04FF01022152136
:1066B000C2F80012D3F80024002AFBD04FF01023B8
:1066C0001522C3F80422204B1A46D3F800140029DF
:1066D000FBD00021C3F80415D2F80034002BFBD006
:1066E000BFF34F8F1749194BCA6802F4E062134396
:1066F000CB60BFF34F8F00BFFDE7154B154A1A6003
:1067000008BD00BF240300104035014074C007409D
:106710000DF0ADBA440200103C050040F0ED00E081
:10672000A00500401056004030010010E00F00F0BE
:106730003401001000C0004058020010E40E004078
:106740003C17004000ED00E000E001400400FA05C5
:10675000142500200090D003C30710B507D4F02300
:106760004008054A145C23401943115410BD090127
:10677000C9B20F23F4E700BF7825002030B5094BDC
:106780001C78094B196800239C4202DC0022104649
:1067900030BD11F83350854201EBC302F7D001330D
:1067A000F2E700BF442500208825002070B504468C
:1067B0000D46FFF7E3FF30B1436823B12946204679
:1067C000BDE87040184770BD034B044819680022AB
:1067D000490800F040BA00BF48250020502500209D
:1067E00010B5C0B2FFF7CAFF0446007801F084FF7D
:1067F00063785A1E53425341834208D1044BD3E974
:106800000023134303D1BDE81040FFF7DDBF10BDE7
:106810007025002037B54308364AD35CC2074CBF09
:106820001B0903F00F0304460D46042B37D8DFE89D
:1068300003F003262E3A3E0089B30121FFF78CFFB7
:1068400000230DF107008DF8073000F0F3FA012264
:10685000A4F12003C4F12000274902FA03F322FA2D
:1068600000F0034302FA04F4D1E900201443034387
:10687000C1E900439DF8070000F000FB0FE000298C
:1068800014BF022100212046FFF766FF07E041B157
:106890000321FFF761FF01212046FFF787FF03B0C7
:1068A00030BD0121EFE70029F9D10421EBE709B15F
:1068B0000321E8E7FFF750FF29462046FFF776FF60
:1068C0000DF107008DF8075000F0B4FA0122A4F191
:1068D0002003C4F12000084902FA03F322FA00F071
:1068E000034302FA04F4D1E9002022EA040420EA76
:1068F0000303BDE778250020702500202DE9F04135
:10690000124E134F00243378A34208DC114BD3E915
:106910000023134318D0BDE8F041FFF755BF3D6891
:1069200005EBC40815F8340001F0E6FE98F80110F4
:106930004B1E594259410A1A514215F8340051412F
:10694000FFF768FF0134DEE7BDE8F0814425002051
:106950008825002070250020092AF7B505460C4639
:1069600016463DD901F0E2FDD8B11E4B1E481D6010
:106970001E4B1F4F1C701F4B002110221E6005F084
:10698000E0FF1D4B00200021C3E90001013CE4B2FF
:106990000326FF2C0BD1194A1948002100F050F9A9
:1069A00003E001F085FD0028DFD003B0F0BD20B288
:1069B0009DF806308DF8046005EBC00223F0070354
:1069C0008DF8063001A9937815F830008DF8053060
:1069D0003A4601F0B5FD013CE4B20028D9D0E4E725
:1069E0000720E2E7882500207825002044250020A4
:1069F000E16702004825002070250020FD680200A4
:106A0000BCCA020070B5084D084E00242B789C4289
:106A100001D3002070BD3368012113F8340001F068
:106A200003FE0134F2E700BF442500208825002042
:106A300073B5114D114E00242B789C4214D30023C2
:106A40000DF107008DF8073000F0F4F90C4B002130
:106A50000020C3E900019DF8070000F00FFA094883
:106A600000F011F902B070BD336813F8340001F082
:106A700021FE0134E0E700BF4425002088250020E6
:106A800070250020502500201FB50021039001AA89
:106A900044F20100CDE9011100F004F805B05DF801
:106AA00004FB000072B6094B1B68DB0700D500BE73
:106AB000BFF34F8F0649074BCA6802F4E0621343E5
:106AC000CB60BFF34F8F00BFFDE700BFF0ED00E0EC
:106AD00000ED00E00400FA05D0E90223D1E902014B
:106AE000994208BF90422CBF01200020704700004F
:106AF0002DE900480C4800F0DAFA0C4BD3E90023EA
:106B000012EB000B43F1000C094BD3E900239C4529
:106B100008BF93455846614603D21BF180704CF183
:106B20000001BDE8008800BF182500209025002046
:106B30000826002037B505460C460A4801A901F091
:106B400042F860B10570446001A9064801F065F89B
:106B500018B1054800F0B0FA002003B030BD0420A1
:106B6000FBE700BFF425002018250020194B1B78F7
:106B70002DE9304804461BB900252846BDE8308879
:106B80000028F9D0037F03F0FF05002BF4D0FFF7B6
:106B9000AFFFD4E90223994208BF904215D323697D
:106BA00003B92377D4E90530984721690029E3D058
:106BB000237F03F0FF05002BDED0D4E9022312EB84
:106BC000010B43F1000CC4E902BC2146024801F06C
:106BD00019FBD2E798250020C4CA020013B5114B57
:106BE00011491868019008235822104800F0D8FF76
:106BF000044698B90E4A0F4801A900F063F904460B
:106C000060B901210B4800F035FA01230A4A09480E
:106C1000194600F09BF9094B01221A70204602B078
:106C200010BD00BFC0CA02009C250020F425002032
:106C3000A16C020018250020FFFF7F00982500208E
:106C40003AB103685A614A1E51425141196100200C
:106C500070470720704738B5037F04460D4683B957
:106C60008261FFF745FF421941F10003C4E90223A5
:106C7000236903B1256121460020BDE83840FFF7B4
:106C800059BF002038BD0023014603770120FFF7DC
:106C900051BF0000014800F00ABA00BF18250020CB
:106CA0002DE9F04F85B0074600F0ECF940B1594AA4
:106CB000D2E9003113F1807341F10001C2E90031E2
:106CC0000021384600F0EDF938B1534C236823B168
:106CD0002068FFF74BFF002323600121384600F0B6
:106CE000E0F920B1FFF704FF4C4BC3E9000103A911
:106CF0004B48494D4B4C4C4E00F09FFF002845D16E
:106D0000DFF820A1444CDFF828B1504601F090FA9A
:106D10002368002875D07BB12368D0E90201D3E94C
:106D20000223994208BF90422DD223681B7F1BB1DA
:106D30002168504601F066FA504601F073FAD0E936
:106D4000026305460193FFF7D3FE019BB6EB0008F3
:106D500063EB0109B8F1010F79F1000344DB334E15
:106D6000B0453FD9FFF796FF82194FF496030021F3
:106D7000584600F00BF900283ED1236813B9384675
:106D800000F0DCF8256005B0BDE8F08F0378012B3A
:106D90001DD05BB1022B11D14FF0000A204601F04B
:106DA00041FA002833D080F81CA0F7E741680B7F38
:106DB00023B901230B77204601F024FA03A91848D0
:106DC00000F066FF03A9164800F037FF96E7416818
:106DD0002B68994202D100232B60EFE7204601F097
:106DE0002AFAEBE7AA68C0E70021584600F04FF9FD
:106DF0002846FFF7BBFE01E00D28F9D000232360F1
:106E000083E7002BBFD1384600F09CF8BBE7012395
:106E10003370D3E79025002010260020082600209C
:106E2000F4250020C4CA020098250020FFFFB4000A
:106E30001825002070B5EFF3108672B60C4A9468DE
:106E400001239CB993600B4B0B4DD3F88010294064
:106E50001160C3F88050D3F8841051604FF0FF32B6
:106E6000C3F88420047006B962B670BD0370FAE7F7
:106E70001426002000E100E0FC06FFBD084B9A68E4
:106E800010B55AB150B9EFF3108172B6054A1C68BB
:106E900014605C685460986001B962B610BD00BFB0
:106EA0001426002000E100E0435882B03BB10023EB
:106EB000435043580193019B012002B0704718468C
:106EC000FBE7000070B5194C4379194D44F82320B5
:106ED00005EBC3031B7933BB03680A88C3F8082595
:106EE00090F904408B78002C4FEA4313E2B2DBB2F6
:106EF00014DB10490E1986F800330123640902F0EF
:106F00001F0203FA02F241F82420437905EBC30281
:106F1000012145F833001171002070BD02F00F020D
:106F200005498B54F1E70820F7E700BF2826002029
:106F30002026002000E100E014ED00E003680122BB
:106F40001A607047036801225A60704773B501F1F7
:106F50005005AD000068ADB24FF480348C4000267F
:106F6000C0F80843C0F84843465101F5A871455997
:106F7000019522F07F42019D40F82120C0F8444352
:106F80000BB1C0F8044302B070BD00002DE9F74F0B
:106F9000884699464FF48036036808F150058E40C4
:106FA0004FEA880AAD00C3F84863ADB2C3F808637E
:106FB000074603EB0A00D3F804154FF0000B22F04C
:106FC0007F44D0F84025C0F8401543F805B05B5920
:106FD0000093009B531A23F07F43012B0BD1244BCA
:106FE0004FF4806043F0010398473B6843F805B0D5
:106FF0005B590193019B3868D0F80455C0F844638D
:10700000631B23F07F43012B1AD108F5A878184B96
:10701000013440F8284043F001034FF48060984762
:107020003B68D3F804359D4208D13B680020C3F883
:107030004463C3F8046303B0BDE8F08F0D20FAE7A2
:107040008244C9F1FF19CAF84045D0F80435E21A64
:10705000013A22F07F4209F57F499145EED3002A9B
:10706000E3D10134CAF84045D0F804259342DBE768
:10707000D0CA020003680222C3F8442309B1C3F84E
:10708000042370474FF482710068FFF70DBF4FF47F
:10709000803303FA01F10368C3F84813C3F80813F7
:1070A00070475031890089B20068FFF7FDBE036860
:1070B000D3F804057047000090F90430002B09DB79
:1070C0005A09012103F01F0301FA03F34032024978
:1070D00041F82230704700BF00E100E0024B034A54
:1070E0001B681068184700BF2826002020260020B3
:1070F00070B5064D0646002455F8043B0BB13046EA
:1071000098470134042CF7D170BD00BF3826002009
:10711000033080B240F2FE33984230B51FD8134B93
:107120001A783AB91C895D892C440444A4B2B4F598
:10713000806F0AD91A7DAAB99A8BDC8B224402444B
:1071400092B2B2F5806F0DD801220A801446142243
:1071500002FB04335A8910445881002030BD48F2A4
:107160000860FBE748F20660F8E700BF6C260020E5
:107170000B4A0C4B5188142000FB0131CB6833B90A
:107180000420496810700122074800F062BE052300
:107190000649137002238B80012200230968F3E75C
:1071A000502600206C26002000250020A826002064
:1071B00007B5002305490093054A096805480823D7
:1071C00000F019FE03B05DF804FB00BFA826002004
:1071D000E4CA02000025002007B500230093014601
:1071E0000823034A034800F006FE03B05DF804FBE1
:1071F000DCCA02000025002013B500230C460093D2
:1072000001460423074A084800F0F5FD38B9074B4A
:10721000142202FB04340123237402B010BD48F28F
:107220000D60FAE7D8CA0200002500206C26002075
:1072300037B50A480A4B42689C8819685388032569
:10724000033305709BB2002000909B0001EB84018A
:10725000044800F0D0FD03B030BD00BF5026002030
:10726000A82600200025002010B50146044800F0A3
:10727000AAFC1C220446002105F063FB204610BD39
:10728000942600204388033300EB830399420BD3F9
:1072900082884FF6FF739A4208D0038833B1806822
:1072A000431C5842584170470220704701207047E4
:1072B000154A142303FB002070B50B6844680D4683
:1072C00004F58056ABB15C88033403EB8404B4420C
:1072D0000DD2236801330AD031462046FFF7D2FF92
:1072E00001280BD010F0FF0F05D00228EFD10020AD
:1072F00003E00834EBE72C60012070BD63880333A2
:1073000004EB8304E3E700BF6C260020436873B5F9
:1073100004460D4673B3244AD1688B422AD31269BE
:10732000934227D813F0030224D120490089098908
:1073300088421FD12068996888421BD11C4948683F
:10734000834203D900F5805083420ED38A69934269
:107350000DD902F58052934209D201232B800020DF
:10736000B0FA80F0400902B070BD1346F6E748F26B
:107370000960F5E700232B801E46019601A92888A5
:10738000FFF796FF30B92B8801339BB2012B2B807E
:10739000F3D9E8E7019B226899689142EED16360D6
:1073A000024B1B892381DEE70025002050260020A8
:1073B0006C2600202DE9F8431C461D4B1B78064621
:1073C0000F46154673B382B37CB3DFF86C804FF081
:1073D0001409A388012B02D948F2096020E009FBB7
:1073E00003F318F803302BB92146A088FFF760FF9C
:1073F00020B92060A3880133A380EAE723681EB187
:10740000998832889142EFD11FB119883A88914208
:10741000EAD19A68C5E90023064B1B892B8100201D
:10742000BDE8F88348F20160FAE748F20460F7E744
:1074300048260020502600206C26002008B5074B67
:10744000191D5888FFF734FF18B1BDE80840FFF751
:10745000EFBEBDE80840FFF78BBE00BF50260020FE
:107460002DE9F04FA34FDFF8B09289B00646B84639
:107470003B6823B94946A04800F0DFFB3860D8F8E4
:10748000005029784B1E052B00F2FE80DFE813F038
:10749000060060006000F200F20064012EB1974B1C
:1074A00000225A604FF40644F0E02B79032B1DD8DC
:1074B000DFE803F015022B3691490B78022B0846C2
:1074C0001AD00B7D022B4FF0010317D11422534326
:1074D000C2180020C8545068FFF77EFE03E0012365
:1074E0002B71FFF765FE002800F0BE80834B002261
:1074F0005A6048F20D64C9E00023E7E77F4A137041
:107500000023536041F61D54C0E07E497E480023AD
:1075100002222B718A800122096800F09AFCE2E7BE
:10752000784C00262E712068754DFFF755FE774B7D
:10753000D4F800C05A8814235343EA18EE54516813
:107540002160A188C2F804C011810222A280CAE78A
:10755000B5F814A0AA7DDFF8A8B1AEB1022AEB8875
:1075600006D9142101FB0AB1DA1C088902440A81F8
:10757000142202FB0ABAC3F57F43BAF80A20FD338E
:107580001344AAF80A308DE7142303FB0AB31889C1
:107590005C6804EB8004062A69D8DFE802F0274E15
:1075A00036441D5A040041F61D54AA7DEB88022A78
:1075B00006D9142101FB0AB1DA1C088902440A81A8
:1075C000142202FB0ABAC3F57F43BAF80A20FD333E
:1075D0001344AAF80A3059E04D484E49002343604D
:1075E000AB690360FFF792FE002874D00223AB75ED
:1075F000002300930423EA182146434800F0FBFBD4
:10760000002831D048F20D64CFE72B69002B14BF5E
:1076100003230123AB750023009305F10C0204231F
:1076200004F10801E9E70123AB750022EB88009221
:107630009B002A6904F10C01DFE703290CBF052335
:107640000623AB7500230093042305F10802E1181B
:10765000D3E70623AB752F4B19882D4B5868FFF7DE
:10766000CBFD04460028A0D109B0BDE8F08F48F258
:107670000E649AE7002E7FF415AF2B79012B4DD0C5
:10768000EBB1022B3FF43EAF48F20E64142200210E
:1076900003A805F056F941F61D539C4208BF00248B
:1076A000D8F8003004941A78023A042A00F20A81C9
:1076B000DFE812F0EB00F7001A0122012901022392
:1076C0002B710DF10A01EB68039303A8CDE9046661
:1076D000FFF71CFE10B948F20964D7E70498BDF81B
:1076E0000A108388EB8003882B81FFF785FD044611
:1076F00029E000BF682600209426002048260020AC
:107700006C260020A82600200025002050260020FE
:107710002C260020B026002060260020DFF804A2DE
:1077200003AA53463146A81DFFF744FE044668B934
:10773000BAF804100498FFF75FFD044648F20963A5
:107740009C423FF4DFAE002CA0D18DE708223146E9
:10775000504605F0F6F8F1E7002E7FF4A3AE6C4B2F
:107760001A7BAAB11E731A78013A062A8CD801A195
:1077700051F822F01F780200457802006378020079
:1077800069780200897602006F7802008178020031
:107790001A78072AE7D801A151F822F0BD77020034
:1077A0006777020067770200E3770200F77702004D
:1077B0001B7802001B780200DF7702001A89554906
:1077C00001321A8100225A801A730A78B2FA82F2C0
:1077D00052099A720A7DB2FA82F25209DA720122D1
:1077E00007E04D4958688A884088033202448A80FD
:1077F00002221A70B7E7474C5A884749142505FBFF
:1078000002420868546850608888108102200C6029
:107810008880002111740622EBE70722E9E79A7AB3
:1078200032B9DA7A8AB900221A705A805A6069E647
:10783000384900229A72CA68002AF2D1097C0029CC
:10784000EFD05A80FFF7FAFD51E70022DA72314A91
:10785000116A0029E7D192F82420002AE3D00122FE
:10786000EFE7FFF7E5FC42E7FFF782FC3FE7294A35
:107870005B88142101FB03235868FFF7ADFC36E752
:1078800000225A60FFF794FC31E701228DF80C20AA
:107890001A89ADF818209A88DB68ADF81A2005938C
:1078A00010E002228DF80C201A89ADF818209A8871
:1078B000ADF81A20DA689B7D05929A1F5342534116
:1078C0008DF81C3003A8FFF713FC00264946134827
:1078D000C8F8006000F0DCF90121114800F080FADE
:1078E00000287FF4C5ADBFE603228DF80C20DA88AE
:1078F000ADF818201A89CFE70422DB888DF80C2018
:10790000ADF81830DEE705238DF80C30DAE700BF5C
:10791000502600206C260020A82600209426002057
:10792000A4260020B42600204068FFF799BD00007F
:1079300008B50121044800F03DFA18B9BDE8084037
:10794000FFF78EBD08BD00BFA42600202DE9F3413E
:107950009846374B1B7806460D46002B5CD0002915
:107960005DD009884FF6FF7399425BD06B88002B7E
:1079700058D06B689B0758D14AB92F890DF1020185
:107980003846FFF7C5FB30B102B0BDE8F08113887F
:107990005788ADF8023001A8FFF766FC044660B9CD
:1079A000BDF80230234A142101FB03235889033810
:1079B000C01B588148F20760E6E700238375BDF8D5
:1079C000023083826B68036180F8008001211A48CD
:1079D00000F0FBF92B882381B8F1030F6B88A3809B
:1079E00004BF0423A3754FF0000508BF3368E060AF
:1079F00008BFA361E780658101A9104800F00DF977
:107A000036B1E36833600E4B75601B89B572338104
:107A1000FFF78EFF0020B7E748F20160B4E748F2B5
:107A20000460B1E748F20360AEE748F20260ABE7FA
:107A3000482600206C260020642600209426002082
:107A40005026002073B50D460446C8B1C1B10DF1F2
:107A50000601FFF75BFCB0B10C4BBDF80600666891
:107A6000142202FB003001210C3000F0AEF96368F3
:107A70002E600C336B600123A372002002B070BD36
:107A800048F20460FAE748F20960F7E76C26002044
:107A900013B50446A8B10DF10601FFF737FC98B104
:107AA0000C4ABDF80630142101FB0323DA6872B1D9
:107AB000A27A62B1DA680020013ADA60A07202B0FC
:107AC00010BD48F20460FAE748F20960F7E748F2AF
:107AD0000560F4E76C26002002230022FFF736BF82
:107AE00018B103230022FFF731BF48F2046070474A
:107AF000114B1B7813B50446ABB14FF6FF73984298
:107B000014D001A8FFF7B0FB98B10523037001233F
:107B10000371C48001A9094800F07FF8FFF708FF4E
:107B2000002002B010BD48F20160FAE748F203609D
:107B3000F7E748F20760F4E7482600209426002083
:107B400007B5ADF80600ADF804100DF1060001A967
:107B5000FFF730FC03B05DF804FB07B51346ADF842
:107B600006000A4600200DF10601FFF723FC03B0D2
:107B70005DF804FB07B51346ADF806000A460DF1A3
:107B800006000021FFF716FC03B05DF804FB20B1EE
:107B900019B103680B600020704748F20460704719
:107BA00010B561B1B2FBF3F403FB1424A4B244B9E1
:107BB000C0E9001484608281C381204610BD0E207C
:107BC000FCE70920FAE737B550E8013F9DB2C489C8
:107BD00025448489A54228BF2D1B0489A54202BFE4
:107BE000BFF32F8F002207E0C5EA030540E80154E8
:107BF000002CE9D14FF001028DF803200193019B85
:107C00009DF803200B6002F0FF0322B10B8800688F
:107C1000184403B030BD1846FBE70A884B889A42E7
:107C200009D150E8012FC2EA024240E80123002BAB
:107C3000F7D1012070470020704737B550E8023F68
:107C40001FFAA3F5C488A54202BFBFF32F8F0022FD
:107C50000DE0C48925448489A54228BF2D1BC3EAB1
:107C6000054540E80254002CE8D14FF001028DF8A0
:107C700003200193019B9DF803200B6002F0FF039A
:107C800022B14B880068184403B030BD1846FBE7AA
:107C90000A884B889A4209D150E8022FC2EA224250
:107CA00040E80223002BF7D10120704700207047E5
:107CB00001F01F024B090121914000EB830000F00D
:107CC00063B84B0910B501F01F040121A14000EB7E
:107CD000830000F04EF8E04000F0010010BD01F01C
:107CE0001F0301229A404B0900EB8300D14300F0AF
:107CF00056B84B0901F01F0150F82300C84000F0AE
:107D0000010070472DE9F0474E1E760980460F4668
:107D10000136002558F8254008EB8509E44394FA1C
:107D2000A4F4B4FA84F44FEA451A202C06D10135A4
:107D3000AE42EFD83C462046BDE8F0875444A74207
:107D4000F5D921464046FFF7BCFF0028F3D0D9F80B
:107D50000040E44394FAA4F4B4FA84F4E5E750E86C
:107D6000002F0B4640E8003C9CF0000FF7D1104676
:107D7000704750E8002F42EA010340E8003C9CF0C5
:107D8000000FF6D11046704750E8003F43EA010269
:107D900040E8002C9CF0000FF6D11046704750E8E8
:107DA000003F03EA010240E8002C9CF0000FF6D1EE
:107DB0001046704750E8002F02EB010340E8003CFA
:107DC0009CF0000FF6D11046704750E8003F03EBDF
:107DD000010240E8002C9CF0000FF6D110467047DD
:107DE00050E8003FA3EB010240E8002C9CF0000F9C
:107DF000F6D1104670472DE9F04108B302B3D0F830
:107E000000E0BEF1000F1ED0FBB14768D7F8048038
:107E1000B3FBF8F708FB1737BFB942EA010C1CF0B7
:107E2000030F14D1C768B94211D34C1E05691C4415
:107E3000AC420CD8DEF80C40A446BDE8F0416047E7
:107E40000E20BDE8F0810820FBE70920F9E71020AB
:107E5000F7E7F0B5D8B1D0F800C0BCF1000F18D0EA
:107E6000CAB14768D7F800E00EF1FF370F4214D1CE
:107E7000C768B94211D34C1E05690EFB0244AC42DF
:107E80000BD8DCF81040A446BDE8F04060470E2057
:107E9000F0BD0820FCE70920FAE71020F8E729DF09
:107EA000704728DF704770B503689D6886B0044648
:107EB0000E466DB114220021684604F042FDA3680D
:107EC0000593237901962BB1012B0DD06846A84765
:107ED00006B070BD01238DF8003023690293E3687A
:107EE000039363690493F1E702238DF80030E3689C
:107EF0001B030293F5E70000034B187A0122B0FA46
:107F000080F05A7440097047CC26002070B5244D8B
:107F1000244E2B7A2C463BB923492448FFF78DFE8B
:107F2000306008B9686070BD0223237233681A7923
:107F300072B1012A24D018460321FFF7B4FF0023B1
:107F40002372636018491948BDE87040FFF7A0BE6E
:107F5000D3E90520121AB2F5805F28BF4FF4805292
:107F6000D3E903159208012A014438BF01222844AD
:107F7000FFF795FF50B11128DDD101232372D2E71D
:107F8000D3E903021044FFF78CFFF3E7237C002BB7
:107F9000C9D10146BDE87040022000F009B800BF19
:107FA000CC260020E4260020E0260020BC2600206D
:107FB00038B5831E012B45D8234C237A002B41D0A2
:107FC000022B09D1032830D0204B1B680022E2602D
:107FD0001A793AB1012A22D0637C7BBBBDE83840D4
:107FE000FFF794BFD3E905128D1AB5F5805F94BFF2
:107FF000521902F580529A619142EDD102284FF058
:10800000000308BF19462372104B18BF0D211868D2
:10801000FFF749FF0E490F48FFF73AFEDCE71A6900
:1080200001321A615B699A42E7E7E3680133082B82
:1080300001D8E360D0E70023E360DFE7BDE8384024
:1080400004F0C8BA38BD00BFCC260020E4260020CA
:10805000E0260020BC26002000F0FD03012B08D103
:10806000044B00225A74421E504250411874FFF7CC
:108070004DBF7047CC26002033DF704741DF70478B
:108080000D4A08B5002313700C4A1360BFF35F8FCD
:108090000B490C4800F0A0F80B4A0C480121FEF7F0
:1080A000CFFD024630B94FF480410948BDE8084091
:1080B000FEF7D1BD08BD00BF182700201C270020F7
:1080C000F0CA0200E8260020C5810200ECCA0200C6
:1080D000F826002007B500230DF107008DF80730C2
:1080E000FEF7A8FEF1EE103A23F09F03E1EE103AFE
:1080F000BFF35F8F094B4022C3F884219DF807002E
:10810000FEF7BCFE04F076FA20B1FFF7B7FF03B02C
:108110005DF804FB20BF40BF20BFF8E700E100E0AE
:1081200070B5224C054601212046FFF718FEBFF32B
:108130005F8F264638B9042D0AD01D4B1A781AB124
:10814000BFF35F8F206070BD1A4A157001221A704C
:10815000194C184D636828787BB90238012813D868
:10816000BFF34F8F1549164BCA6802F4E062134300
:10817000CB60BFF34F8F00BFFDE71B68984788B106
:10818000204600F033F8E5E704F034FA08B1FFF7D1
:1081900073FF4FF080430122C3F80025BFF34F8FD8
:1081A00020BFFDE7BFF35F8F3060CCE71C270020C6
:1081B00018270020F0260020E826002000ED00E02F
:1081C0000400FA05034B1B7813B10420FFF7A8BF86
:1081D000704700BF182700200B684A68436093422D
:1081E00008BF0023016008BF43607047436843B184
:1081F0000268916852680B449342436004BF0023B5
:108200004360704770B5446806460D46206818B153
:10821000B3682946984718B923682B60256070BD5C
:108220002468F3E74368186808B102681A60704769
:108230004368186870474368186800B970478842F7
:1082400003D102681A600120704703460068F4E712
:1082500038B5074C051E04F1080318BF1C462368F7
:108260002BB11A6822605B6828469847F7E738BD4B
:108270002827002020B9054B01225A70FFF7E8BFDC
:10828000012802D1014A9070F8E7704720270020AA
:1082900020B9034B01225A70FFF7DABF704700BFC5
:1082A0002027002038B50E4C2378B3B90D48636001
:1082B000A3602361E36000F073F8054604F09AF9C7
:1082C00008B900F079F801232370074BD3F8003484
:1082D0000BB10123A370284638BD8525F5E700BF03
:1082E00020270020758202000000014037B50D4CA8
:1082F00000230DF107008DF80730FEF79BFDE368C2
:10830000013BE360E36833B9074BD3F8005415B978
:1083100000F064F8A5709DF80700FEF7AFFD03B00C
:1083200030BD00BF2027002000000140012813B508
:108330000DD018B1032820D002B010BD114B01227E
:10834000C3F88020BFF34F8FBFF36F8FF4E70E4C5D
:1083500000230DF107008DF80730FEF76BFD237841
:108360000BB9FFF79FFFE3689DF807000133E36057
:108370000123A370FEF782FDDEE700F01DF8FFF792
:10838000B5FFD9E700E100E02027002000F18040A0
:10839000002382B0036003680193019B02B0704721
:1083A000044A137923B9012110609180184670475F
:1083B0008520704734270020074B1A68D20704D461
:1083C000C02283F8002301221A604FF0804301226B
:1083D000C3F81825704700BF00E100E04FF080426D
:1083E00008B50223C2F808334FF48270FFF7CEFFBE
:1083F000034B01211960D2F81834DB03FBD408BD0C
:108400000C000040124B1B6810B573B14FF4807024
:10841000FFF7BCFF4FF080430122C3F808230D4B48
:10842000587910B95A711B6898470B4B1B6873B188
:108430004FF48270FFF7AAFF4FF080430222C3F887
:108440000823044B01201B68BDE81040184710BDED
:1084500000010040342700200401004000F180406A
:1084600000F5C040002382B0036003680193019BC4
:1084700002B07047800000F1A040D0F8003723F42C
:108480004033C0F80037D0F8003743EA0141C0F864
:1084900000177047054B4FF0FF32072843F82020A4
:1084A00084BF1B1883F84820704700BF3C2700207A
:1084B00010B51A4C94F858306BBB4FF0FF3222FACB
:1084C00003F1C90748BFE11803F1010348BF81F870
:1084D0003020202BF3D10021C8B2FFF7DBFF0131A0
:1084E0000C29F9D1042200210D4804F02AFA0D4B81
:1084F000C02283F8062340221A604FF4BE70FFF7B3
:10850000ADFF094B4FF00042C3F80423012384F868
:108510005830002010BD0820FCE700BF3C27002099
:108520009027002000E100E000600040034B93F83A
:108530005800003018BF0120704700BF3C270020C2
:10854000F0B5374B1C1894F93040002C1C4664DA07
:108550008D78C5F34005002D0BBF082300230C26A2
:108560000826B34201D10420F0BD54F8237001372E
:108570003FD1261844F8232086F8303015B9E21888
:1085800082F848008A78550713D4D60733D582007D
:1085900002F1A042D2F8005725F00205C2F80057B8
:1085A000204EC50800F007070122BA40775D3A4324
:1085B00072558A780D7812F0020225D09B0003F1E3
:1085C000804303F5C0430202D3F8101521F447316C
:1085D00021F44071C3F810152D04D3F8101502F4DE
:1085E000F85205F440352A430A43C3F81025002009
:1085F000BAE70133B5E74D7800F5E0724FF0A046D9
:10860000AD0046F82250CBE7083B234493F85010C6
:1086100041EA851583F85050E9E70820A4E700BF38
:108620003C2700209027002038B5204C251895F9CC
:108630003020072A18DD224492F848309B09032B8A
:108640000DD14FF0A043D3F81035C34013F0010F04
:108650000CBF02210321BDE83840FFF70BBF012BFF
:1086600014BF03210221F6E7D3B2072B1CD89300D5
:1086700003F1804303F5C043D3F8100540F0010037
:10868000C3F8100502F14000800080B2FFF7E6FE5B
:1086900051B195F9303054F823302BB1012303FA4E
:1086A00002F2034BC3F8042338BD00BF3C2700206F
:1086B000006000400E4B034493F93020072A02DD8E
:1086C0000021FFF7D7BED3B2072B10D8930003F1D8
:1086D000804303F5C043D3F8101521F00101C3F81E
:1086E0001015012303FA02F2024BC3F80823704766
:1086F0003C270020006000404FF0A043D3F8103525
:1087000023FA00F000F00100704700002DE9F34764
:1087100000244C4D01944FF48072012102F18043FA
:1087200003F5C04390B21B68012B06D1D5F8043382
:108730000B4202D0FFF792FE0C430432B2F5907F59
:108740004FEA4101EAD1404B1B68012B0CD14FF499
:10875000BE70FFF783FE4FF0A04344F00044D3F80F
:1087600020250192C3F8202514F0FF0F1AD0374FAF
:1087700001260025344210D0AB0003F1804303F5FD
:10878000C043D3F81005D3F8101557F8253023B19E
:10879000C1F30141C0F3042098470135082D4FEA89
:1087A0004606E7D1002C46DA284F4FF0A046DFF806
:1087B000A0804FF0000A4FF0010918F9011B4B1C73
:1087C0002DD0CAB222F0C00402AB03EBD40313F8DD
:1087D000041C02F0070309FA03F319421FD004F541
:1087E000E073204656F82350C5F30145022D0CBF17
:1087F00003210221FFF73EFE09FA04F3C6F82035F3
:108800003B1993F9303057F8233043B191090329CC
:1088100003D0022D12D1012901D1204698470AF137
:10882000010ABAF1040FC8D1D6F820350193C6F871
:108830002035002BBBD102B0BDE8F087032DEED16F
:108840000229E9E7006000407C6100403C270020ED
:108850008C270020014B1B68184700BF9827002079
:1088600008B5094B1B7853B10020FDF7CBFD012063
:10887000FDF7C8FD0320BDE80840FDF7C3BDBDE816
:108880000840FDF7CBBD00BFA0270020F8B57B4C0A
:10889000237805461BB100232370FFF7E1FF172D56
:1088A00000F28880DFE805F00C17174354657680E6
:1088B000888D888D959A9A9A9A9AC4C9D1D9E4E4F8
:1088C000FFF7CEFF6E48FEF7DEF96E4B002204463E
:1088D0001A702046F8BD0020FDF77AFDF8B100209F
:1088E000FDF790FD022D40F6B83118BF4FF47A61C4
:1088F000644B1D704FF400404FF47A740025E0FB88
:1089000001454FF4FA6200232046294603F04EFF4A
:10891000002201465A48BDE8F840FEF79CB9FDF731
:1089200065FD022D0CBF01214FF4C871E0E7002066
:10893000FDF74EFD40B10020FDF764FD4FF4487196
:10894000504B03221A70D5E7FDF750FDC821F7E719
:108950000020FDF73DFD38B10020FDF753FD4FF439
:108960007A61484B0422EDE7FDF740FD4FF4C871F2
:10897000F7E70020FDF72CFD48B10020FDF742FD90
:10898000404B05221A7040F6CD410022C2E7FDF7A8
:108990002DFDF5E70020FDF75FFD3A4B06221A702A
:1089A000002240F26661B5E70020FDF71FFD354B60
:1089B00007221A7000248CE701202070FDF74CFD7F
:1089C000EEE701202070FDF747FD00224FF4005133
:1089D000A0E7FDF732FD2B4B0C22EAE72A482B4E8D
:1089E000FEF751F9D5F1110504461CD0D8B9012D77
:1089F00013D0C8235D434FF400474FF47A70002131
:108A00004FF4FA620023C7FB050103F0CFFE2246B4
:108A100001461D48FEF71FF904460220FDF7E6FC5B
:108A20000123337055E70220FDF7ECFC0023F8E743
:108A3000FFF716FF134B1222BBE7FFF711FF0020D1
:108A4000FDF7D4FC0F4B1322B3E7FFF709FF01201A
:108A5000FDF7CCFC0B4B1422ABE7FFF701FF002026
:108A6000FDF7C4FC0120FDF7C1FC064B1522A0E771
:108A7000FDF7E3FC034B1D709CE700BFF8270020C7
:108A8000C8270020F9270020A8270020A0270020C1
:108A9000044B1B6813F0010301D0FFF7F7BE184623
:108AA000704700BFF4270020032813D8012A0BD1F8
:108AB000012908D100F10E02D2B200EB40000C4BAC
:108AC0001A540020704700220129F6D04BB24BB156
:108AD000022901D007207047054B00EB40001844E5
:108AE0004270EEE7024900EB400008448270E8E77C
:108AF000E827002008B5012202210020FFF7D4FF5B
:108B000008B1072810D1072202210120FFF7CCFF6E
:108B100008B1072808D100210A220846FFF7C4FF40
:108B200010B1072808BF002008BD00000388102BE3
:108B300010B502D0112B1ED010BD1A4C2168B1B94E
:108B400001220846FFF7B0FF08B1072824D1072209
:108B500002210120FFF7A8FF08B107281CD1042239
:108B600002210020FFF7A0FF08B1072814D12368D5
:108B700001332360E0E70B4A1368013B1360002BCD
:108B8000DAD1FFF7B7FF0028D6D0074B1B68002BC0
:108B9000D2D0BDE810401847034B1B68002BE6D02D
:108BA0009847E4E700280020FC2700203FDF7047BB
:108BB00072DF704773DF704776DF704777DF70478B
:108BC0007ADF70477CDF70478FDF70470120704786
:108BD0001321FFF7F1BFFDF757BF000008B5054BA4
:108BE00001211878FFF7E6FF18B1BDE80840FDF74E
:108BF0004BBF08BD382500200020FDF703BC000056
:108C000008B50020FDF7F2FB002210210248BDE864
:108C10000840FEF720B800BFC82C00200388212B95
:108C200013B5044631D005D8102B18D0112B0AD01B
:108C300002B010BD3B2B01D0562BF9D11321A088D7
:108C4000FFF7BAFF1CE0154B4FF6FF721A80FDF7D5
:108C5000EFFE08B1FDF718FFFFF7C0FFE8E70720B8
:108C6000FFF716FF08B1FDF70FFF0C4BA1880C486A
:108C7000198001F059FF08B1FDF706FFFDF7C2FEAC
:108C80000028D5D0FDF700FFD2E7002301A9808896
:108C9000ADF80430FFF798FFF2E700BF3A25002057
:108CA000E82C0020032807D14FF08043A922C3F805
:108CB00020250020FFF734BA7047000008B503787C
:108CC0004BB9054B3B211888FFF776FF18B1BDE87B
:108CD0000840FDF7D9BE08BD3A2500200D2808B58B
:108CE0000A460FD10A4B0B49188803F0C1F930F03E
:108CF00008020BD043F20202904207D043F2014235
:108D0000904203D0BDE80840FDF7BEBE08BD00BFDD
:108D10003A250020AC2C002010B504468CB0A8B930
:108D200001462C2201A803F00CFE01234FF44862F7
:108D300001A907488DF80830CDE905248DF80430E5
:108D400000F00DFD2146034800F08CFF0CB010BD73
:108D500004280020D18B02002AB100224FF44041A8
:108D60000248FDF778BF0148FDF78DBF382C002081
:108D7000FDF78ABE00B5A7B0FDF730FF08B1FDF7DB
:108D800083FE7D4A7D480121FDF75AFF08B1FDF7BA
:108D90007BFE7B4A7B480021FDF752FF08B1FDF7BF
:108DA00073FEFFF76DF908B1FDF76EFE0120FDF7C8
:108DB00065FB40F2333201217348FDF7CDFD08B168
:108DC000FDF762FE03F098FB08B1FDF75DFE00239E
:108DD00017A90120179303F057FC08B1FDF754FEC3
:108DE00017A803F0B9FC08B1FDF74EFE1123674840
:108DF0008DF8203003F0D8FD644982B208A8FFF74F
:108E0000E1FE08B1FDF740FE0822002117A803F09B
:108E100098FD5F4A4FF0C87317A8CDE91723FFF7F5
:108E2000CFFE08B1FDF730FE00215A4801F0ADFD3C
:108E300008B1FDF729FE00230893179302A9564BAA
:108E40005648029301F05EFE08B1FDF71DFE544B3B
:108E50005448179317A903F09DF808B1FDF714FEC5
:108E6000514B089308A803F0E9F908B1FDF70CFE8F
:108E700041F22353ADF804304A4B4C4C9B7C8DF8A7
:108E800006303C22002108A803F05BFD02238DF888
:108E900020303C2240F20163002117A8ADF82230B7
:108EA00003F04FFD002322468DF85C300123ADF81E
:108EB0006C3052F8041B01AB08A81C9300F0F6F8C4
:108EC00008B1FDF7E1FD3A4AA16817A800F0EEF8F5
:108ED00008B1FDF7D9FD1822002102A803F031FDE9
:108EE00000230122ADF8143003934FF480738DF802
:108EF0000820ADF81C3002AA4FF448632B492D48D6
:108F00000493FFF755FE08B1FDF7BEFD1C220021BA
:108F100017A803F016FD00234FF40052CDE91732D5
:108F2000ADF86A304FF440428DF86C30224B199204
:108F30001C930A22214B8DF8682017A81D9300F07E
:108F400019FD08B1FDF7A0FDFFF748FE00224FF420
:108F500040411B48FDF77FFE0120FFF727FE154B20
:108F6000002219780120FFF729FE08B1FDF78CFDDA
:108F7000FFF7B0F8FCE700BF018C0200FCCA02005A
:108F8000F98B020000CB02002025002004CB020058
:108F900040018002982C0020D78B0200E82C002092
:108FA000598D0200AC2C0020198D020028250020CC
:108FB0003425002038250020BD8C0200718D020070
:108FC000382C00206DDF704779DF70477DDF7047F8
:108FD00064DF70472DE9F74F0C9CBDF834B027884B
:108FE000002580468A4691462E46B8F80020B242B7
:108FF0000BDC35B12288013AD21B92B2FF2A39D854
:10900000DA55002003B0BDE8F08FD8F8042052F8FC
:109010002600019000220DF1030101A8FFF7D8FFFF
:109020000028EFD19DF803204A4521D12288002D48
:1090300014BF0020022002EB09010144594519DC4C
:109040003DB9013292B2228003F802A02288013297
:10905000228022880DF103011A4401A8FFF7B8FF0E
:109060000028CFD121889DF803200A4422800125C1
:109070000136BAE70C20C5E72DE9F341089CBDF89D
:1090800024501746CDE9004502220646FFF7A2FF0D
:1090900048B9102239463046CDE9084502B0BDE84E
:1090A000F041FFF797BF02B0BDE8F0812DE9F04F26
:1090B00000231688138090F82D3085B007460D46A2
:1090C000144653B3082E01D80C2028E102A8FFF75C
:1090D00079FF002840F0238113880822CA5423888E
:1090E00001339BB21B222380CA542088013080B2F6
:1090F000208006220DF10901284403F0F9FB2388A2
:109100009DF8082006339BB212F0FE0218BF012220
:109110002380EA54238801332380BB78FBB1238862
:109120000433B342D0D802A8FFF74EFF002840F026
:10913000F68023880322EA54238801339BB2192244
:109140002380EA542388BDF8082001339BB2E91834
:109150002380EA54120A4A70238802332380FA7863
:109160009AB12388D91CB142AED80221E954238890
:1091700001339BB201212380E95423880B449BB225
:109180002380EA5423880B4423807A68AAB1238879
:10919000D91CB14298D8022192F90020E9542388C1
:1091A00001339BB20A212380E954238801339BB207
:1091B0002380EA542388013323803B89002B40F02D
:1091C000A2803B8A5BB1CDE900462B4607220321F2
:1091D00007F11000FFF750FF002840F0A0803B8B04
:1091E0005BB1CDE900462B461522142107F118008A
:1091F000FFF742FF002840F092803A6A002A40F0D0
:109200009180D7F82480B8F1000F30D0B8F804303E
:109210002188981C8A1C0244B2423FF655AFFE28B2
:109220003FF652AF03336B54238801339BB2FF22C6
:109230002380EA54238801339BB22380B8F80020AE
:10924000EA54E918120A4A702088023080B220805D
:10925000B8F804205AB1D8F8081000296CD0284476
:1092600003F046FB2388B8F804201344238097F8C2
:109270002C30002B40F09B80387800284FD03B8862
:10928000012B59D0228802F1020CB4453FF61CAFE5
:10929000012805D17B78023313449E42FFF414AFBA
:1092A000023EB61AB6B202A905EB0C00ADF8086092
:1092B000FFF78CFE98BB3978BDF80820022900F032
:1092C000BB807B78934202D3B24240F2B380012943
:1092D00040F0B4809BB29E42C0F0B080ADF8083040
:1092E0000821BDF80830FE2B3FF6EEAE2288013390
:1092F000AB542288013292B22280A95422881344AE
:10930000238000200BE0CDE900462B4606220221F7
:1093100007F10800FFF7B0FE00283FF452AF05B098
:10932000BDE8F08FB4F800C00CF10603B3423FF67D
:10933000CBAE1188052901D80720F0E76FF4486EFD
:1093400001EB0E039BB24FF27D3E7345F4D9538877
:10935000052BF1D96FF44860181880B27045EBD92D
:109360004FF6FF70814203D0834201D09942E3D887
:10937000052305F80C30238801339BB2122123808A
:10938000E954238801339BB223801188E954E818FB
:10939000090A4170238802339BB223805288EA5421
:1093A000E918120A4A7023880233238029E7BB6A2E
:1093B000002BC1D04FF000094FF00C0A4FF0160BF4
:1093C00097F82C305FFA89F293427FF655AFB96A6D
:1093D0000AFB02F201EB0208B8F80430981CFE28E0
:1093E0003FF672AE208803332B54238801339BB29F
:1093F000238005F803B0238801339BB223808A5A67
:10940000EA54E918120A4A702088023080B220809B
:10941000B8F804205AB1D8F8081000298CD0284494
:1094200003F066FA2388B8F804201344238009F176
:109430000109C5E7092154E7B242FBD9ADF808603C
:109440004EE730B5C0B1EAB10024651C8D4206DAA2
:109450001588A54211D805196D789D420DD1A142FC
:1094600010D9005D40B1013880B228B10234A4B2F5
:109470002318994206DB148030BD055D01352C446C
:10948000A4B2E2E70020F7E713B50023ADF80630F9
:1094900013460DF106020446FFF7D3FF10B1BDF8E5
:1094A0000600204402B010BD72DF704773DF7047C2
:1094B00038B5012204460D46B0F81414D0F8100453
:1094C000FFF7E2FF00B1057004F13C0204F5826190
:1094D00004F15400BDE83840FFF7E6BFF8B507785F
:1094E00004460D46002F00F0038100F22646A170CD
:1094F00007220021304603F024FAE38813B1A37851
:10950000012B04D0E3794BB1A378022B06D1636B16
:10951000A3B1012284F82D2408209847334604F291
:109520002C4113F8012F12B98B42FAD117466B1E4A
:10953000032B51D8DFE803F0050B0F1284F82D340C
:10954000ECE7A3791BB194F8243003B95FB9E37950
:109550000BB1002F42D1237A002B41D1637A002B2B
:109560000CBF00250425636BA570002B3AD0033D8A
:10957000012D37D86279AAB394F82E2492BB84F8CF
:109580003024012284F82F240720984704F13C0559
:1095900018220021284603F0D4F9E26A531E012163
:1095A000022B28BF0A4684F8512094F8242084F81E
:1095B0003C1032B1A36A581E022828BF0B4684F81B
:1095C0005230A178002384F8503004291BD8DFE8FA
:1095D00001F0770D223559000025C4E70225C2E7C6
:1095E0000325C0E7002384F82F34CFE7C4F82034E4
:1095F000C4E910630223012284F83C30802384F8FC
:109600003120A4F84830A378002B5CD1636B002B89
:109610006AD1002067E00223002A84F8313014BFA9
:109620000723032384F83C302369A4F8483000233F
:10963000C4F82034E36826646364E4E76369636420
:10964000A369A4F8483012B1062384F83C3063794A
:10965000B3B194F82E349BB994F8303483B102231B
:1096600084F8503004212046FFF722FF0028CAD199
:10967000052384F8313004F58263C4F82034C2E74E
:109680000323F6E7E3696364236AA4F8483012B160
:10969000062384F83C30637983B194F82E346BB997
:1096A00094F8303453B1022384F85030042120461A
:1096B000FFF7FEFE0028A6D10623DAE70423D8E749
:1096C00084F831309FE72A46D4F8201404F154007E
:1096D000FFF7EAFE38B994F8301094F85400FFF719
:1096E000E5FE002892D0F8BD94F83100984790E745
:1096F0000820F8E70388112B10B50C460AD0262B5A
:109700001FD0102B05D1C37B012B02D18388A1F878
:10971000243410BD0022838881F82E24B1F824243B
:109720009A42F6D10B79002BF3D101212046FFF7A5
:10973000D5FE0028EDD0A36B002BEAD0BDE8104089
:109740001847037A013B012BE3D8897805230131BF
:10975000B1FBF3F303EB8303C91AC9B2E6E730B5F3
:109760000D46041D0FCD0FC40FCD0FC495E80700A3
:1097700084E8070030BD75DF704776DF70477ADF19
:1097800070477BDF70470000034B1A8882420CBF92
:1097900018460020704700BF102D0020024B9B6927
:1097A00003B11847704700BFF42C002037B585B2CD
:1097B0002846FFF7E9FF034670B1164C017A227B79
:1097C00091420BD200F10A012846FFF7D4FFE8B11D
:1097D000112801D0FFF7E2FF03B030BD237C002247
:1097E000027243B13B212846FFF7C7FF30F0080360
:1097F00001D0FFF7D3FF6369002BEDD000228DF875
:109800000420ADF8065001A89847E5E71A7A01321E
:109810001A72E1E7F42C002013B50B46497A0F4C7D
:10982000024669B9D4E901101C7A002C18BF014620
:109830005868FDF710FA08B1FFF7B0FF02B010BD8D
:10984000002119726369002BF8D00121ADF80600E0
:109850008DF8041001A89847F0E700BFF42C002011
:109860004B8802889A4213D842889A4210D3808843
:109870008A8840F2F313984294BF031AC31A9342A2
:1098800006D800F2F310904234BF00200120704748
:10989000002070470388112B70B5014648D002D8CC
:1098A000102B1ED070BD122B52D0502BFAD12F4B43
:1098B000C288DB899A42F5D1038A022BF2D18688CD
:1098C0003046FFF761FF05460028EBD001F112009A
:1098D00000F001FA30BB6868FDF7D5F90028E1D047
:1098E00009E0C37B012BDDD14FF6FF70FFF74CFF82
:1098F000054620B90420BDE87040FFF74FBF1C4A61
:109900008E880680002303721368C5F80A300A3077
:10991000536843601031FFF7A3FF144B6872DB8973
:10992000002BBFD129463046BDE87040FFF774BF19
:109930008088FFF729FF04460028B3D04068FDF770
:10994000A2F908B1FFF72AFF4FF6FF732380A9E7BA
:1099500086883046FFF718FF05460028A2D0083158
:109960000A30FFF77DFF6872DCE700BFF42C0020AF
:10997000242D0020F8B5064648B305460FCD154FF7
:109980003C460FC495E8070084E807003068124B96
:109990003B60B0B1FFF7F3FEC0B931680A681A60E6
:1099A0004A685A600D480E4A4FF6FF7303800D4B0C
:1099B00040F8043F0021FDF743F9002818BF0320B9
:1099C00004E01846FFF7DDFE0028EBD0F8BD0E20BE
:1099D000FCE700BFF42C0020242D0020102D0020D7
:1099E000AD970200302D0020F7B5174601900E46C6
:1099F00091B1019C6CB100252C46294601A8FEF7C7
:109A000078F918B13946A8B2B04701340135142DA0
:109A1000F3D1204603B0F0BD0C46FAE70AB1FEF7D9
:109A200047B9FEF75CB973B50191019C06466CB16C
:109A300000252C46294601A8FEF75BF918B106EB74
:109A4000440301349D800135142DF3D13046346038
:109A500002B070BD2DE9F04703888488103B8CB0BC
:109A600005460A2B1FD8DFE803F0063F1E1E1E1E08
:109A70001E1E1E5F4400314EB368DB4300937168C5
:109A80006846FEF78CF9009901A8FFF7CCFF0DF1AD
:109A900008094FF00008019B984507D3132C13D9F0
:109AA0000420FCF7F1FF0CB0BDE8F08739F802ABF9
:109AB00000270137514606EB8700FEF710F91E2FED
:109AC000F7D108F10108E6E721461D48FEF7F0F856
:109AD00021461C48FEF7ECF8EB7B022BE3D1214634
:109AE0001948FEF7E5F8DEE721461548FEF7F7F8D6
:109AF000D9E7057A15482D09032D94BF00220122CC
:109B00002146FFF78BFF022D94BF00220122214640
:109B10000F48FFF783FF012D0E4894BF002201225A
:109B20002146FFF77BFFBEE7037A002BBBD1427AC9
:109B30000648C2F3C0022146F3E700BF502D0020C3
:109B4000582D0020542D00205C2D0020682D002071
:109B5000642D0020602D00201328014602D8024801
:109B6000FEF7C7B800207047542D002010B50446FA
:109B7000FFF7F2FF38B121460348FEF7BAF8002894
:109B800014BF0220012010BD5C2D002010B504463A
:109B9000FFF7E2FF38B121460348FEF7AAF8002894
:109BA00014BF0220012010BD582D002010B504461E
:109BB000FFF7D2FF28B121460248BDE81040FEF76A
:109BC00098B810BD602D002010B50446FFF7C4FF03
:109BD00028B121460248BDE81040FEF78AB810BD02
:109BE000642D002010B50446FFF7B6FF28B12146CA
:109BF0000248BDE81040FEF77CB810BD682D00207B
:109C000070B50A4D064628460C46FEF772F858B164
:109C10003046FFF7A1FF38B1E01D314605EB80006B
:109C2000BDE87040FEF765B8002070BD502D0020E3
:109C3000F8B50B4D064628460C461746FEF759F870
:109C400060B13046FFF788FF40B1E01D3A4631462B
:109C500005EB8000BDE8F840FFF7E0BEF8BD00BFAF
:109C6000502D0020034B9B680A4601461846FFF71B
:109C7000BBBE00BF502D0020F8B50A4C05460E466D
:109C8000014620461746FEF734F848B1063504EB86
:109C900085043A4660683146BDE8F840FFF7A4BE47
:109CA000F8BD00BF502D0020AADF70470023013807
:109CB0000B70042806D8DFE800F00306080A0C0041
:109CC00011230B7070472123FBE73123F9E712239F
:109CD000F7E72223F5E7007800F0010070470078ED
:109CE000C0F340007047F0B58B7891B0002B0C4664
:109CF00008BF01238DF80E3005460B88ADF80C30F7
:109D0000002116466846032202F01BFE6946607C6D
:109D1000FFF7CCFF0DF10101A07CFFF7C7FF9DF815
:109D20000230E27B62F3C303227C62F30413227BE2
:109D300062F30003227D002A14BF0222012262F393
:109D4000420300211C2209A88DF8023002F0F9FD1F
:109D5000637B13F0300F15D002AF03220021384689
:109D600002F0EFFD0DF10901E07CFFF79FFF1123E9
:109D70008DF808309DF80A300E97012262F34203F5
:109D80008DF80A30637B8DF824301422A37B8DF884
:109D90002530002104A802F0D4FD03AB0493A3886E
:109DA000ADF81C30A368CDF814D01BB1E288ADF833
:109DB00018200893A369002B2ED001AF03220021A5
:109DC000384602F0BEFDA3691A88ADF82C205A88E7
:109DD000187BADF82E2039465A680A920D97FFF786
:109DE00065FFA3690DF10501587BFFF75FFFA269CD
:109DF0009DF80630917A61F3C303D17A61F30413BD
:109E0000117A927B002A61F3000314BF022201221F
:109E100062F342038DF80630E36903B10C933346D5
:109E200004AA09A92846FFF73FFF11B0F0BDA0DF43
:109E30007047A1DF7047ADDF7047B3DF7047B4DF15
:109E400070470000024B034918780022FFF714BF47
:109E5000D52D0020099F020010B50446408800F06F
:109E600017FCA0802046BDE8104001F03FBA30B595
:109E700087B005460C461422002101A802F061FDBE
:109E8000072301A88DF80430ADF806500394FFF7BE
:109E9000E3FF07B030BD000030B587B0054614229F
:109EA000002101A802F04DFD4FF6FF739D42ADF871
:109EB000065023D0284600F000FB0B28044615D09E
:109EC00005D860B121462846FFF7D1FF05E01128EB
:109ED0000ED043F202039842F4D1002209E00E238F
:109EE00001A88DF80430FFF7B7FFF6E70F23F7E777
:109EF0000122034B28461978FFF79AFE07B030BDC0
:109F0000D32D0020FFF7C8BF2DE9F0433E4D89B0A7
:109F100029780446FFF774FEA846064600286BD150
:109F2000204600F019FB0828014622D006D888B147
:109F300006284AD02046FFF79AFF09E043F20203C1
:109F4000984205D043F20143984258D01128F1D1EC
:109F5000012345E03146142203A802F0F2FC10234D
:109F600003A88DF80C30ADF80E400126FFF774FF02
:109F7000EEE70DF10600FFF760FF012533464FF0D5
:109F8000020902AFBDF80620AA421ED900223946B6
:109F90002846CDE90397FFF752FFB0B9BDF8082076
:109FA0003BB942F60523D21A534253410135ADB2B3
:109FB000E8E742F602118A42F8D101AA0492294642
:109FC00003AA2046FFF737FF30B1204600F060FBC0
:109FD00000F0DCFA002303E0BDF80420002AF4D0EE
:109FE0001A460A4B20461978FFF722FE324698F8A7
:109FF00000102046FFF71CFE09B0BDE8F0832046A4
:10A00000FFF74AFFA4E700BFD62D0020D52D002082
:10A0100013B5044600F03CFB00236A46092100F01A
:10A0200049FE052805D1044B012219782046FFF787
:10A03000FFFD02B010BD00BFD12D002008B5084BB8
:10A04000084918780022FFF717FE024630B9064B80
:10A0500006491878BDE80840FFF70EBE08BD00BFEE
:10A06000D42D0020B9A00200D12D002071A0020043
:10A0700013B5042204460021684602F062FC0C4A33
:10A0800042F6A6231068ADF800300190012301AA22
:10A09000694620468DF80230FFF7C9FE28B91A46F6
:10A0A000044B20461978FFF7C3FD02B010BD00BF76
:10A0B00016CB0200D02D002030B5012187B0054617
:10A0C0001C48FDF74CFE0446BFF35F8F68BB284673
:10A0D00000F0AEF9112801461CD005D838B3284647
:10A0E000FFF7C5FE002405E0862805D043F20203F1
:10A0F0009842F4D122460EE01422214601A802F033
:10A1000020FC062301A88DF80430ADF80650FFF7B7
:10A11000A3FEEFE70122084B28461978FFF788FDD8
:10A120001CB9BFF35F8F034B1C6007B030BD012427
:10A130000246F0E7CC2D0020D42D002038B503785E
:10A140000446A3B94088FFF7A7FE6588284600F0BB
:10A15000F1F928B1064B012219782846FFF768FD6E
:10A160006088FFF755FFBDE83840FFF767BF38BD8F
:10A17000D52D00200378082B37B5044630D1427A1C
:10A1800072BB057A072D1BD0082D2DD0012D27D1AC
:10A190006A462946808800F053FF08BB019B1B7864
:10A1A000F3B1A08800F0A2FA4FF6FF73984217D0DF
:10A1B000114B2A461978FFF73BFDFFF743FE0FE0EE
:10A1C000808800F093FA4FF6FF739842044607D058
:10A1D0000A4B01221978FFF72BFD2046FFF718FFE5
:10A1E000FFF72CFF03B030BD054B19680129F7D1EB
:10A1F000BFF35F8F1A60F3E7D52D0020D42D002028
:10A20000CC2D002073B501230024ADF800300923C4
:10A21000CDF802408DF802300B4BADF806402246D7
:10A220000E4619780546FFF703FD084B08492846F6
:10A23000A64208BF1946019100F02AFA2246694653
:10A2400000F0A4FD02B070BDD12D00201CCB020097
:10A2500020CB020070B503888488502B86B0054659
:10A2600037D00DD8352B47D0362B62D03E4B3F49E7
:10A2700018780022FFF700FDFFF7E4FD06B070BD7F
:10A28000522B22D0542BF1D11422002101A802F02C
:10A2900058FB112320468DF80430ADF8064000F03D
:10A2A000F7F9ADF8080000F071F9314B2046197844
:10A2B0000022FFF7BDFC2F4B204600221978FFF744
:10A2C000B7FC01A8FFF7C8FDD0E72046FFF7E4FD83
:10A2D000CCE7037B012BC9D1827A012AC6D101893F
:10A2E00042F602139942C1D1234B20461978FFF759
:10A2F0009FFCFFF7A3FEB9E7204E20463178FFF719
:10A300007FFC0028B2D0002231782046FFF790FC75
:10A31000EA883ABBAB89012B24D1E9892046FFF7B3
:10A3200088FDF8B91A46164B20461978FFF780FCCD
:10A330009CE7134E20463178FFF762FC002895D049
:10A34000317800222046FFF773FCE98851B9EB8988
:10A35000012B03D1297C003118BF01212046FFF7D2
:10A3600051FF83E70021F9E7D32D0020059F02006C
:10A37000D62D0020D52D0020D42D0020D02D00205A
:10A38000D22D0020AFDF7047B1DF7047B2DF7047DA
:10A39000B3DF704710B50446808800F0A7F96080ED
:10A3A0002046BDE8104000F0A3BF0000F0B5184BF8
:10A3B000184C93E8030089B001AE86E803004FF61D
:10A3C000FF772088B8421CD00022314600F0DEFC26
:10A3D0000546C0B11422002103A802F0B2FA238876
:10A3E000ADF81030112D0CD0862D0CBF062307239D
:10A3F00003A80EBF8DF80C308DF80C300595FFF7D3
:10A40000C9FF09B0F0BD208800F01FFD2080D8E70B
:10A4100024CB0200D82D0020044B1A884FF6FF737E
:10A420009A4201D0FFF7C2BF704700BFD82D00206D
:10A430002DE9F743804600F02BF94FF6FF73984261
:10A44000064637D001224FF003096B4608213046FB
:10A45000571C00F0F9FDBFB2054630BB01990A4612
:10A46000032342F8049B06314046FFF78FFF044662
:10A4700048B932460821304600F05EFE04462046C8
:10A4800003B0BDE8F0830C280DD0052800D12C4680
:10A490000821304600F02CFE002818BF03243A465D
:10A4A000002DD2D1EBE70125F2E7072814BF0446BF
:10A4B0000C24E4E743F20204E1E72DE9F34180468E
:10A4C00000F0E6F84FF6FF73984217D100240325F9
:10A4D000264601272B46224631464046FFF754FFC9
:10A4E000042820D0082823D00B281DD115F0020302
:10A4F0000FD18EB9A4B902B0BDE8F0816A46082137
:10A5000000F09EFD0028E1D1019B9E1D9C881D68E6
:10A51000DFE701250027DDE703251C461E46F9E796
:10A5200003253446F6E71120002F08BF0B20E2E791
:10A530000020F9E71FB50DF10703039300F0A8F819
:10A5400002AA012100F07CFD20B9039B187805B018
:10A550005DF804FB0020FAE738B504460A48FFF727
:10A5600017FF70B9084B43F203054FF6FF721988C5
:10A570002046FFF707FFA84204D11A8801321A804B
:10A58000F3E7032038BD00BFDA2D002013B5074ADA
:10A59000044692E803006B4683E803000022194654
:10A5A000204600F0F3FB02B010BD00BF2CCB020030
:10A5B00046DF7047421E00F10F0312F8010F10B979
:10A5C0009A42FAD170470120704708B570B171B155
:10A5D00003780A78534013F0FE0F08D106220131A8
:10A5E000013002F04AF9B0FA80F0400908BD0020BD
:10A5F000FCE72DE9F04700F101084F1C06460D4627
:10A6000000F1110901F1110A10223946404602F009
:10A6100034F90446E0B94046FFF7CCFF18B138469C
:10A62000FFF7C8FF044651464846FFF7CEFF737C4C
:10A6300003F0FC03042B04D06B7C03F0FC03042B1D
:10A6400002D1201C18BF012000F00100BDE8F087F6
:10A650000024E8E730B585B004460D4600F060FB05
:10A6600002AA0DF10601072000F062FB10B94FF6B7
:10A67000FF700BE0BDF80630AB42F1D003992046E5
:10A68000FFF7B7FF0028EBD0BDF8060005B030BDDE
:10A69000132810B5044602D94FF6FF7010BDFFF71E
:10A6A0005BFA0028F8D00A206043014B185AF5E7FE
:10A6B000DC2D0020132838B504460D4602D943F29C
:10A6C000020038BDFFF748FA0028F8D006480A23F0
:10A6D00003FB040050F8023F2B608388AB80837932
:10A6E000AB710020EDE700BFDC2D00204FF6FF73BB
:10A6F00098422DE9F04106460CD00C4F00244FF053
:10A700000A0808FB04F3A5B2DB5BB34205D00134B1
:10A71000142CF6D14FF6FF7504E02846FFF71CFA1B
:10A720000028F4D02846BDE8F08100BFDC2D0020D1
:10A73000038843B9821C00F10A0312F8010B10B917
:10A740009A42FAD170470120704710B50446FFF7CE
:10A75000EFFF58B122880B889A4208D108220231B3
:10A76000A01C02F08AF8B0FA80F0400910BD002069
:10A77000FCE71FB5044600F0D3FA02AA0DF106016A
:10A78000072000F0D5FA10B94FF6FF7007E00399E3
:10A7900020464631FFF7D9FF18B1BDF8060004B0D6
:10A7A00010BD039920462A31FFF7CFFF0028E4D0DF
:10A7B000F3E7000013289FBF0A234343014AD15205
:10A7C000704700BFDC2D002038B50546FFF78EFF2F
:10A7D0000446284600F096FC38B9132C05D80A2305
:10A7E0006343024A4FF6FF71D15238BDDC2D002081
:10A7F00070B58CB014466A460D4600F1100316463B
:10A8000013F8011D02F8011B9842F9D10D22002115
:10A8100004A802F096F82B788DF81F306B788DF82D
:10A820001E303046AB788DF81D30FFF7C1FE9DF825
:10A830002F3023709DF82E3063709DF82D30A3705B
:10A840000CB070BD30B5037803F0FE03042B85B067
:10A8500004460D4618D1411C032201A802F048F815
:10A860000322211D03A802F043F802AA03A92846E7
:10A87000FFF7BEFF032202A901A801F0FEFFB0FA14
:10A8800080F0400905B030BD0020FBE730B50388FB
:10A89000102B93B04ED1041D0FCC07AD0FC50FCCBC
:10A8A0000FC594E807009DF8203003F0FE03062B47
:10A8B00085E8070008D000F033FA9DF820305B08E7
:10A8C000012B04D9022B3ED04FF6FF7310E002AAF1
:10A8D0000DF10601072000F02BFA0028F4D00399AF
:10A8E00008A81131FFF771FE0028F0D0BDF806303E
:10A8F000BDF81C1018480A224A4384188352A21C2F
:10A900000898C4F80200BDF824409DF82600948001
:10A9100090714FF6FF7293420CD0ADF80C3002A844
:10A920000023ADF80A108DF8083000F0E3FC02A80F
:10A93000FFF704FC13B030BD039908A80131FFF7FD
:10A9400081FF0028D2D102AA0DF10601072000F0F4
:10A95000EFF90028F0D1B7E7DC2D002090DF704739
:10A96000A5DF7047B5DF70471FB50023ADF80810AD
:10A97000ADF80A106A4602A903930093ADF80430BB
:10A98000FFF7ECFF05B05DF804FB80B14FF0231337
:10A9900003601B2303712323C3801723038141F624
:10A9A0001B320023016143818281184670470E20CB
:10A9B000704713B5034680880C4690B91A88232A3D
:10A9C00000F084800FD8102A20D0112A41D0A37A19
:10A9D0003BB1E1880020FFF7C3FF10B94FF480734B
:10A9E000638102B010BD3A2A3CD0552A52D0242AA5
:10A9F000EDD11A7A0B694A73002BE8D04DF67A2113
:10AA0000ADF8040000918DF804205BE0DB7B0A794F
:10AA10000A73012B13D0022B14D0E18823898B42B7
:10AA200005D20020FFF79CFF70B90123E372217B60
:10AA3000637B8B42CBD20020FFF796FFC7E70B88E2
:10AA4000E380EAE74B88FBE7112804BF0123A372E8
:10AA5000EDE72323CB8017230B8141F61B3348817D
:10AA60008B81B4E75B89CA88934228BF1346172BB2
:10AA70000A6938BF17230B814AB1C97A39B140F648
:10AA800077210091ADF804306946204690470023B5
:10AA900063819CE7DB88C988A072172B38BF172316
:10AAA0008B4228BF0B462381FFF75CFFE37A002B24
:10AAB0008DD12369002B8AD040F67722009222891B
:10AAC000ADF8042069462046984780E7197A237B31
:10AAD000994228BF1946AFE7B0DF704766DF70477D
:10AAE000034610B500214088FFF7F8FF024608B979
:10AAF0001A7210BD112801D10122F9E75B68BDE887
:10AB00001040184760B159B10378DE2B0AD00B68AA
:10AB10004360DE2303704FF6FF73438000207047CD
:10AB20000E2070470820704728B10378DE2B04D12F
:10AB30004180002070470E20704708207047F0B514
:10AB4000054685B00C46F1B1E8B10B78DE2B1AD181
:10AB500082884B889A4204D10B7A13B10846FFF7DA
:10AB6000BFFF2B88112B32D0512B0ED0012B0AD1D5
:10AB70002B7A012B07D1A9886288914203D12372D5
:10AB80002046FFF7ADFF05B0F0BDAE886388B34245
:10AB9000F9D1AF79022FF6D1AD7B2B1F022BF2D862
:10ABA00000211022684601F0CCFE052D14BF4FF4A1
:10ABB000C0730023694630468DF80070ADF804304C
:10ABC000FFF78AFF0028DED063689847DBE76388D9
:10ABD000AA889A4204BF4FF6FF736380D3E7012827
:10ABE00004D0043805288CBF00200120704773B5BD
:10ABF00004460D46164600210822684601F0A1FED3
:10AC0000A5F58041A4F580406B46324689B280B2FA
:10AC1000FCF796FF002818BF052002B070BD0000A9
:10AC20002DE9F041224F8AB0002108226846397090
:10AC300001F087FE4FF6FF7000F028FB4FF6FF761D
:10AC4000044648F20968B44213D0A4F58045ADB279
:10AC50006A4602A92846FCF78DFF40450CD02846DD
:10AC6000FCF746FF48F20763984205460CD10123E2
:10AC70003B700AB0BDE8F081204600F0ABFA2046F8
:10AC800000F004FB0446DEE7002DF2D01422002180
:10AC90000DEB020001F055FE072305A88DF81430D6
:10ACA000ADF818400795ADF8166000F06DF9E0E7D3
:10ACB000AC2E0020F0B5FF2887B004460D4617469D
:10ACC0001E462BD80846FFF78AFF38B303AA204652
:10ACD000FFF78DFF18B10524204607B0F0BD01A98C
:10ACE00003A8FCF7AFFE04460028F4D1019BBD7019
:10ACF0005D883D80029926B9796003A8FCF7C8FEFB
:10AD0000EAE736687868AD00AE4228BF2E46324684
:10AD100001F0EEFDB542F0D90C24DDE70724DBE7B6
:10AD200008220021014801F00CBE00BFA42E002023
:10AD3000F0B587B007460E461546FFF750FF0446AC
:10AD4000F8B1A7F58040104A03A980B2FCF705FFCF
:10AD500018B10024204607B0F0BD01A903A8FCF7F4
:10AD600071FE0028F5D1019BAF705A889B882A801C
:10AD700003F58043029A6A6003A83380FCF788FEDB
:10AD8000E8E70124E6E700BFA42E002030B5FF2845
:10AD900087B003460C46154640D889780846FFF729
:10ADA0001EFF00283AD0A3F58042ADF80020A1F59F
:10ADB0008042ADF802206268019222880292184611
:10ADC00003AAFFF714FF0528694603A811D1FCF771
:10ADD00083FE48F206639842044621D00CD8B0B1F5
:10ADE00048F2026398420CBF10240324204607B0A7
:10ADF00030BDFCF775FEECE748F20763984211D0CE
:10AE000048F20D6398420CBF11240324EEE7002D95
:10AE1000ECD0294603A8FCF7BAFEE7E70724E5E7EC
:10AE20008624E3E71124E1E74FF6FF7000F0BAB99A
:10AE3000FF2808B505D800F0BBF9FFF7F1FE0020A8
:10AE400008BD0720FCE700F0D9B900F005BA00F012
:10AE50001DBA10B5044600F0D1FA204601F040F8C2
:10AE60002046FFF7D9FA2046BDE81040FFF782B927
:10AE7000084B1A8882420BD19A788A4208D19A7A72
:10AE8000920705D15A68002A0CBF18460020704767
:10AE900000207047C02E002070B50E4E04460025DD
:10AEA000237AAB420DD84FF6FF732380A3700023A3
:10AEB00063604FF47F432381A37A23F00303A372DB
:10AEC00070BD617A2944C9B2304600F04AFB0135B1
:10AED000E6E700BFB02E002013B50023CDE9003314
:10AEE00004468378417A26488DF8023000F020FB32
:10AEF000F8B1237AA2788DF8022003EB83039B003C
:10AF0000ADF80030531E0190072B08D8DFE803F09E
:10AF100013070707071304151423ADF80030224662
:10AF2000694632F8040BFFF731FF07281BD008D819
:10AF3000A8B1032017E00123EFE7838809339B08BA
:10AF4000EBE7112811D08628F3D1A37A23F003036D
:10AF500043F00103A3720B4B01221A7003E0A37AA2
:10AF600023F00303A37202B010BDA37A23F00303FE
:10AF700043F00203A372034B01221A700020F2E790
:10AF8000B02E0020AD2E0020F0B506462A4DC46834
:10AF900033786868294F84420CBF28460020092B6B
:10AFA00087B011D0132B40D0082B40D1747A002CDD
:10AFB0003DD100283DD0FFF76FFF3046FFF749FF36
:10AFC0003B785BB907B0F0BD747A002C2FD1002814
:10AFD0002FD0837A446043F002038372AA7A00235D
:10AFE0003B70C2F340030BB9D207EBD501223A7094
:10AFF0000BB9002CE6D01048FFF76EFF0028E1D017
:10B000004FF6FF738628ADF806302B88ADF8083070
:10B0100016BF03900623072301A80CBF8DF8043048
:10B020008DF80430FFF715FFCCE70124C5E70024B5
:10B03000C3E70446C1E700BFC02E0020AD2E0020AC
:10B040000023FFF737BE0000F8B505460E461F4641
:10B05000002B44D0CB1F012B43D8012A41D1FFF74D
:10B0600007FF044608BBFF214FF6FF70FFF700FF04
:10B070000446C0B105808670637AFF2B1AD1012186
:10B080001A4800F086FAFF28607226D14FF6FF7347
:10B090002380002363604FF47F432381A37AA07051
:10B0A00023F00303A37211201AE0037A012BE3D0EB
:10B0B0000F2015E0002501232372617A0B4800F070
:10B0C00037FA80B11423BE7078603B801DB1082E22
:10B0D00001D14A238380002002E00125EBE70E2006
:10B0E000F8BD0720FCE70320FAE700BFB02E0020E0
:10B0F00008B5FFF7BDFE18B1FFF7CEFE002008BD72
:10B100000520FCE70B4B1A88824210B5044604D098
:10B110002046FFF78DFE48B910BD9978FFF7E8FF8C
:10B120000028F5D00528F3D00320F5E70728FBD148
:10B13000F2E700BFC02E0020CB1F012B70B50646E2
:10B140000C46154601D9072070BD1046FFF77BFE5F
:10B150000028F8D021463046FFF78AFE28B1058046
:10B160008470BDE87040FFF7B7BE0520ECE710B56E
:10B170004FF6FF7304469C4208460AD14FF4807193
:10B18000FCF7C0FD84B2B4F5807F09D14FF6FF749F
:10B1900006E0FF2CFAD82146FCF793FD0028F5D1F4
:10B1A000204610BD0149FFF7E2BF00BFCC2E0020B2
:10B1B0004FF6FF73984210B5044606D00449FFF7D6
:10B1C000D6FF231A5842584110BD0020FCE700BFAB
:10B1D000EC2E0020FF2810B5044609D8014605488A
:10B1E000FCF77DFD21460448BDE81040FCF777BD23
:10B1F00010BD00BFCC2E0020EC2E0020FF28014601
:10B2000002D80248FCF775BD00207047CC2E002004
:10B21000FF28014602D80248FCF76BBD00207047AA
:10B22000EC2E00204FF6FF73984270B518BF441CF7
:10B230000E4614BFA4B20024A5B2FF2D02D94FF6CA
:10B24000FF7506E021463046FCF753FD0134002827
:10B25000F2D0284670BD000070B50B490A4EFFF7CA
:10B26000E1FF4FF6FF750446AC4201D1204670BDA8
:10B270002046FFF7CDFF0028F8D020463146FFF7E3
:10B28000D1FF0446F0E700BFCC2E00200149FFF7B4
:10B29000C9BF00BFEC2E0020F8B5074D074E07468A
:10B2A00000243378A34200DCF8BD55F8043B38464F
:10B2B00098470134F5E700BF142F0020232F00200A
:10B2C000074B1B7810B504464BB1FFF7DFFA204659
:10B2D00000F02AFE2046BDE81040FEF7BBBF10BDBF
:10B2E000222F002008B1FFF7D7BF7047FFF7D4BF68
:10B2F000FFF7D2BFFFF7D0BF2DE9F04F87B0CDE900
:10B3000000232D4B1B7882468946002B52D04FF6E6
:10B31000FF70FFF79AFD00250423CDE902530DF1DC
:10B32000100B02AB05935A4603AB06210446049565
:10B33000FFF7C0FC072839D04FF6FF76B0464FF034
:10B34000FF37F0B1052825D04FF6FF739C422FD16F
:10B35000A04529D0A6420CBF05200020BAF1000F5D
:10B3600001D0AAF80080B9F1000F01D0C9F800504F
:10B37000009B03B11E80019B03B11F6007B0BDE8B5
:10B38000F08F029BAB4224BFA0461D46BB423CBF90
:10B3900026461F462046FFF758FD03AB5A460621B6
:10B3A0000446FFF787FCCCE70520D7E70520E5E753
:10B3B0000320E3E70820E1E7222F002038B50C4CFA
:10B3C0000C4D00231A4621462846FFF795FF052815
:10B3D0000AD14FF6FF732B8000232360431F58428E
:10B3E0005841054B187038BD0028F7D10120F8E707
:10B3F0000C2F0020202F0020242F0020F0B5044621
:10B4000087B08088FFF772F923786080083B032BB0
:10B4100020D8DFE803F002213166637A5BB93F4A46
:10B42000116851B1E068814207D113603C4AA1889C
:10B430001180E3600EE0012B0CD13A4B1B784BB12D
:10B44000374BA2881B889A4204D1237A062B01D15C
:10B45000FFF7B4FF20465DE0637A002BFAD12F4A54
:10B4600011680029F6D0E0688142F3D12E491360BB
:10B470000A68013A0A60DCE72C4F3B7873B9012572
:10B48000284B1B7833B1264BA2881B889A4201D1E6
:10B49000FFF794FF002DDDD107B0F0BD4FF6FF7030
:10B4A000FFF7D3FC4FF6FF7398420546E7D1FFF74D
:10B4B000CEFCA8420646E2D100251422294601A866
:10B4C0003D7001F03EFA0C2320468DF80430ADF8B3
:10B4D0000860ADF80660FFF7DFFE01A8FFF7DCFEAD
:10B4E000CEE7124B1A78002AB4D00021142201A80A
:10B4F000197001F026FA0D238DF804304FF6FF7312
:10B50000ADF80830ADF806302046A3680393FFF786
:10B51000C3FE01A8FFF7C0FEBEE700BF282F002032
:10B52000202F0020242F00200C2F0020102F00207F
:10B5300038B50C46054608B9002038BD0368002B15
:10B54000FAD040680028F7D0FF29F5D0BFF35F8F0D
:10B55000FCF7CFFB0028EFD0EB68286803FB040062
:10B56000EBE738B50D46044690B1036883B14068F7
:10B5700070B1FF290CD0BFF35F8FFCF7BAFB38B175
:10B580006068BFF35F8F2946BDE83840FCF7A7BB72
:10B5900038BD2DE9F0418846064618B9FF242046FB
:10B5A000BDE8F0810368002BF8D04368002BF5D08C
:10B5B0000027FF24B368FDB2AB42EFD9294670687B
:10B5C000FCF77FFBBFF35F8F40B9FF2C08BF2C4611
:10B5D0002D1B01354545E2D00137EBE7FF2C07D1A4
:10B5E000FF24F9E721463046FFF7BBFF0134E4B200
:10B5F000AC42F7D3F4E77EDF70477FDF704786DF2A
:10B60000704710B504464088FFF742F8A0802046F6
:10B61000BDE8104000F026BC10B586B004461422E8
:10B62000002101A801F08DF904230DEB03008DF832
:10B630000430ADF80640FFF7E4FF06B010BD30B5AA
:10B6400087B005460C461422002101A801F079F9C3
:10B65000072301A88DF80430ADF806500394FFF7D6
:10B66000D0FF07B030BD0000F0B587B004460F46EC
:10B6700016460021142201A81D4601F062F9032399
:10B680008DF80430094BADF80640002219788DF88A
:10B690000C702046ADF80E608DF81050FEF7C8FA19
:10B6A00001A8FFF7AEFF07B0F0BD00BF3D250020A9
:10B6B0007FB502238DF804300388ADF80630437956
:10B6C0008DF80D1013F0040F14BF0123022301A8FD
:10B6D0008DF80C30FFF795FF07B05DF804FB000014
:10B6E00030B5114B0A1C87B00C4618BF01221978DF
:10B6F0000546FEF79DFA631E5A425A410B4B2846F7
:10B700001978FEF795FA1422002101A801F019F921
:10B71000012301A88DF80430ADF806508DF80C40D7
:10B72000FFF76FFF07B030BD3F2500203E2500200A
:10B73000164B2DE9F0410D46197804461646FEF7E2
:10B740005FFA0146F0B1124B20461978FEF758FA1D
:10B75000002804F580704FF0070180B214BF012764
:10B760000227FFF7C5FC014620B1052802D020467C
:10B77000FFF765FF33462A4639462046BDE8F041CB
:10B78000FFF772BF33462A46F7E700BF3F25002088
:10B790003E2500202DE9F0418AB00D469046044632
:10B7A000FEF7E4F920220646002102A801F0C9F8BC
:10B7B000012E08D1334B002219782046FEF738FAC3
:10B7C00035B9852716E0002EFAD143F2020053E086
:10B7D0002046FEF75DFF4FF6FF73984211D1002718
:10B7E0002B78DB0721D4284BCDF814800993012E48
:10B7F00018BF002502AB2A4639462046FFF7FDFE5A
:10B800003AE0012EEBD11F4F20463978FEF7F8F9C8
:10B810000028E4D12046FFF7FFFE39782046FEF7E6
:10B82000EFF90028DBD18527DAE7852FDFD004F593
:10B8300080706B460122072180B2FFF705FC1128BA
:10B840001AD0E0B901465022019801F07AF8019926
:10B850000B46204603F8346B029301F1180306935C
:10B860004B1C07931131084BCDF814800993FEF758
:10B8700021FF0028BBD008200AB0BDE8F0810320DA
:10B88000FAE700BF3C2500202C2F002038B50546E4
:10B890000C46FEF76BF9012808D154B12146284621
:10B8A000FFF7A9FE042808BF112038BD43F20200AB
:10B8B000FBE72046F9E700002DE9F0470388113B3C
:10B8C00088B00446092B73D8DFE813F00A00720031
:10B8D0001F00470072007200720072009F002A0170
:10B8E000037A84883D2BA44B2046197841F23D050C
:10B8F00018BF4FF48855FEF783F9002858D000226E
:10B9000029462046FFF714FF52E08088FEF72EF903
:10B91000012802460FD1237AA58813F0010F964B18
:10B9200014BF0126022619782846FEF781F9314610
:10B930002846FFF7D5FE34F8045F1422002103A83F
:10B9400000F0FFFF043405238DF80C30ADF80E50E5
:10B95000059403A8FFF755FE2AE000F110063046D3
:10B96000FEF707FF4FF6FF7398420546A08822D1E5
:10B97000FEF78EFE0546804BA788197801223846CF
:10B98000FEF756F900213846FFF7AAFE4FF6FF737F
:10B990009D4214D10025002329461A46A088FFF7AE
:10B9A0002EFE0828014603D010B3A088FFF747FEFB
:10B9B00008B0BDE8F0872946FEF7FCFEDBE703AAE6
:10B9C00007212846FFF73CFB0028E3D1A37ED907D7
:10B9D000E0D5049D95F84430DA0701D53435DAE72F
:10B9E000314605F14600FEF7B0FE0028F6D1D1E75A
:10B9F000A37EDB07DCD5002DDAD1A0882B4641F2EF
:10BA000006022946FFF730FED2E75B4B067A19782B
:10BA10008788002E77D100F1040832463846FEF7B9
:10BA200007F9617A11F0040103D14046FFF740FEA7
:10BA3000BEE707F580791FFA89F901AB01220721DA
:10BA40004846FFF701FB054628B101463846FFF797
:10BA5000F6FD3146E9E73846FEF71AFE4FF6FF736A
:10BA60009842044682462ED101460298FEF7F2FD26
:10BA700050450446064674D0DFF804A10146384616
:10BA8000FEF798FE9AF800103846FEF7B9F8064619
:10BA9000C8B93846FFF7C0FD9AF800103846FEF7DF
:10BAA000AFF801460028C0D0072122464846FFF7DC
:10BAB00043FB014648B90121B7E721463846FEF766
:10BAC00079FE0126F0E72E46EEE786280DD11422F6
:10BAD000002103A800F035FF062303A88DF80C30E1
