:020000022000DC
:1060000000000120756302005D6302005F6302000F
:106010006163020063630200656302000000000028
:1060200000000000000000000000000067630200A4
:1060300069630200000000006B6302006D630200F0
:10604000757402006F630200817802006F630200C2
:106050006F6302006F630200397702006F63020012
:106060006F6302006F6302006F6302006F630200E0
:106070006F6302006F6302006F6302006F630200D0
:106080006F630200FD6C02006F6302006F63020029
:106090006F6302006F6302000D8302006F630200F2
:1060A0006F6302006F6302006F6302006F630200A0
:1060B0006F6302006F630200000000000000000038
:1060C0006F6302006F6302006F6302006F63020080
:1060D0006F6302006F6302006F6302000000000044
:1060E00000000000000000000000000000000000B0
:1060F00000000000000000000000000000000000A0
:10610000000000000000000000000000000000008F
:10611000000000000000000000000000000000007F
:10612000000000000000000000000000000000006F
:10613000000000000000000000000000000000005F
:10614000000000000000000000000000000000004F
:10615000000000000000000000000000000000003F
:10616000000000000000000000000000000000002F
:10617000000000000000000000000000000000001F
:10618000000000000000000000000000000000000F
:1061900000000000000000000000000000000000FF
:1061A00000000000000000000000000000000000EF
:1061B00000000000000000000000000000000000DF
:1061C00000000000000000000000000000000000CF
:1061D00000000000000000000000000000000000BF
:1061E00000000000000000000000000000000000AF
:1061F000000000000000000000000000000000009F
:10620000354936480A1A02D0072291438D4634494F
:1062100034480A1A06D00722914381F309880222E2
:1062200082F3148830483149314A00F044F831484B
:106230003149324A00F03FF831483249324A00F0E1
:106240003AF832483249334A00F035F83248334997
:10625000334A00F030F833483349344A00F02BF821
:1062600033483449344A00F026F83448344900228F
:1062700000F02CF833483449002200F027F8334866
:106280003349091A082902DB002202604160314AC1
:1062900090471F481F49884205D00268043003B464
:1062A000904703BCF7E700208646EC46002000211B
:1062B000294A9047FEE7884207D0521A05D0037852
:1062C00001300B700131013AF9D17047884202D098
:1062D00002700130FAE770470000012000E0002062
:1062E0000000012000000120B4860200C818002030
:1062F000FC180020D0630200D0630200F685020083
:10630000B4860200C8180020C818002018860200B1
:1063100018860200188602001886020018860200FD
:10632000188602001886020018860200B486020051
:10633000E8860200FC180020FC180020FC18002051
:10634000311B0020341B0020341B0020341B002094
:10635000343B00209D6302009D780200FEE7FEE7CB
:10636000FEE7FEE7FEE7FEE7FEE7FEE7FEE7FEE705
:1063700000F002B8FFF7FCBF0F484FF00701884359
:1063800085460E4880470E48016841F4700101605F
:10639000BFF34F8FBFF36F8FFFF732BF09480A4932
:1063A0000A4A884207D0521A05D0037801300B7090
:1063B0000131013AF9D1704700000120516F02000C
:1063C00088ED00E018860200C8180020C8180020D8
:1063D000C30710B507D4F0234008054A145C2340D6
:1063E0001943115410BD0901C9B20F23F4E700BFCE
:1063F0003019002030B5094B1C78094B196800236F
:106400009C4202DC0022104630BD11F83350854218
:1064100001EBC302F7D00133F2E700BFFC18002004
:106420004019002070B504460D46FFF7E3FF30B178
:10643000436823B129462046BDE87040184770BD27
:10644000034B044819680022490800F014BA00BF41
:10645000001900200819002010B5C0B2FFF7CAFFCC
:106460000446007801F05EF963785A1E53425341A6
:10647000834208D1044BD3E90023134303D1BDE881
:106480001040FFF7DDBF10BD2819002037B54308C5
:10649000364AD35CC2074CBF1B0903F00F03044606
:1064A0000D46042B37D8DFE803F003262E3A3E00D2
:1064B00089B30121FFF78CFF00230DF107008DF850
:1064C000073000F0C7FA0122A4F12003C4F1200034
:1064D000274902FA03F322FA00F0034302FA04F414
:1064E000D1E9002014430343C1E900439DF80700AC
:1064F00000F0D4FA0FE0002914BF02210021204649
:10650000FFF766FF07E041B10321FFF761FF0121BB
:106510002046FFF787FF03B030BD0121EFE70029D8
:10652000F9D10421EBE709B10321E8E7FFF750FFB8
:1065300029462046FFF776FF0DF107008DF807503A
:1065400000F088FA0122A4F12003C4F120000849D8
:1065500002FA03F322FA00F0034302FA04F4D1E949
:10656000002022EA040420EA0303BDE730190020DA
:10657000281900202DE9F041124E134F00243378E2
:10658000A34208DC114BD3E90023134318D0BDE824
:10659000F041FFF755BF3D6805EBC40815F834001E
:1065A00001F0C0F898F801104B1E594259410A1ADF
:1065B000514215F834005141FFF768FF0134DEE71E
:1065C000BDE8F081FC1800204019002028190020A7
:1065D000092AF7B505460C4616463DD900F0DEFF00
:1065E000D8B11E4B1E481D601E4B1F4F1C701F4B09
:1065F000002110221E6001F0CBFF1D4B0020002166
:10660000C3E90001013CE4B20326FF2C0BD1194A77
:106610001948002100F024F903E000F081FF002870
:10662000DFD003B0F0BD20B29DF806308DF80460D5
:1066300005EBC00223F007038DF8063001A993781B
:1066400015F830008DF805303A4600F0B1FF013CF6
:10665000E4B20028D9D0E4E70720E2E7401900209F
:1066600030190020FC180020596402000019002095
:1066700028190020756502001886020070B5084DC3
:10668000084E00242B789C4201D3002070BD336853
:10669000012113F8340000F0FFFF0134F2E700BFDE
:1066A000FC180020401900201FB50021039001AA0A
:1066B00044F20100CDE9011100F004F805B05DF8E5
:1066C00004FB000072B6094B1B68DB0700D500BE57
:1066D000BFF34F8F0649074BCA6802F4E0621343C9
:1066E000CB60BFF34F8F00BFFDE700BFF0ED00E0D0
:1066F00000ED00E00400FA05D0E90223D1E902012F
:10670000994208BF90422CBF012000207047000032
:106710002DE900480C4800F0DAFA0C4BD3E90023CD
:1067200012EB000B43F1000C094BD3E900239C450D
:1067300008BF93455846614603D21BF180704CF167
:106740000001BDE8008800BFC818002048190020DB
:10675000C019002037B505460C460A4801A900F0CB
:10676000EAFA60B10570446001A9064800F00DFB2B
:1067700018B1054800F0B0FA002003B030BD042085
:10678000FBE700BFAC190020C8180020194B1B788C
:106790002DE9304804461BB900252846BDE830885D
:1067A0000028F9D0037F03F0FF05002BF4D0FFF79A
:1067B000AFFFD4E90223994208BF904215D3236961
:1067C00003B92377D4E90530984721690029E3D03C
:1067D000237F03F0FF05002BDED0D4E9022312EB68
:1067E000010B43F1000CC4E902BC2146024800F051
:1067F0006BFBD2E7501900202086020013B5114B25
:1068000011491868019008235822104800F080FAB6
:10681000044698B90E4A0F4801A900F063F90446EE
:1068200060B901210B4800F035FA01230A4A0948F2
:10683000194600F09BF9094B01221A70204602B05C
:1068400010BD00BF1C86020054190020AC190020A6
:10685000C1680200C8180020FFFF7F005019002007
:106860003AB103685A614A1E5142514119610020F0
:1068700070470720704738B5037F04460D4683B93B
:106880008261FFF745FF421941F10003C4E9022389
:10689000236903B1256121460020BDE83840FFF798
:1068A00059BF002038BD0023014603770120FFF7C0
:1068B00051BF0000014800F00ABA00BFC81800200C
:1068C0002DE9F04F85B0074600F0ECF940B1594A88
:1068D000D2E9003113F1807341F10001C2E90031C6
:1068E0000021384600F0EDF938B1534C236823B14C
:1068F0002068FFF74BFF002323600121384600F09A
:10690000E0F920B1FFF704FF4C4BC3E9000103A9F4
:106910004B48494D4B4C4C4E00F047FA002845D1AE
:10692000DFF820A1444CDFF828B1504600F0E2FA2D
:106930002368002875D07BB12368D0E90201D3E930
:106940000223994208BF90422DD223681B7F1BB1BE
:106950002168504600F0B8FA504600F0C5FAD0E978
:10696000026305460193FFF7D3FE019BB6EB0008D7
:1069700063EB0109B8F1010F79F1000344DB334EF9
:10698000B0453FD9FFF796FF82194FF496030021D7
:10699000584600F00BF900283ED1236813B9384659
:1069A00000F0DCF8256005B0BDE8F08F0378012B1E
:1069B0001DD05BB1022B11D14FF0000A204600F030
:1069C00093FA002833D080F81CA0F7E741680B7FCA
:1069D00023B901230B77204600F076FA03A9184863
:1069E00000F00EFA03A9164800F0DFF996E74168B7
:1069F0002B68994202D100232B60EFE7204600F07C
:106A00007CFAEBE7AA68C0E70021584600F04FF98E
:106A10002846FFF7BBFE01E00D28F9D000232360D4
:106A200083E7002BBFD1384600F09CF8BBE7012379
:106A30003370D3E748190020C8190020C01900207E
:106A4000AC1900202086020050190020FFFFB4007E
:106A5000C818002070B5EFF3108672B60C4A94681F
:106A600001239CB993600B4B0B4DD3F88010294048
:106A70001160C3F88050D3F8841051604FF0FF329A
:106A8000C3F88420047006B962B670BD0370FAE7DB
:106A9000CC19002000E100E0FC06FFBD084B9A681D
:106AA00010B55AB150B9EFF3108172B6054A1C689F
:106AB00014605C685460986001B962B610BD00BF94
:106AC000CC19002000E100E0435882B03BB1002324
:106AD000435043580193019B012002B07047184670
:106AE000FBE7000070B5194C4379194D44F8232099
:106AF00005EBC3031B7933BB03680A88C3F8082579
:106B000090F904408B78002C4FEA4313E2B2DBB2D9
:106B100014DB10490E1986F800330123640902F0D2
:106B20001F0203FA02F241F82420437905EBC30265
:106B3000012145F833001171002070BD02F00F02F1
:106B400005498B54F1E70820F7E700BFE019002062
:106B5000D819002000E100E014ED00E003680122F4
:106B60001A607047036801225A60704773B501F1DB
:106B70005005AD000068ADB24FF480348C40002663
:106B8000C0F80843C0F84843465101F5A87145597B
:106B9000019522F07F42019D40F82120C0F8444336
:106BA0000BB1C0F8044302B070BD00002DE9F74FEF
:106BB000884699464FF48036036808F150058E40A8
:106BC0004FEA880AAD00C3F84863ADB2C3F8086362
:106BD000074603EB0A00D3F804154FF0000B22F030
:106BE0007F44D0F84025C0F8401543F805B05B5904
:106BF0000093009B531A23F07F43012B0BD1244BAE
:106C00004FF4806043F0010398473B6843F805B0B8
:106C10005B590193019B3868D0F80455C0F8446370
:106C2000631B23F07F43012B1AD108F5A878184B7A
:106C3000013440F8284043F001034FF48060984746
:106C40003B68D3F804359D4208D13B680020C3F867
:106C50004463C3F8046303B0BDE8F08F0D20FAE786
:106C60008244C9F1FF19CAF84045D0F80435E21A48
:106C7000013A22F07F4209F57F499145EED3002A7F
:106C8000E3D10134CAF84045D0F804259342DBE74C
:106C90003086020003680222C3F8442309B1C3F816
:106CA000042370474FF482710068FFF70DBF4FF463
:106CB000803303FA01F10368C3F84813C3F80813DB
:106CC00070475031890089B20068FFF7FDBE036844
:106CD000D3F804057047000090F90430002B09DB5D
:106CE0005A09012103F01F0301FA03F3403202495C
:106CF00041F82230704700BF00E100E0024B034A38
:106D00001B681068184700BFE0190020D819002040
:106D100010B561B1B2FBF3F403FB1424A4B244B97F
:106D2000C0E9001484608281C381204610BD0E201A
:106D3000FCE70920FAE737B550E8013F9DB2C48966
:106D400025448489A54228BF2D1B0489A54202BF82
:106D5000BFF32F8F002207E0C5EA030540E8015486
:106D6000002CE9D14FF001028DF803200193019B23
:106D70009DF803200B6002F0FF0322B10B8800682E
:106D8000184403B030BD1846FBE70A884B889A4286
:106D900009D150E8012FC2EA024240E80123002B4A
:106DA000F7D1012070470020704737B550E8023F07
:106DB0001FFAA3F5C488A54202BFBFF32F8F00229C
:106DC0000DE0C48925448489A54228BF2D1BC3EA50
:106DD000054540E80254002CE8D14FF001028DF83F
:106DE00003200193019B9DF803200B6002F0FF0339
:106DF00022B14B880068184403B030BD1846FBE749
:106E00000A884B889A4209D150E8022FC2EA2242EE
:106E100040E80223002BF7D1012070470020704783
:106E200041DF7047064B10B500241C70054B1C60F9
:106E3000BFF35F8F0449054800F030F8204610BDCD
:106E4000EC190020F019002038860200E419002017
:106E500007B500230DF107008DF80730FFF7FAFDA5
:106E6000F1EE103A23F09F03E1EE103ABFF35F8F8B
:106E7000094B4022C3F884219DF80700FFF70EFE5E
:106E800001F02AFA20B1FFF7CBFF03B05DF804FB55
:106E900020BF40BF20BFF8E700E100E00B684A6870
:106EA0004360934208BF0023016008BF43607047FE
:106EB000436843B10268916852680B44934243604F
:106EC00004BF00234360704770B5446806460D4612
:106ED000206818B1B3682946984718B923682B6011
:106EE000256070BD2468F3E74368186808B102683C
:106EF0001A6070474368186870474368186800B99B
:106F00007047884203D102681A6001207047034627
:106F10000068F4E7044B1868421C04BF034B187860
:106F2000831F58425841704730010010E00F00F0B5
:106F3000064B1868083B1B78062B05D1C0F30310DD
:106F4000C31E58425841704700207047E80F00F0B8
:106F500008B5FFF7DFFF28B1804B814A1B68C3F3F8
:106F600004231360FFF7E4FF10B17E4B7E4A1A60E2
:106F7000FFF7D0FF28B17D4B7D4A1B68C3F3423336
:106F80001360FFF7D5FF20B17A4AD36823F08073EE
:106F9000D360FFF7BFFF40B14FF080430022C3F83A
:106FA0000C21C3F81021C3F83825FFF7C1FF10B139
:106FB000714B03221A60FFF7BBFF40B16F4B0522F4
:106FC0001A6001229A6700229A603F225A606C4B35
:106FD0001A68511C0BBF6B4B6B4B1A781B6802BFB6
:106FE00008331B68C3F30313062A49D1033B012B63
:106FF00046D94FF08052654BD2F80414C3F82015DF
:10700000D2F80814C3F82415D2F80C14C3F82815C4
:10701000D2F81014C3F82C15D2F81414C3F8301594
:10702000D2F81814C3F83415D2F81C14C3F840155C
:10703000D2F82014C3F84415D2F82414C3F8481524
:10704000D2F82814C3F84C15D2F82C14C3F85015F4
:10705000D2F83014C3F85415D2F83414C3F86015BC
:10706000D2F83814C3F86415D2F83C14C3F8681584
:10707000D2F84014C3F86C15D2F84424C3F8702534
:10708000FFF748FF28B1424B424A1B6803F04F0309
:107090001360FFF73FFF48B14FF08043D3F800245F
:1070A000D20744BF6FF00102C3F80024344B1B68C1
:1070B000062B09D1344B1B68033B022B81BF364A98
:1070C000136843F480631360344AD2F8883043F481
:1070D0007003C2F88830BFF34F8FBFF36F8F4FF04C
:1070E0001023D3F80022002A03DBD3F80432002B4C
:1070F0002FDA2B4B0122C3F80425D3F80024002AF1
:10710000FBD04FF010221521C2F80012D3F8002452
:10711000002AFBD04FF010231522C3F80422204B85
:107120001A46D3F800140029FBD00021C3F8041537
:10713000D2F80034002BFBD0BFF34F8F1749194B07
:10714000CA6802F4E0621343CB60BFF34F8F00BF05
:10715000FDE7154B154A1A6008BD00BF2403001057
:107160004035014074C007400DF0ADBA4402001034
:107170003C050040F0ED00E0A00500401056004046
:1071800030010010E00F00F03401001000C000409A
:1071900058020010E40E00403C17004000ED00E0F3
:1071A00000E001400400FA05D01800200090D00350
:1071B000054A4FF0A043105CD3F8043523FA00F0E1
:1071C000C04300F00100704744860200044B1A5C83
:1071D000012393404FF0A042C2F80C35704700BF26
:1071E00044860200044B1A5C012393404FF0A042F6
:1071F000C2F80835704700BF4486020008B5002079
:10720000FFF7F0FF0120FFF7EDFF0220FFF7EAFF95
:107210000320BDE80840FFF7E5BF08B50020FFF7F1
:10722000D5FF0120FFF7D2FF0220FFF7CFFF032099
:10723000BDE80840FFF7CABF074A4FF0A041105C05
:10724000D1F804350122824022EA03001340C1F83C
:107250000805C1F80C357047448602000D2809D096
:107260000E2809D00F2809D010280CBF03204FF09A
:10727000FF307047002070470120704702207047A0
:10728000C20708B501460CD54FF0A0430322C3F84E
:107290004427C3F84827C3F84C27C3F85027FFF703
:1072A000ADFF8B070AD54FF0A0430C22C3F834275B
:1072B000C3F83827C3F83C27C3F8402708BD0000AF
:1072C00038B5074C051E04F1080318BF1C46236897
:1072D0002BB11A6822605B6828469847F7E738BDEB
:1072E000FC19002020B9054B01225A70FFF7E8BFB6
:1072F000012802D1014A9070F8E77047F419002084
:1073000020B9034B01225A70FFF7DABF704700BF64
:10731000F419002038B50E4C2378B3B90D486360DA
:10732000A3602361E36000F073F8054600F0D4FF2A
:1073300008B900F079F801232370074BD3F8003423
:107340000BB10123A370284638BD8525F5E700BFA2
:10735000F4190020E57202000000014037B50D4C21
:1073600000230DF107008DF80730FFF773FBE3688A
:10737000013BE360E36833B9074BD3F8005415B918
:1073800000F064F8A5709DF80700FFF787FB03B0D5
:1073900030BD00BFF419002000000140012813B5E2
:1073A0000DD018B1032820D002B010BD114B01221E
:1073B000C3F88020BFF34F8FBFF36F8FF4E70E4CFD
:1073C00000230DF107008DF80730FFF743FB23780A
:1073D0000BB9FFF79FFFE3689DF807000133E360F7
:1073E0000123A370FFF75AFBDEE700F01DF8FFF75B
:1073F000B5FFD9E700E100E0F419002000F180407A
:10740000002382B0036003680193019B02B07047C0
:10741000044A137923B901211060918018467047FE
:1074200085207047081A0020074B1A68D20704D439
:10743000C02283F8002301221A604FF0804301220A
:10744000C3F81825704700BF00E100E04FF080420C
:1074500008B50223C2F808334FF48270FFF7CEFF5D
:10746000034B01211960D2F81834DB03FBD408BDAB
:107470000C000040124B1B6810B573B14FF48070C4
:10748000FFF7BCFF4FF080430122C3F808230D4BE8
:10749000587910B95A711B6898470B4B1B6873B128
:1074A0004FF48270FFF7AAFF4FF080430222C3F827
:1074B0000823044B01201B68BDE81040184710BD8D
:1074C00000010040081A00200401004000F1804043
:1074D00000F5C040002382B0036003680193019B64
:1074E00002B07047800000F1A040D0F8003723F4CC
:1074F0004033C0F80037D0F8003743EA0141C0F804
:1075000000177047054B4FF0FF32072843F8202043
:1075100084BF1B1883F84820704700BF101A002052
:1075200010B51A4C94F858306BBB4FF0FF3222FA6A
:1075300003F1C90748BFE11803F1010348BF81F80F
:107540003020202BF3D10021C8B2FFF7DBFF01313F
:107550000C29F9D1042200210D4801F019F80D4B36
:10756000C02283F8062340221A604FF4BE70FFF752
:10757000ADFF094B4FF00042C3F80423012384F808
:107580005830002010BD0820FCE700BF101A002072
:10759000641A002000E100E000600040034B93F813
:1075A0005800003018BF0120704700BF101A00209B
:1075B000F0B5374B1C1894F93040002C1C4664DAA7
:1075C0008D78C5F34005002D0BBF082300230C2642
:1075D0000826B34201D10420F0BD54F823700137CE
:1075E0003FD1261844F8232086F8303015B9E21828
:1075F00082F848008A78550713D4D60733D582001D
:1076000002F1A042D2F8005725F00205C2F8005757
:10761000204EC50800F007070122BA40775D3A43C3
:1076200072558A780D7812F0020225D09B0003F182
:10763000804303F5C0430202D3F8101521F447310B
:1076400021F44071C3F810152D04D3F8101502F47D
:10765000F85205F440352A430A43C3F810250020A8
:10766000BAE70133B5E74D7800F5E0724FF0A04678
:10767000AD0046F82250CBE7083B234493F8501066
:1076800041EA851583F85050E9E70820A4E700BFD8
:10769000101A0020641A002038B5204C251895F9DE
:1076A0003020072A18DD224492F848309B09032B2A
:1076B0000DD14FF0A043D3F81035C34013F0010FA4
:1076C0000CBF02210321BDE83840FFF70BBF012B9F
:1076D00014BF03210221F6E7D3B2072B1CD8930075
:1076E00003F1804303F5C043D3F8100540F00100D7
:1076F000C3F8100502F14000800080B2FFF7E6FEFB
:1077000051B195F9303054F823302BB1012303FAED
:1077100002F2034BC3F8042338BD00BF101A002047
:10772000006000404FF0A043D3F8103523FA00F07A
:1077300000F00100704700002DE9F34700244C4D94
:1077400001944FF48072012102F1804303F5C0439C
:1077500090B21B68012B06D1D5F804330B4202D03E
:10776000FFF7B4FE0C430432B2F5907F4FEA4101BB
:10777000EAD1404B1B68012B0CD14FF4BE70FFF7D0
:10778000A5FE4FF0A04344F00044D3F82025019219
:10779000C3F8202514F0FF0F1AD0374F012600251B
:1077A000344210D0AB0003F1804303F5C043D3F85B
:1077B0001005D3F8101557F8253023B1C1F3014156
:1077C000C0F3042098470135082D4FEA4606E7D15B
:1077D000002C46DA284F4FF0A046DFF8A0804FF08B
:1077E000000A4FF0010918F9011B4B1C2DD0CAB239
:1077F00022F0C00402AB03EBD40313F8041C02F024
:10780000070309FA03F319421FD004F5E073204679
:1078100056F82350C5F30145022D0CBF0321022168
:10782000FFF760FE09FA04F3C6F820353B1993F917
:10783000303057F8233043B19109032903D0022D8A
:1078400012D1012901D1204698470AF1010ABAF163
:10785000040FC8D1D6F820350193C6F82035002B87
:10786000BBD102B0BDE8F087032DEED10229E9E7D4
:10787000006000407C610040101A0020601A002067
:10788000014B1B68184700BF6C1A00203FDF704790
:1078900072DF704773DF704777DF704700B593B0D2
:1078A000FEF7ACFF08B1FEF7FFFE0021012000F05B
:1078B000FDF908B1FEF7F8FEFFF7B4FA08B1FEF7DC
:1078C000F3FE00F0CBFC08B1FEF7EEFE002303A9A7
:1078D0000120039300F04AFD08B1FEF7E5FE03A87E
:1078E00000F09CFD08B1FEF7DFFE5923274CADF8F0
:1078F0000030274B0293002517233C22002103A8C8
:10790000ADF8043000F044FE042318222946204636
:107910008DF80F308DF80C50CDF830D000F038FED7
:107920001C4A65600523237052F8041B25754FF42B
:10793000C86303A8A360A58100F07AFA08B1FEF736
:10794000B3FE124A13491448FFF7A2FF08B1FEF72D
:10795000ABFE114C0120FFF799FF6FF00B0221786D
:107960000120FFF799FF08B1FEF79EFE0121207864
:10797000FFF790FF08B1FEF797FE022000F08AF9AA
:1079800008B1FEF791FEFFF763FAFCE7741A0020D6
:10799000E5180020D4180020E41800200220FFF78A
:1079A0004BBC00002DE9F04781460D46FFF756FC21
:1079B0000328044604D8012D04D025B3022D2FD06E
:1079C000BDE8F087194D47003A18A918AE5C4A780F
:1079D00052B1DFF86880164842464FF48041FEF706
:1079E0004AFF08B988F800903B192B449A78114B4C
:1079F0001A55002EE4D0104B1B68002BE0D0304607
:107A0000BDE8F04718470A48FEF74DFF074B04EB67
:107A1000440213449E78074B1B5DB342D0D1E8E784
:107A2000024B00EB40041C446678E2E7101B002088
:107A3000D01A0020291B0020241B0020AB1A002094
:107A400002210078FFF7AEBF08B5094B1B7853B190
:107A50000020FFF7C7FB0120FFF7C4FB0320BDE8B0
:107A60000840FFF7BFBBBDE80840FFF7C7BB00BF3A
:107A7000AC1A0020F8B57B4C237805461BB10023D7
:107A80002370FFF7E1FF172D00F28880DFE805F093
:107A90000C17174354657680888D888D959A9A9A2D
:107AA0009A9AC4C9D1D9E4E4FFF7CEFF6E48FEF735
:107AB000FAFE6E4B002204461A702046F8BD0020E4
:107AC000FFF776FBF8B10020FFF78CFB022D40F6A4
:107AD000B83118BF4FF47A61644B1D704FF4004009
:107AE0004FF47A740025E0FB01454FF4FA6200235D
:107AF0002046294600F0BCFC002201465A48BDE859
:107B0000F840FEF7B8BEFFF761FB022D0CBF012164
:107B10004FF4C871E0E70020FFF74AFB40B10020B6
:107B2000FFF760FB4FF44871504B03221A70D5E702
:107B3000FFF74CFBC821F7E70020FFF739FB38B10E
:107B40000020FFF74FFB4FF47A61484B0422EDE72A
:107B5000FFF73CFB4FF4C871F7E70020FFF728FB65
:107B600048B10020FFF73EFB404B05221A7040F65B
:107B7000CD410022C2E7FFF729FBF5E70020FFF720
:107B80005BFB3A4B06221A70002240F26661B5E7B1
:107B90000020FFF71BFB354B07221A7000248CE7EF
:107BA00001202070FFF748FBEEE701202070FFF76F
:107BB00043FB00224FF40051A0E7FFF72EFB2B4BB5
:107BC0000C22EAE72A482B4EFEF76DFED5F111058F
:107BD00004461CD0D8B9012D13D0C8235D434FF4FF
:107BE00000474FF47A7000214FF4FA620023C7FB7C
:107BF000050100F03DFC224601461D48FEF73BFE14
:107C000004460220FFF7E2FA0123337055E7022011
:107C1000FFF7E8FA0023F8E7FFF716FF134B1222ED
:107C2000BBE7FFF711FF0020FFF7D0FA0F4B13223D
:107C3000B3E7FFF709FF0120FFF7C8FA0B4B142247
:107C4000ABE7FFF701FF0020FFF7C0FA0120FFF7C5
:107C5000BDFA064B1522A0E7FFF7DFFA034B1D70B4
:107C60009CE700BF201B0020F01A0020281B0020EA
:107C7000B01A0020AC1A0020044B1B68DB0703D5A8
:107C8000034B1878FFF7F6BE704700BF1C1B00209F
:107C9000281B0020044B1B6813F0010301D0FFF7E1
:107CA000E9BE1846704700BF1C1B002038B51C4BAE
:107CB00018601C4B10F00204054619601AD01A4BCC
:107CC0001A480E221A700F22DA7010229A711122AD
:107CD0005A72042140F23332FEF77AFC044648B966
:107CE000FEF7CCFC044628B90146114A1148FEF7BC
:107CF000B7FD0446EB0711D50120FFF7C1FA6CB9B7
:107D000021460D4A0D48FEF7ABFD044630B90C4A3A
:107D10000C480121BDE83840FEF7A2BD204638BD21
:107D20001C1B0020241B0020101B00204886020082
:107D3000417A02006C860200797C020070860200A3
:107D40009D790200688602006DDF704779DF704719
:107D50007DDF704764DF70472DE9F74F0C9CBDF85D
:107D600034B02788002580468A4691462E46B8F8CA
:107D70000020B2420BDC35B12288013AD21B92B20C
:107D8000FF2A39D8DA55002003B0BDE8F08FD8F8C3
:107D9000042052F82600019000220DF1030101A8F1
:107DA000FFF7D8FF0028EFD19DF803204A4521D1E5
:107DB0002288002D14BF0020022002EB090101449B
:107DC000594519DC3DB9013292B2228003F802A074
:107DD00022880132228022880DF103011A4401A871
:107DE000FFF7B8FF0028CFD121889DF803200A446F
:107DF000228001250136BAE70C20C5E72DE9F341C1
:107E0000089CBDF824501746CDE9004502220646DD
:107E1000FFF7A2FF48B9102239463046CDE90845A0
:107E200002B0BDE8F041FFF797BF02B0BDE8F081B6
:107E30002DE9F04F00231688138090F82D3085B07F
:107E400007460D46144653B3082E01D80C2028E1EE
:107E500002A8FFF779FF002840F023811388082249
:107E6000CA54238801339BB21B222380CA54208822
:107E7000013080B2208006220DF10901284400F073
:107E80005EFB23889DF8082006339BB212F0FE02A9
:107E900018BF01222380EA54238801332380BB7852
:107EA000FBB123880433B342D0D802A8FFF74EFFBA
:107EB000002840F0F68023880322EA542388013307
:107EC0009BB219222380EA542388BDF8082001338D
:107ED0009BB2E9182380EA54120A4A7023880233BD
:107EE0002380FA789AB12388D91CB142AED80221F6
:107EF000E954238801339BB201212380E95423886C
:107F00000B449BB22380EA5423880B4423807A6875
:107F1000AAB12388D91CB14298D8022192F9002035
:107F2000E954238801339BB20A212380E954238832
:107F300001339BB22380EA542388013323803B8999
:107F4000002B40F0A2803B8A5BB1CDE900462B4676
:107F50000722032107F11000FFF750FF002840F02F
:107F6000A0803B8B5BB1CDE900462B461522142146
:107F700007F11800FFF742FF002840F092803A6AAC
:107F8000002A40F09180D7F82480B8F1000F30D05B
:107F9000B8F804302188981C8A1C0244B2423FF68B
:107FA00055AFFE283FF652AF03336B54238801339D
:107FB0009BB2FF222380EA54238801339BB22380A3
:107FC000B8F80020EA54E918120A4A7020880230F2
:107FD00080B22080B8F804205AB1D8F808100029DF
:107FE0006CD0284400F0ABFA2388B8F8042013447E
:107FF000238097F82C30002B40F09B8038780028A5
:108000004FD03B88012B59D0228802F1020CB44595
:108010003FF61CAF012805D17B78023313449E4202
:10802000FFF414AF023EB61AB6B202A905EB0C007B
:10803000ADF80860FFF78CFE98BB3978BDF80820D2
:10804000022900F0BB807B78934202D3B24240F217
:10805000B380012940F0B4809BB29E42C0F0B08052
:10806000ADF808300821BDF80830FE2B3FF6EEAE23
:1080700022880133AB542288013292B22280A95463
:1080800022881344238000200BE0CDE900462B46D4
:108090000622022107F10800FFF7B0FE00283FF496
:1080A00052AF05B0BDE8F08FB4F800C00CF1060384
:1080B000B3423FF6CBAE1188052901D80720F0E77F
:1080C0006FF4486E01EB0E039BB24FF27D3E734599
:1080D000F4D95388052BF1D96FF44860181880B291
:1080E0007045EBD94FF6FF70814203D0834201D037
:1080F0009942E3D8052305F80C30238801339BB25D
:1081000012212380E954238801339BB223801188F4
:10811000E954E818090A4170238802339BB223808E
:108120005288EA54E918120A4A70238802332380DD
:1081300029E7BB6A002BC1D04FF000094FF00C0AB1
:108140004FF0160B97F82C305FFA89F293427FF6C6
:1081500055AFB96A0AFB02F201EB0208B8F8043025
:10816000981CFE283FF672AE208803332B542388D8
:1081700001339BB2238005F803B0238801339BB2FF
:1081800023808A5AEA54E918120A4A702088023079
:1081900080B22080B8F804205AB1D8F8081000291D
:1081A0008CD0284400F0CBF92388B8F8042013447D
:1081B000238009F10109C5E7092154E7B242FBD93F
:1081C000ADF808604EE710DF7047000013B50446B5
:1081D00009496846FEF762FE019808B902B010BD71
:1081E000D0E900312046984718B16846FEF760FE96
:1081F000F2E71120F2E700BF7886020013B50446CB
:1082000007496846FEF74AFE019B0BB902B010BD54
:108210002046D3E9002190476846FEF749FEF3E780
:10822000908602000B4991F816335A09EC2313414A
:10823000DB0706D5084B9A683AB94FF480030B6008
:10824000704742F20200FEF72FBA1A6842F4800229
:108250001A60704700E100E0CC190020F7B5194F13
:108260003C7864BB184E012520463570FFF7AEFF01
:10827000112821D02046FFF7C1FF144B8DF8034091
:10828000186801900DF10300FEF7E4FB104901A806
:10829000FFF799FF0446B0FA80F0400938709DF866
:1082A0000300FEF7FBFB3CB90A4B34701C70FFF770
:1082B000B9FF2846FFF7A2FF204603B0F0BD08240F
:1082C000FAE700BF2E1B00202D1B00207486020041
:1082D000C56602002F1B0020014B1878704700BFB5
:1082E0002E1B002007B508496846FEF7D7FD019B05
:1082F00013B903B05DF804FBD3E90020904768464A
:10830000FEF7D6FDF3E700BF84860200FFF7EABF61
:1083100060DF704769DF704761DF704730B5114B30
:108320001B7891B0E3B1104D34240DF1020103A884
:10833000ADF80240FFF7F0FF70B9294601A8FEF73B
:10834000ADFD029B002BF0D003A8D3E9002190479C
:1083500001A8FEF7ADFDF4E7052801D0FEF7A4F96A
:1083600011B030BD301B00209C8602007FB5044652
:108370000D4600294DD0284B0B600C22002101A88E
:1083800000F006F9012606232A68ADF8083001A995
:1083900020208DF804408DF80660FFF7BBFF0C220B
:1083A000002101A8002400F0F3F82A688DF80540A8
:1083B00001A94020ADF80640FFF7ACFF0C22214692
:1083C00001A800F0E5F82A688DF8044001A93046BC
:1083D000FFF7A0FF0C22214601A800F0D9F8F823EE
:1083E0002A68019301A9A120FFF794FF0C222146DE
:1083F00001A800F0CDF89DF804302A6864F300036A
:1084000001A9A0208DF80430FFF784FF204604B0B6
:1084100070BD0E20FBE700BFC818002008B5FFF7AD
:1084200077FF10B9014B01221A7008BD301B0020E4
:108430004BDF70471FB50D4C01A8FFF7F9FF70B96E
:10844000214602A8FEF72AFD039B002BF4D00198D9
:10845000D3E90021904702A8FEF72AFDF4E705289A
:1084600001D0FEF721F904B010BD00BFA8860200BC
:1084700053EA020C61D02DE9F04BB3FA83F51E00EC
:1084800007BFB2FA82F502FA05F403FA05F41646BC
:10849000C5F120051EBF22FA05F73C43203556EAF8
:1084A000044C4FEA144418BF0134A3464FF00009AE
:1084B000C846904271EB030C39D3094207BFB0FAAA
:1084C00080F700FA07F6B1FA81F701FA07F6C7F16B
:1084D00020071EBF20FA07FC46EA0C062037B6FB31
:1084E000FBFC7F1B103F07F01F04C4F120060CFAB1
:1084F00004F42CFA06F644BF34460026202FA4BF0D
:108500002646002454EA060C08BF012418EB040890
:1085100049EB0609A4FB027CC01B06FB02CC04FB52
:1085200003CC71EB0C01904271EB030CC5D20B46EE
:10853000024649464046BDE8F08BB2FBF3F2844662
:1085400040EA010313F0030F18D18446202A0BD30D
:108550002DE9F007B1E8F807A0E8F807A2F120023A
:10856000202AF7D2BDE8F007042A07D351F8043BCC
:1085700040F8043BA2F10402042AF7D2002A05D0F5
:1085800011F8013B00F8013B013AF9D16046704710
:108590008446002A2DD010F0030F04D000F8011BF0
:1085A000013A26D0F7E7C9B241EA012141EA014187
:1085B000202A12D3A2F120022DE9F0030B460C462B
:1085C0000D460E460F4688468946A0E8FA03203A33
:1085D000FBD2BDE8F00320320BD0042A05D340F8CB
:1085E000041B043A05D0042AF9D200F8011B013A11
:0685F000FBD1604670475C
:0885F800017302000000000005
:088600009D7302000000000060
:108608001D83020000000000358402000000000005
:10861800081900200100060000000000441900208D
:10862800F9660200000000000338FDD8704700001A
:1086380000860200008602000400000011121314D4
:108648000D000300A57902000E000300A5790200C1
:108658000F000300A579020010000300A5790200AD
:10866800B01A0020D01A0020F01A002001000007DC
:10867800008602000086020008000000088602004A
:108688001886020008000000008602000886020022
:1086980008000000008602000086020008000000B2
:0C86A800F88502000086020008000000B7
:1086B40000100140110004000090D0038C1A002027
:1086C4001F0000000000000000000000FF02150170
:1086D40012233445566778899AABBCCDDEEFF0019E
:0486E400020304C3C6
:040000032000637501
:00000001FF
