:0200000270008C
:1070000000000120757307005D7307005F730700C0
:1070100061730700637307006573070000000000D9
:10702000000000000000000000000000C9C60700CA
:1070300069730700000000006B7307006D730700A1
:107040006F7307006F7307006F7307006F7307009C
:107050006F7307006F7307006F7307006F7307008C
:107060006F7307006F7307006F7307006F7307007C
:107070006F7307006F7307006F7307006F7307006C
:1070800065B20700418507006F7307006F73070043
:107090006F7307006F730700D1C807006F73070095
:1070A0006F7307006F7307006F7307006F7307003C
:1070B0006F7307006F7307000000000000000000FE
:1070C0006F7307006F7307006F7307006F7307001C
:1070D000E5AE07006F7307006F7307000000000044
:1070E00000000000000000000000000000000000A0
:1070F0000000000000000000000000000000000090
:10710000000000000000000000000000000000007F
:10711000000000000000000000000000000000006F
:10712000000000000000000000000000000000005F
:10713000000000000000000000000000000000004F
:10714000000000000000000000000000000000003F
:10715000000000000000000000000000000000002F
:10716000000000000000000000000000000000001F
:10717000000000000000000000000000000000000F
:1071800000000000000000000000000000000000FF
:1071900000000000000000000000000000000000EF
:1071A00000000000000000000000000000000000DF
:1071B00000000000000000000000000000000000CF
:1071C00000000000000000000000000000000000BF
:1071D00000000000000000000000000000000000AF
:1071E000000000000000000000000000000000009F
:1071F000000000000000000000000000000000008F
:10720000354936480A1A02D0072291438D4634493F
:1072100034480A1A06D00722914381F309880222D2
:1072200082F3148830483149314A00F044F831483B
:107230003149324A00F03FF831483249324A00F0D1
:107240003AF832483249334A00F035F83248334987
:10725000334A00F030F833483349344A00F02BF811
:1072600033483449344A00F026F83448344900227F
:1072700000F02CF833483449002200F027F8334856
:107280003349091A082902DB002202604160314AB1
:1072900090471F481F49884205D00268043003B454
:1072A000904703BCF7E700208646EC46002000210B
:1072B000294A9047FEE7884207D0521A05D0037842
:1072C00001300B700131013AF9D17047884202D088
:1072D00002700130FAE770470000012000F800203A
:1072E000000001200000012050D107007C5900203F
:1072F000BC590020D0730700D0730700F6CB0700FD
:1073000050D107007C5900207C59002064CC070034
:1073100064CC070064CC070064CC070064CC070091
:1073200064CC070064CC070064CC070050D1070090
:1073300090D10700BC590020BC590020BC59002046
:10734000C8800020C8800020C8800020C88000209D
:10735000C88000209D7307003D930700FEE7FEE70D
:10736000FEE7FEE7FEE7FEE7FEE7FEE7FEE7FEE7F5
:1073700000F002B8FFF7FCBF0F484FF00701884349
:1073800085460E4880470E48016841F4700101604F
:10739000BFF34F8FBFF36F8FFFF732BF09480A4922
:1073A0000A4A884207D0521A05D0037801300B7080
:1073B0000131013AF9D170470000012019B30700EB
:1073C00088ED00E050CC0700685900207C5900206F
:1073D00030B54C1CE40012F00303A4B20ED1084DEA
:1073E0002A602244074C2260074A1370074A137030
:1073F000074A1080074A1846118030BD0720FCE775
:10740000C4590020C0590020BC590020CC5900208C
:10741000C8590020CA5900202DE9F3472B4D2B886D
:107420008B4206460C4617464CD34FF000080DF130
:1074300007008DF8078000F087F8254B254A18785B
:107440001178CBB2244909888B4238BF0133C0B2CE
:1074500038BF5FFA83F840452ED092F80080137849
:10746000DBB2994286BF0133DBB2002313709DF873
:10747000070000F08DF84FF6FF73984524D0DFF831
:1074800060A0DAF800304FEAC80903EB090243F8BC
:107490003870A6B19CB1114B28881B68224608FBA6
:1074A0000030314605F01BFBDAF800304B44002079
:1074B0009C8002B0BDE8F0874FF6FF78D7E7002048
:1074C0009080F6E70920F4E70420F2E7C85900208D
:1074D000CC590020BC590020CA590020C0590020B6
:1074E000C4590020F8B5124C124D264622782B784C
:1074F0009A4200D1F8BD23780F48104A07881268D5
:107500000F48DBB219B202EBC10C006852F831200F
:10751000BCF8041003FB070090470A4A237812883E
:10752000DBB29A4286BF0133DBB200233370DDE762
:10753000CC590020BC590020C8590020C459002053
:10754000C0590020CA59002070B5EFF3108672B6FA
:107550000C4A946801239CB993600B4B0B4DD3F8F4
:10756000801029401160C3F88050D3F88410516016
:107570004FF0FF32C3F88420047006B962B670BDC4
:107580000370FAE7D059002000E100E0FC06FFBDDF
:10759000084B9A6810B55AB150B9EFF3108172B622
:1075A000054A1C6814605C685460986001B962B652
:1075B00010BD00BFD059002000E100E010B561B15E
:1075C000B2FBF3F403FB1424A4B244B9C0E90014E1
:1075D00084608281C381204610BD0E20FCE7092013
:1075E000FAE782B050E8022FC188B2EB324F4FF079
:1075F000000317BF92B241EA014142EA014104E0AF
:107600004268B2EB324F08BF012340E80212002A61
:10761000E8D18DF807309DF80730002B0CBF112002
:10762000002002B0704737B550E8013F9DB2C489D1
:1076300025448489A54228BF2D1B0489A54202BF89
:10764000BFF32F8F002207E0C5EA030540E801548D
:10765000002CE9D14FF001028DF803200193019B2A
:107660009DF803200B6002F0FF0322B10B88006835
:10767000184403B030BD1846FBE70A884B889A428D
:1076800009D150E8012FC2EA024240E80123002B51
:10769000F7D1012070470020704737B550E8023F0E
:1076A0001FFAA3F5C488A54202BFBFF32F8F0022A3
:1076B0000DE0C48925448489A54228BF2D1BC3EA57
:1076C000054540E80254002CE8D14FF001028DF846
:1076D00003200193019B9DF803200B6002F0FF0340
:1076E00022B14B880068184403B030BD1846FBE750
:1076F0000A884B889A4209D150E8022FC2EA2242F6
:1077000040E80223002BF7D101207047002070478A
:1077100050E8002F42EA010340E8003C9CF0000FD3
:10772000F6D11046704750E8003F03EA010240E8F6
:10773000002C9CF0000FF6D1104670470121FFF796
:10774000E7BF0021FFF7EFBF10B590B1D0E90123EB
:1077500001689B1ADBB20A60013BDBB2FF2B0268B7
:1077600002D10020107110BD11684C1C14600B7008
:10777000F2E70E20F7E737B5054600240DF10700C4
:107780008DF80740FFF7E0FE2A686B6811689942A0
:107790000ED9481E106011F8014CEB68298A01FBD4
:1077A0000434AB6811791B1ADBB2994238BF1371EC
:1077B0009DF80700FFF7ECFE204603B030BD37B55B
:1077C000054600230DF107000C468DF80730FFF742
:1077D000BBFE2A681368591C1160E968641A298A7B
:1077E000B4FBF1F41C709DF80700FFF7D1FE03B065
:1077F00030BD01600B681146184710B40468E46896
:10780000A4465DF8044B604710B404682469A4469C
:107810005DF8044B6047000070B508B10368ABB970
:107820000C4D0D4C0026641B1423B4FBF3F4B4423E
:1078300001D1002009E02B6813B901361435F6E7B1
:10784000DB69284698470028F7D070BDDB69BDE8A2
:1078500070401847685900207C590020014B436054
:107860000020704764CC070008467047002070472E
:10787000024B1868003018BF01207047DC59002007
:1078800008B50248FFF75DFF002008BDDC59002065
:1078900008B510461A4605F022F9002008BD000080
:1078A0002DE9F041804686B013480E4615461F4626
:1078B000FFF744FF044630B111200EE006EB043020
:1078C00001F07AFB0134A542F8D10B48FFF739FFEC
:1078D000D8F8083000241BB9184606B0BDE8F0817E
:1078E000022268468DF80020CDE90146CDE9034526
:1078F000059798472046F0E7DC5900202DE9F04134
:10790000804686B012480F4616461D46FFF716FF02
:107910000446D8B9AA083146384601F07BFB0C482A
:10792000FFF70FFFD8F808301BB9184606B0BDE8BE
:10793000F08101228DF800200C9A05926846CDE96D
:107940000147CDE9036598472046EFE71120EDE7B1
:10795000DC59002029DF704728DF704770B50368C5
:107960009D6886B004460E466DB11422002168461B
:1079700005F0DEF8A3680593237901962BB1012B5E
:107980000DD06846A84706B070BD01238DF80030C1
:1079900023690293E368039363690493F1E7022385
:1079A0008DF80030E3681B030293F5E70846704743
:1079B00000207047024B187A003018BF0120704732
:1079C000CC5B0020034B187A0122B0FA80F05A7485
:1079D00040097047CC5B002008B510461A4605F0F8
:1079E0007EF8002008BD000008B5142200210448DC
:1079F00005F09EF80348FFF7F4FD002008BD00BF26
:107A0000CC5B0020BC5B002010B5094C094B4360E7
:107A10002046FFF793FE48B904F040FF1C23207472
:107A20004FF4EE7204490548FFF7C8FD002010BD71
:107A3000CC5B002090CC0700E0590020BC5B00200C
:107A400070B5234D234E2B7A2C463BB9224923484F
:107A5000FFF723FE306008B9686070BD022323720F
:107A600033681A7972B1012A22D018460321FFF730
:107A700075FF00232372636017491848BDE8704002
:107A8000FFF736BED3E90520121A142A28BF1422A4
:107A9000D3E903159208012A014438BF0122284482
:107AA000FFF758FF50B11128DFD101232372D4E72B
:107AB000D3E903021044FFF74FFFF3E7237C002BC9
:107AC000CBD10146BDE87040022000F009B800BFEC
:107AD000CC5B0020E45B0020E05B0020BC5B00206E
:107AE00038B5831E012B43D8224C237A002B3FD07C
:107AF000022B09D103282ED01F4B1B680022E26005
:107B00001A793AB1012A20D0637C6BBBBDE83840BA
:107B1000FFF796BFD3E905128D1A142D94BF5219A1
:107B200014329A619142EFD102284FF0000308BF4E
:107B300019462372104B18BF0D211868FFF70EFF6E
:107B40000E490F48FFF7D4FDDEE71A6901321A61CA
:107B50005B699A42E7E7E3680133082B01D8E360E9
:107B6000D2E70023E360DFE7BDE8384004F086BEDB
:107B700038BD00BFCC5B0020E45B0020E05B002050
:107B8000BC5B002000F0FD03012B08D1044B002258
:107B90005A74421E504250411874FFF751BF70474B
:107BA000CC5B002010B5064C201DFFF7C7FD28B99F
:107BB000637C1BB9BDE81040FFF742BF10BD00BF9A
:107BC000CC5B00202DE9F34180460D460F4801A90A
:107BD00016461F46FFF727FD0446A8B11C220021C8
:107BE00004F0A6FF2D0B0123237101A9C4F8008026
:107BF000A760E56066610548FFF73FFDFFF7D2FF2C
:107C0000002002B0BDE8F0810420FAE7BC5B002050
:107C10002DE9F74381468846104801A917461E46BC
:107C2000FFF701FD0446B0B11C22002104F080FFE3
:107C300000250A9BA36001A92571C4F80090C4E93E
:107C4000037866610548FFF718FDFFF7ABFF28468C
:107C500003B0BDE8F0830420FAE700BFBC5B00205E
:107C60000B684A684360934208BF0023016008BF65
:107C700043607047436843B10268916852680B449F
:107C80009342436004BF0023436070472DE9F04FE7
:107C9000C9B008AA01F1400514464B780E781B04C0
:107CA00043EA0663CE7833438E78043143EA0623F1
:107CB0008D4244F8043BF0D11024916B16464FEAF4
:107CC000F14383EA714383EA9123716A366852F87B
:107CD000045F31440B444FEAB54181EAF51181EA72
:107CE000D50101340B44402CD363E6D1D0E914E331
:107CF0000093836D0193C36D0293036E0393436EF0
:107D00000493836E0593C36E0693DDE9057BDDE97D
:107D1000031CDDE901592B4B009E079374464FF07D
:107D20000008079B53F8042B07934FEAF12383EADB
:107D3000B11383EA716A08AB53F828301A440AEB8E
:107D4000020327EA010A01EA0C028AEA02021A4443
:107D50004FEA743A86EA05035A448AEAB40A06EA04
:107D6000050B234083EA0B038AEAB45A08F10108A1
:107D70009A44B8F1400F02EB0903BB465244A946AE
:107D800019D172440265009A22444265019A324434
:107D90008265029A2A44C265039A1A44049B0266C9
:107DA0000B444366059B63448366069B3B44C36662
:107DB00049B0BDE8F08F674635468C4626461946E1
:107DC0001446AEE7BCCC070030B5E0B10F4A10490D
:107DD00000240025C0E91245C0E914120D4C0E4ADA
:107DE0000E4DC0E916420E4AC0E918520D4A82668D
:107DF00002F17452A2F523020023A2F69242036418
:107E0000C266184630BD0E20FCE700BF85AE67BBDA
:107E100067E6096A72F36E3C3AF54FA57F520E5140
:107E20008C68059BABD9831FF8B50446F0B10AB93D
:107E30000020F8BDD1B10D468E180027B542F7D00D
:107E4000236C15F8012BE2540133402B2364F5D148
:107E500021462046FFF71AFFD4E9123113F50073CB
:107E600041F10001C4E912312764E7E70E20E0E7A1
:107E700070B50D4616460446002877D0002975D007
:107E8000026C8021372A02F1010381544FF0000275
:107E900042D8382B3BD1D4E91223206C0821E1FBD6
:107EA0000023104612BAE2631A0A194684F83B30DE
:107EB00084F83A201A0C1B0EC4E9120184F8392008
:107EC000214684F838302046FFF7E0FE691E76B37D
:107ED0000023E26EDA4001F8012FA26EDA400A7147
:107EE000626EDA400A72226EDA400A73E26DDA409C
:107EF0000A74A26DDA400A75626DDA400A76226D64
:107F0000DA400833202B0A77E3D1002070BDE25419
:107F10000133BEE7E25401333F2BFBD92146204613
:107F2000FFF7B4FE3822002104F002FEB3E7182365
:107F3000226DDA4001F8012F626DDA400A71A26DFC
:107F4000DA400A72E26DDA400A73226EDA400A748D
:107F5000626EDA400A75A26EDA400A76E26EDA40A4
:107F6000083B13F1080F0A77E2D1CEE70E20CDE7E8
:107F7000D0E90223D1E90201994208BF90422CBF07
:107F800001200020704700002DE900480C4800F057
:107F9000C0FA0C4BD3E9002312EB000B43F1000CA9
:107FA000094BD3E900239C4508BF934558466146D9
:107FB00003D21BF180704CF10001BDE8008800BFC6
:107FC0007C590020F05B0020685C002037B5054636
:107FD0000C460A4801A9FFF726FB60B10570446012
:107FE00001A90648FFF749FB18B1054800F096FAC9
:107FF000002003B030BD0420FBE700BF545C00202C
:108000007C590020194B1B782DE9304804461BB9D8
:1080100000252846BDE830880028F9D0037F03F00A
:10802000FF05002BF4D0FFF7AFFFD4E902239942FC
:1080300008BF904215D3236903B92377D4E90530EB
:10804000984721690029E3D0237F03F0FF05002B27
:10805000DED0D4E9022312EB010B43F1000CC4E99A
:1080600002BC2146024800F02BF9D2E7F85B002061
:10807000C0CD070013B5114B1149186801900823B2
:1080800058221048FFF79AFA044698B90E4A0F484A
:1080900001A900F049F9044660B901210B4800F03C
:1080A0001BFA01230A4A0948194600F081F9094BD5
:1080B00001221A70204602B010BD00BFBCCD0700DF
:1080C000FC5B0020545C00202D8107007C590020BF
:1080D000FFFF7F00F85B00203AB103685A614A1E37
:1080E000514251411961002070470720704738B54F
:1080F000037F04460D4683B98261FFF745FF4219AD
:1081000041F10003C4E90223236903B1256121463B
:108110000020BDE83840FFF759BF002038BD0000FF
:10812000014800F0F6B900BF7C5900202DE9F04F5E
:1081300085B0074600F0D8F940B1594AD2E900317C
:1081400013F1807341F10001C2E90031002138468A
:1081500000F0D9F938B1534C236823B12068FFF7F8
:1081600051FF002323600121384600F0CCF920B1F3
:10817000FFF70AFF4C4BC3E9000103A94B48494DE7
:108180004B4C4C4EFFF789FA002845D1DFF820A16F
:10819000444CDFF828B1504600F0A8F823680028C6
:1081A00075D07BB12368D0E90201D3E9022399425B
:1081B00008BF90422DD223681B7F1BB12168504617
:1081C00000F07EF8504600F08BF8D0E902630546D7
:1081D0000193FFF7D9FE019BB6EB000863EB0109A1
:1081E000B8F1010F79F1000344DB334EB0453FD9BC
:1081F000FFF796FF82194FF496030021584600F0CE
:10820000F7F800283ED1236813B9384600F0C8F8C3
:10821000256005B0BDE8F08F0378012B1DD05BB160
:10822000022B11D14FF0000A204600F059F8002827
:1082300033D080F81CA0F7E741680B7F23B90123F6
:108240000B77204600F03CF803A91848FFF750FAD6
:1082500003A91648FFF721FA96E741682B6899426F
:1082600002D100232B60EFE7204600F042F8EBE755
:10827000AA68C0E70021584600F03BF92846FFF7FE
:10828000C1FE01E00D28F9D00023236083E7002B15
:10829000BFD1384600F088F8BBE701233370D3E73D
:1082A000F05B0020705C0020685C0020545C0020C3
:1082B000C0CD0700F85B0020FFFFB4007C59002010
:1082C00070B5446806460D46206818B1B368294663
:1082D000984718B923682B60256070BD2468F3E7C0
:1082E0004368186808B102681A60704743681868E4
:1082F00070474368186800B97047884203D1026824
:108300001A600120704703460068F4E7435882B0C2
:108310003BB10023435043580193019B012002B01D
:1083200070471846FBE7000070B5194C4379194DAA
:1083300044F8232005EBC3031B7933BB03680A8889
:10834000C3F8082590F904408B78002C4FEA4313BA
:10835000E2B2DBB214DB10490E1986F800330123B8
:10836000640902F01F0203FA02F241F82420437963
:1083700005EBC302012145F833001171002070BDE7
:1083800002F00F0205498B54F1E70820F7E700BF20
:108390007C5C0020745C002000E100E014ED00E053
:1083A000036801221A607047036801225A6070470F
:1083B00073B501F15005AD000068ADB24FF48034E3
:1083C0008C400026C0F80843C0F84843465101F5E8
:1083D000A8714559019522F07F42019D40F8212066
:1083E000C0F844430BB1C0F8044302B070BD0000B4
:1083F0002DE9F74F884699464FF48036036808F117
:1084000050058E404FEA880AAD00C3F84863ADB20C
:10841000C3F80863074603EB0A00D3F804154FF0CE
:10842000000B22F07F44D0F84025C0F8401543F8F7
:1084300005B05B590093009B531A23F07F43012B37
:108440000BD1244B4FF4806043F0010398473B6805
:1084500043F805B05B590193019B3868D0F8045587
:10846000C0F84463631B23F07F43012B1AD108F546
:10847000A878184B013440F8284043F001034FF42A
:10848000806098473B68D3F804359D4208D13B682B
:108490000020C3F84463C3F8046303B0BDE8F08F61
:1084A0000D20FAE78244C9F1FF19CAF84045D0F817
:1084B0000435E21A013A22F07F4209F57F499145DD
:1084C000EED3002AE3D10134CAF84045D0F80425A0
:1084D0009342DBE7D0CD070003680222C3F84423B0
:1084E00009B1C3F8042370474FF482710068FFF7A5
:1084F0000DBF4FF4803303FA01F10368C3F848134A
:10850000C3F8081370475031890089B20068FFF73B
:10851000FDBE0368D3F804057047000090F90430ED
:10852000002B09DB5A09012103F01F0301FA03F3B1
:108530004032024941F82230704700BF00E100E0BC
:10854000024B034A1B681068184700BF7C5C002080
:10855000745C002043689B68184708B5436808307E
:108560005A7900F074FE002008BD2DE9F0430D4655
:108570009BB0084699469046FFF7ECFF6E68747909
:108580004C4528BF4C4607462246414602A800F00B
:1085900053FE727922990AA800F059FE00970AAB9F
:1085A000224602A905F1080002F048FA002848F224
:1085B000425018BF00201BB0BDE8F0830023C0E983
:1085C00002328B881A44B1F9063002611A44C0E9BC
:1085D000001142610888003018BF012070474268CE
:1085E000118838B50346002937D0148A02F11001EA
:1085F00041602CB9C2680168FFF7E0FF204638BD32
:108600009078118900F03005302D14D1947C04F05D
:108610003004302C1BD190881969091A1961002186
:10862000908AB2F91620084419690144196111446D
:1086300059610120E3E700F0F004202C07D15089B4
:108640004143002DECD1986801309860E8E700F0D4
:10865000C000802808BF0421F3E70846CFE770B5C3
:10866000456804460E4663681A88B24204D19B7876
:1086700003F00F03082B07D12046FFF7B0FF636814
:10868000AB42F0D1002070BD0120FCE743681A44E2
:10869000426011B101399A4201D10120704713F8AB
:1086A000010B01F8010FF6E770B54568AA7802F0F2
:1086B0000F06082E86B003461FD103691C680026EA
:1086C0000CB906B070BD236862689D6826732946A0
:1086D0006846FFF773FF6368049304F10C03059386
:1086E000AB7803F0C003802B08BF231D684608BF8A
:1086F0000493FFF7D9FFA468E2E712F0C0011CD190
:1087000002F0300010280AD15A691170072EEC6867
:10871000186909D10146204600F017F8D1E7900604
:10872000F4D55B691980CCE72A89214614B104F09D
:10873000D6F9C6E704F0FCF9C3E78029C1D1006986
:10874000002192060160BCD5EBE77FB50A460146E1
:108750006846FFF733FF30B16846FFF7A5FF68466C
:10876000FFF73DFFF7E707B05DF804FB10B50368BE
:1087700001220446984710B1A368013BA36010BDD5
:1087800083682DE9F3410746884623B90026304621
:1087900002B0BDE8F0810DF10701FFF7E7FF0646E3
:1087A0000028F3D09DF80740220616D504F07F0478
:1087B0000725BB68002BE9D00DF107013846FFF70C
:1087C000D5FF0028E2D09DF8072002F07F03AB40E0
:1087D0001C43130605F1070502D4C8F80040D6E78C
:1087E000232DE6D1D2E7000030B5044685B015460A
:1087F000A9B90268114B9A4211D0102D06D82A4609
:1088000069462046FFF7F0FF05B030BD10226946EB
:108810002046FFF7E9FF0028F6D0103DEDE7A368FA
:10882000AB4201D20020EFE723682A462046984752
:108830000028F7D0A3685D1BA560E5E78D860700DB
:10884000F7B50E4601A907461546FFF799FFA8B1EF
:10885000019A0123D3184FF0000404D2B17801F03B
:10886000C001802901D1204608E031899942FAD31C
:1088700029463846FFF7B8FF019BEC5403B0F0BD22
:1088800073B50E4601A905461446FFF779FFB8B146
:10889000019BB3F5803F07D202229A1804D2B17827
:1088A00001F0C001802901D1002009E03189914205
:1088B000FAD321461A4621F8023B2846FFF794FFD7
:1088C00002B070BD10B5034C82600022C0E90041C7
:1088D000C26010BD8D8607002DE9F3470025804654
:1088E0000F462E462C46D8F8083023B30DF1070169
:1088F0004046FFF73BFFF0B19DF807C00CF07F0248
:108900005FFA82F9A4F12003C4F1200109FA03F30C
:1089100029FA01F109FA04F20B431CF0800F45EA31
:10892000020546EA030604F1070402D1C7E900562E
:1089300002E0462CD7D1002002B0BDE8F08773B525
:108940000C4669461646FFF7C7FF68B12389082B16
:108950000CD1DDE90045C6E90045DDE90023AB4265
:1089600006BFA2420120002002B070BD042B04D13A
:10897000009B33601C460025EFE7022B4FF0000000
:1089800004D1009B33809CB20546E6E7012BEBD176
:10899000009B337003F0FF04F6E737B50D466946D8
:1089A0001446FFF799FF30B12A89082ADDE9003122
:1089B00003D1C4E9003103B030BD042A18464FEAA0
:1089C000E37108D123601A460B468B4206BF8242F0
:1089D00001200020EFE7022A04D11BB223801AB243
:1089E000D317F2E7012A03D15BB223705AB2F7E73B
:1089F0000020E0E7F7B50C460021197021701160E6
:108A000001A9074615461E46FFF7BAFE30B9BB68F6
:108A100013B901233370002003B0F0BD0199002980
:108A2000F7D0CB0801F007012B602170F4E713B5F4
:108A3000044605291FD8DFE801F0030F151E1E1C90
:108A4000012201A92046FFF7CFFE18B19DF904309D
:108A5000002BF5DB02B010BD082200212046FFF7F5
:108A6000C3FEF7E701A9FFF78BFE0028F2D0019AB9
:108A7000F3E70422F1E70020ECE773B50D4601A906
:108A80000446FFF77DFE064618B90026304602B0C0
:108A900070BD94E80F0085E80F0001998A42F4D375
:108AA000A960A3685B1AA360F0E700002DE9F0431A
:108AB0005568AB7813F0C00489B006468C4617465B
:108AC00003D0402C67D000240AE003F00F025D4978
:108AD00003F03003102B51F822801BD004D8E3B1EF
:108AE000204609B0BDE8F083202B1BD0302BF7D1F6
:108AF0007B6929881980072A09D121462A89386982
:108B000004F016F87B683969D868FFF71EFE3A69E9
:108B100079683EE07B6901221A703A692946C047AC
:108B20000446DDE7BCF1020FD7F8149024D1042AE3
:108B300022D804A9FFF7A1FF04460028C3D0069B52
:108B40002BB17968B9F800304A899A4205D8059B5B
:108B50007360069B002BC3D0B5E708893A6903FB15
:108B6000002204A8C04728B1B9F800300133A9F8A1
:108B70000030E4E70446EAE7B9F800306A899A422F
:108B8000A1D929893A69581C03FB0122A9F80000E0
:108B900029463046C3E7D2F81080454655F8043BD5
:108BA00013B9FFF744FFBBE7022914D104A9FFF76B
:108BB00064FF002887D0D8F8003079682A4604A8D6
:108BC0009847044600283FF47EAF069B002BF2D165
:108BD000059B736084E701292BD04CB24CB1052969
:108BE0007FF471AF04220DEB0201FFF7FDFD0424B9
:108BF00024E00DF1040901340B2C3FF464AF012291
:108C000049463046FFF7F0FD00283FF45CAF19F904
:108C1000013B002BEFDB0C4B049301ABCDE905349A
:108C2000002307932A46D8F80030796804A89847AB
:108C300076E7082201A9FFF7D7FD08240028EAD12A
:108C400041E700BFE4CD07008D8607002DE9F04F16
:108C500091B00446002604A8CDE90266FFF7AEFCF9
:108C6000A3683BBBDDE9053404A89D78FFF7B7FC9A
:108C70000028F7D115F0300F03D1059B1B8803B1F5
:108C80000134002C00F0A9806309002202A993425C
:108C900040F09C8010AA02EB830304F01F04C4F18F
:108CA00020044FF0FF3053F8383CE040C31A5842DC
:108CB00058410DE00DF1030301AA0DF10201204618
:108CC000FFF798FE38B99DF80330002BCAD1002079
:108CD00011B0BDE8F08F019904A8FFF7C0FC00288F
:108CE00050D1019BB3427DD3059D059A937803F043
:108CF0000F03082B7FD004A8FFF771FC059B9D4252
:108D0000F3D14FF0FF36019FB7426BD3089B9DF81C
:108D10000290D4F808801D684FF0010AA368002D66
:108D20005DD098459CD12B68D3F800B0BBF1000F03
:108D300008D04B463A4629462046D8470028C6D098
:108D4000AD68EBE7D3F808B0BBF800309F42F7D12D
:108D50006A6859460AA8FFF731FC6B680E9305F163
:108D60000C030F939BF8023003F0C003802B04BF69
:108D70002B1D0E930AAA85F80CA049462046FFF742
:108D800095FEDBE7059B9B7813F0300F0FD1069A19
:108D90003F2A0CD8510910AB03EB810102F01F02EE
:108DA0000123934051F8382C134341F8383CE568CF
:108DB0002DB104AB9DF8022001992046A84704AAD2
:108DC0009DF802102046FFF771FE10E051F8225086
:108DD00001357FF47DAF013259E7012078E79845EE
:108DE0007FF43EAF9DF802102046FFF720FE0028DA
:108DF0007FF436AF6BE7168885E770B50C460646FC
:108E0000154611462046FFF7A0FC2A46214630466B
:108E1000BDE87040FFF71ABFF0B585B00C46CD68CD
:108E2000694607461646FFF728FE68B1E06858B164
:108E3000A37803F03003202B32462946684605D13B
:108E4000FFF7DBFF019B7B6005B0F0BDFFF7FEFE87
:108E5000F8E7D3B50C466946FFF73EFD80B1DDE982
:108E6000001300274A0801F0010642EAC37256EADD
:108E700007014FEA53031CBFD243DB43C4E900237D
:108E800002B0D0BD37B50D4669461446FFF7E1FF85
:108E900068B12B89082B0CD1DDE90001C4E9000180
:108EA000DDE900238B4206BF82420120002003B08F
:108EB00030BD042B03D100982060C117F0E7022BCE
:108EC00004D1BDF90000208000B2F6E7012B04D1E7
:108ED0009DF90000207040B2EFE70020E7E713B5EE
:108EE00004220C460DEB0201FFF77EFC08B1019B4A
:108EF000236002B010BD1146FFF7F1BF13B5082281
:108F00000C466946FFF770FC18B1DDE90023C4E99F
:108F1000002302B010BD1146FFF7F0BF044B1A5CEE
:108F2000012393404FF0A042C2F80C35704700BFB8
:108F300008CE0700044B1A5C012393404FF0A04277
:108F4000C2F80835704700BF08CE070008B50020FA
:108F5000FFF7F0FF0120FFF7EDFF0220FFF7EAFF28
:108F60000320BDE80840FFF7E5BFC20708B501468A
:108F70000CD54FF0A0430322C3F84427C3F8482779
:108F8000C3F84C27C3F85027FFF7E0FF8B070AD53B
:108F90004FF0A0430C22C3F83427C3F83827C3F896
:108FA0003C27C3F8402708BD024AD2F80034002B02
:108FB000FBD0704700E001400A4908B50223C1F820
:108FC0000435BFF36F8FBFF34F8FC1F80805FFF76C
:108FD000EBFF0023C1F80435BFF36F8FBFF34F8F52
:108FE00008BD00BF00E0014010B5094C0123C4F8E2
:108FF0000435BFF36F8FBFF34F8F0160FFF7D4FFCE
:109000000023C4F80435BFF36F8FBFF34F8F10BD3B
:1090100000E001400E4B10B50124C3F80445BFF336
:109020006F8FBFF34F8F01EB8204401AA14208D12A
:10903000074B0022C3F80425BFF36F8FBFF34F8F98
:1090400010BD431851F8042B1A60FFF7ADFFEDE790
:1090500000E0014028B139B10023C1E900301846D1
:10906000704748F21050704748F21350704730B1C3
:10907000036848F240508B4208BF0020704748F216
:109080001050704728B148F21150914208BF00209B
:10909000704748F21050704770B506460C461D46A2
:1090A000FFF7D8FF50B9B3794AB1AB420AD11146A4
:1090B0002046FFF752FA08B9044B236070BD48F20E
:1090C0001050FBE748F21150F8E700BF7052464DD0
:1090D0002DE9F0470C4607460F49204615469846AD
:1090E000DDE90869FFF7C3FF98B963685A79494613
:1090F00052003046FFF7C6FF58B945B108964346BF
:109100002A4621463846BDE8F047FFF72EBA48F216
:109110001050BDE8F08700BF7052464D10B50446B0
:1091200038B149B141600B68984708B9044B2360D6
:1091300010BD48F20150FBE748F21050F8E700BFBD
:109140006E524648F0B448B107680A4EB74209D19A
:1091500059B16AB14368F0BC5B68184748F20150E6
:10916000F0BC704748F20250FAE748F21050F7E7B7
:109170001046F5E76E524648F0B460B107680C4EF1
:10918000B7420CD171B143681568DC68A5420CD3B5
:109190009B68F0BC184748F20150F0BC704748F299
:1091A0000250FAE748F21350F7E748F21450F4E798
:1091B0006E5246482DE9F041044617469846DDE9CF
:1091C0000656FFF7ABFF60B9424639462046FFF727
:1091D000B9FF30B9324629462046BDE8F041FFF7D5
:1091E000CBBFBDE8F0810000F8B50A4F0A4C0B4D2B
:1091F000E41B0121E40829700026A64203D10223C2
:109200002B700020F8BD57F8363098470028F9D168
:109210000136F2E7F8CB0700F8CB0700805C0020AE
:1092200001390144814200D2704703780A7800F87E
:10923000012B01F80139F5E7013A02440139824274
:1092400000D2704711F8013F02F80139F7E770B515
:1092500016460D46FFF7F0FF3246A9193044BDE827
:109260007040FFF7E9BF38B50D460446FFF7D8FF59
:1092700029466019BDE83840FFF7D2BFBFF34F8FD2
:109280000549064BCA6802F4E0621343CB60BFF3A2
:109290004F8F00BFFDE700BF00ED00E00400FA05BE
:1092A00008B50020FFF73AFE002210210248BDE871
:1092B0000840FEF71CBF00BFC85C002008B50020B6
:1092C000FFF72CFE034A04481021BDE80840FEF7D2
:1092D0000EBF00BFE85C0020C85C002008B507286E
:1092E0000BD8DFE800F0040B0A0A0A040A04012084
:1092F000FFF73BFE034B01221A7008BD014B02220F
:10930000FAE700BFE85C002010B504460020FFF734
:1093100011FE54B12378012B07D9002240F2666177
:109320000248BDE81040FEF7E2BE10BDA85C002078
:1093300008B5FFF7A3FF08B5FFF7A0FF4FF0804384
:1093400010B50124C3F8784501F058FF4FF480515F
:10935000002001F0F4FC08B1FFF790FF1548C0F5BC
:10936000FC2101F0ECFC0028F6D1FEF783FE00287A
:10937000F2D1114B114A12481C702146FEF7ACFE87
:1093800001460028E8D10F4A0F48FEF7A5FE014626
:109390000028E1D10D4A0E48FEF79EFE0246002845
:1093A000DAD14FF440410B48FEF7A1FE0A4800F025
:1093B00083F8D1E700700700E85C0020BD92070049
:1093C0004CCE07000993070054CE0700A192070076
:1093D00050CE0700885C0020DD92070030B53AB11E
:1093E0001368DB430B4C0144884204D1D84330BDA1
:1093F0004FF0FF33F6E710F8012B5340082213F02B
:10940000010F14BF25460025013A85EA5303F6D122
:10941000EAE700BF2083B8ED41DF7047014B01222E
:109420001A7070470C610020BFF34F8F0549064B3F
:10943000CA6802F4E0621343CB60BFF34F8F00BFF2
:10944000FDE700BF00ED00E00400FA05024B034811
:1094500000221A7002F08EBF0C61002029940700D0
:10946000831E10B50446052B09D8DFE803F0160368
:1094700003080F0F0B494FF4F00001F091FD0A4B68
:109480001B686BB12046BDE810401847074B0848E1
:1094900000221A7002F06EFFF1E702F0B3FEEEE771
:1094A00010BD00BF4D940700106100200C6100202A
:1094B0002994070000207047534B544A10B5186098
:1094C0004FF0A0430020C3F8402702F069FF044694
:1094D00050B901F03DFE012800F08D8010F0FF0F23
:1094E00004D0022800F08D80032010BD4FF080438F
:1094F000D3F80024D40334D54FF48032C3F80024C9
:10950000434C236A012B3DD04FF4F00401F0B6FE2A
:10951000404A20211820FDF75BFF08B1FFF70BFF41
:109520003D4B1A6802F0F802B02A06D11A68D20739
:1095300042BF1A6802F04E021A60FFF7BBFF002814
:10954000D2D12046354901F02BFD354802F03CF8D8
:109550000028C9D101F0B8FEFDF7C4FFFFF75CFF9A
:10956000F8E7D3F8202502F0F802A82AC8D1D3F8EA
:109570002025D00742BFD3F8202502F05602C3F8B9
:109580002025BDE743F204031A68264B9A421ED0F9
:1095900002F0B6FF94F8A132A269012B014624D152
:1095A0004FF0A043D3F81035D903ADD51A4B1B6843
:1095B00013F0B10FA8D102F04FFF002894D11A4B3D
:1095C00018701A4802F0D6FE01F0A4FB8CE794F85C
:1095D0006032626B012BDBD04FF4805104F51870C0
:1095E00000F05AFA0028D3D18EE7114800F054FA5F
:1095F0000028D5D188E70C4B0E481C7002F0BAFE4B
:1096000072E74FF4A02481E7106100200C000300F2
:10961000447D0020EC5C00201C0500404D940700B8
:1096200061940700DBE5B1510C6100201D94070037
:10963000E57F00202994070090F8552012F0FB0FD9
:1096400007D190F8643023B1836ECBB10B60012059
:10965000704712F0010303D090F8563003B1836DC8
:109660009207F2D590F85C20002AEED0054A006EF1
:10967000C2F5FC22904201D80344E6E7042070477B
:109680000F207047007007005B68DA680D4B9A4244
:1096900030B508D10C490A6812B90C4A14681CB1DB
:1096A0000B4B00221A7030BDD0E901341C4413F971
:1096B000015B002DA4EB0300F9DB0B601060044B91
:1096C0000122EFE7C0CF07003C6100203861002095
:1096D0004061002043F2040310B5194A1C6894420B
:1096E00001462BD042F20403C358981A4342434127
:1096F0009442184621D142F20403CB58A3421CD114
:109700004FF4405301F500521B781278142B81BF9F
:1097100043F214030B481B68B3FBF0F398BF00231C
:10972000142A89BF42F2140200208858054A88BFD3
:10973000B0FBF2F0181A18BF012010BD0023D7E7C4
:10974000DBE5B15140420F002DE9FF472F49304D75
:109750008A6B304C304FDFF8D490DFF8D4A06E46DF
:109760005C313046FFF7AEF896E80F0085E80F0051
:1097700000212A4B39704FF447722046C9F8001077
:10978000CAF80010EB6003F0D3F9224624492846BA
:10979000FFF733FB20B90027384604B0BDE8F08757
:1097A0003F78002FF7D094F86C3194F800801BB309
:1097B000B8F1000FEFD194F87231002BEBD0DAF84A
:1097C0000020D9F800103046FFF77CF896E80F002B
:1097D00085E80F004FF4B272414604F5BA7003F009
:1097E000A7F904F5BA720F492846FFF706FB0028CF
:1097F000D1D004F5BA7406E0B8F1000FCBD0A3794C
:10980000002BC8D00834084B1C60C5E7447D0020FD
:1098100060640020446100204061002089960700B8
:1098200074D00700C0CF07001C6500203C610020F9
:109830003861002000B591B0FFF7D6FC68462022C1
:109840000749FFF704FD6A46402306490648FFF72B
:1098500023FC064B01221A7011B05DF804FB00BF17
:109860000CCE070070640020D8CD070014610020E2
:10987000F0B5ABB004460E4617461D4678222023AD
:1098800000210CA8039303F053F9114B1B780BB97B
:10989000FFF7D0FF2DB12146202204A8FFF7CCFC12
:1098A00004AC03AB0B4D019300953B4632460A498D
:1098B0000CA8FFF77FFC48B920222146284603F078
:1098C000D3F8B0FA80F040092BB0F0BD0020FBE7E0
:1098D000146100201561002018CF0700F0B5A3B077
:1098E00006460F4615461C4678222023002104A870
:1098F000029303F01DF900230393194B1B780BB956
:10990000FFF798FF2FB336BB02AB164E01930096BC
:10991000289B1549224604A8FFF74CFCE8B9402DC6
:109920001BD1124C2A463946204603F0D8F8202194
:109930002046FFF798FCCDE90045029B0C493246D2
:1099400003A8FFF7C5FB00280CBF0120052023B0AA
:10995000F0BD1320FBE71620F9E70A20F7E700BF68
:1099600014610020B864002018CF0700D8640020DC
:109970007064002008B5044B986B08B1FFF7E4FE53
:10998000024B187008BD00BF447D00201865002000
:1099900010B5044658B1B0F5007F0AD8064B002236
:1099A0001A7002F00BFD054B01209C6310BD0320D3
:1099B000FCE70420FAE700BF18650020447D002082
:1099C00070B50E4C0646E06BA36B42189A420D46EA
:1099D00011D85C300A462044314603F080F8E36B2E
:1099E00004F140022B4429463046E363FFF7F6FCBE
:1099F0002064012070BD0320FCE700BF447D0020EF
:109A0000014B1878704700BF186500201D4BD3E943
:109A10000E329A422DE9F04107460D462ED1DFF86D
:109A20006C8098F800604EB102F080FD164B3860F3
:109A300029461868BDE8F041FFF7FEBDFFF784FE38
:109A4000F0B1114B3E6029462E601868FFF7F4FD17
:109A5000012804460FD1034632463146286802F0F9
:109A600079FD38B902F062FD88F800403860204680
:109A7000BDE8F081042402F0A1FCF8E70824F6E731
:109A80000524F4E7447D00201C65002018650020B3
:109A900001237230FFF7ECBE037837B50D4611464F
:109AA000032B03D8DFE803F022051019002003B0D0
:109AB00030BDD0F8014000222846FFF78FFC8442D9
:109AC00014BF00200120F2E70A4600232946013096
:109AD00003B0BDE83040FFF7CBBE00912B46411CE0
:109AE00040220020FFF7FAFE0128E9E70120DEE727
:109AF0002DE9F041A2B004460D469046002178229F
:109B00001F4604A820239DF8A460039303F010F8D7
:109B100041220021204603F00BF8B5F8943043456C
:109B200082BF442303FB085393F896602670032EEC
:109B30001ED8DFE806F00902111F002228993846D6
:109B4000FFF74CFCC4F80100289A39462046FFF77D
:109B5000A3FF22B0BDE8F08103AB0193631C009327
:109B60003A46289B094904A8FFF724FB0028EBD0BC
:109B70000020EEE7442101FB08F16B189A31B3F89D
:109B800098202944601C02F0AAFFDDE718CF0700E7
:109B90002DE9F047704B1D68A4B004460F4690466F
:109BA0000A4601462846FFF773FF002800F0D280DE
:109BB00095F8556056BB4FF00109CDE90079234671
:109BC0003246294613A8FFF793FF38B90525B8F1A7
:109BD000000F40F0B78002F0F1FB76E0B8F1000F23
:109BE00070D0412213A95D4802F079FF5C4B6A688E
:109BF000C3F82C901E629A60002239462046FFF777
:109C0000EDFB574B0125C3E909709EE0412200217D
:109C100002A802F08DFF06F001094122002113A8DD
:109C200006F0020602F084FFB9F1000F51D042F2B3
:109C30000403E15803F1A34303F5471303F2D75399
:109C40009942C3D1D5F858A00AF5FF530AF6FF721E
:109C5000C2F30B021F339B1A42F20802A2589A4227
:109C6000B4D343F204031B688B4213D14FF4405327
:109C70001B78102B8ABF43F2100300221A6804F5E8
:109C800000531B78102B8ABF42F210030023E358C5
:109C90009A429BD12046FFF71DFD08B1002E95D0BA
:109CA0000123CDE900A300222346294602A8FFF79D
:109CB0001FFF00288AD0AA6DA318BA1A66B9B8F196
:109CC000000F14D1264B01255D61284624B0BDE864
:109CD000F0873A462346F1E70021CDE9002113A899
:109CE0004A462946FFF704FF0028E8D16EE7DFF86F
:109CF0007080B9F1000F21D02046FFF7EBFC18B1BE
:109D000008F1180002F0F0FB412202A9154802F008
:109D1000E6FE002E14BFAC23A523C8F82C30AB6D93
:109D2000C8F83430002E3FF467AF412213A90E4823
:109D300002F0D5FE6B68C8F80C305DE7AA23C8F8BE
:109D40002C30EFE7094802F0CFFB02F037FB044B61
:109D50009C64BAE717253AE71C650020E57F0020E0
:109D6000447D0020A47F002026800020687D002004
:109D70000122FFF70DBF8B1802448B4200D17047C0
:109D800013F8010D02F8010DF7E7000000000000D4
:109D9000C3F10803DB0070B50133002403A500BF45
:109DA0005B1920C940CAAD1920C0184720C940CA54
:109DB000754120C020C940CA754120C020C940CA91
:109DC000754120C020C940CA754120C020C940CA81
:109DD000754120C020C940CA754120C020C940CA71
:109DE000754120C06441204670BD00BF00000000E6
:109DF000C3F10803DB0070B50133002403A500BFE5
:109E00005B1920C940CAAD1B20C0184720C940CAF1
:109E1000B54120C020C940CAB54120C020C940CAB0
:109E2000B54120C020C940CAB54120C020C940CAA0
:109E3000B54120C020C940CAB54120C020C940CA90
:109E4000B54120C06441B4FA84F0400970BD00BF40
:109E50002DE9F04F08B4F8CA04B451F8042BA3FB61
:109E6000028940F8048B4FF0000AE4FB629A4FF03D
:109E7000000BE5FB62AB4FF0000CE6FB62BC4FF061
:109E8000000EE7FB62CE51F8042B4FF00008E3FB15
:109E9000628940F8048BE4FB629AE5FB62ABE6FB67
:109EA00062BCE7FB62CE51F8042B4FF00008E3FBE5
:109EB000628940F8048BE4FB629AE5FB62ABE6FB47
:109EC00062BCE7FB62CE51F8042B4FF00008E3FBC5
:109ED000628940F8048BE4FB629AE5FB62ABE6FB27
:109EE00062BCE7FB62CE51F8042B4FF00008E3FBA5
:109EF000628940F8048BE4FB629AE5FB62ABE6FB07
:109F000062BCE7FB62CE40F8049B40F804AB40F82B
:109F100004BB40F804CB40F804EB0CBC052B00F06C
:109F20001E810C68A0F11400A1F11401A2F1140229
:109F300052F804EB4FF0000550F8046BE4FB6E564A
:109F400052F804EB50F8047BE4FB6E6752F804EB24
:109F500050F8048BE4FB6E7852F804EB50F8049B45
:109F6000E4FB6E8952F804EB50F804ABE4FB6E9A04
:109F7000A0F1140052F8044B51F804EB4FF0000C20
:109F8000E4FB6EC540F804CB51F804EBE4FB6E56DD
:109F900040F8045B51F804EBE4FB6E6740F8046B97
:109FA00051F804EBE4FB6E7840F8047B51F804EBC5
:109FB000E4FB6E8940F8048B51F804EBE4FB6E9AE5
:109FC000A0E80006062B00F0CA800C68A0F118007B
:109FD000A1F11801A2F1180252F804EB4FF00005AC
:109FE00050F8046BE4FB6E5652F804EB50F8047B17
:109FF000E4FB6E6752F804EB50F8048BE4FB6E78D8
:10A0000052F804EB50F8049BE4FB6E8952F804EB21
:10A0100050F804ABE4FB6E9A52F804EB50F804BB22
:10A02000E4FB6EABA0F1180052F8044B51F804EBBE
:10A030004FF0000CE4FB6EC540F804CB51F804EB84
:10A04000E4FB6E5640F8045B51F804EBE4FB6E67EA
:10A0500040F8046B51F804EBE4FB6E7840F8047BA5
:10A0600051F804EBE4FB6E8940F8048B51F804EBE3
:10A07000E4FB6E9A40F8049B51F804EBE4FB6EABF2
:10A08000A0E8000C072B6AD008B40C68A0F11C00F3
:10A09000A1F11C01A2F11C0252F804EB4FF00005E3
:10A0A00050F8046BE4FB6E5652F804EB50F8047B56
:10A0B000E4FB6E6752F804EB50F8048BE4FB6E7817
:10A0C00052F804EB50F8049BE4FB6E8952F804EB61
:10A0D00050F804ABE4FB6E9A52F804EB50F804BB62
:10A0E000E4FB6EAB52F804EB50F804CBE4FB6EBC1F
:10A0F000A0F11C0052F8044B51F804EB4FF00003A0
:10A10000E4FB6E3540F8043B51F804EBE4FB6E567B
:10A1100040F8045B51F804EBE4FB6E6740F8046B15
:10A1200051F804EBE4FB6E7840F8047B51F804EB43
:10A13000E4FB6E8940F8048B51F804EBE4FB6E9A63
:10A1400040F8049B51F804EBE4FB6EAB40F804AB21
:10A1500051F804EBE4FB6EBCA0E8001808BCBDE8B5
:10A16000F08F002310B51C465AB2914200DC10BD9E
:10A1700040F823400133F7E710B500231A465CB2DC
:10A18000A14203DCB2FA82F0400910BD50F823402E
:10A1900001332243F3E74A11012350F8220001F072
:10A1A0001F0103FA01F108407047013910B549B2A7
:10A1B000041D0A06CBB204D4013954F82120002A28
:10A1C000F7D001335BB273B103F18042013A50F82A
:10A1D0002220002022B9013B00EB431318B210BD2E
:10A1E00052080130F6E71846F9E710B500235CB2D3
:10A1F000A24200DC10BD51F8234040F82340013357
:10A20000F5E710B5013A52B2130601D5002010BD92
:10A2100050F8224051F822309C4205D802F1FF321A
:10A22000F2D24FF0FF30F2E70120F0E700EB8101BE
:10A230000023884200D3704751F8042D43EA5203AB
:10A240000B60D307F5E770B59DF910401E46234615
:10A250000546FFF79DFD30B9224629463046FFF7F7
:10A26000D0FF012807D02346324629462846BDE8BC
:10A270007040FFF7BDBD70BD70B59DF910401E4622
:10A2800023460546FFF7B4FD38B12346324629463A
:10A290002846BDE87040FFF77BBD70BD2DE9F04F4B
:10A2A000B5B004AC9DF9F8501F4681462B462046B8
:10A2B000FFF7CEFD24AB29463846CDE90234FFF73F
:10A2C00074FFC0EB851004B2002C2646B8BF04F121
:10A2D0001F06634246F3471603F01F0304F01F08EE
:10A2E00014A858BFC3F100083146FFF73AFFB8F190
:10A2F000000F30B22DDD14AB002203EB8000C8F15B
:10A30000200C1346AB4219D32FB27B00019314AB40
:10A3100003EB870705F1FF3834AB012603EB880810
:10A32000002C54DA34AB03EB86062A4656F8C81CD8
:10A330004846FFF75AFF35B0BDE8F08F57F8236065
:10A3400006FA08F10A4340F8042B013326FA0CF20E
:10A35000D8E714AB2A46394603EB8000FFF745FFE8
:10A36000D2E70FFA82FE5AF8C83C53F82EB034AB4D
:10A3700003EB8202013052F8803C0B44BBEB030339
:10A3800034BF012200229B4518BF11465CF8C82C3F
:10A3900042F82E30019B42B29A42E2DB731A5E42CF
:10A3A000294614A85E41FFF741FF34AB03EB850358
:10A3B000294653F8802C58F8803C384643EAC2734B
:10A3C000013C48F8803C24B2FFF730FFA8E734ABEB
:10A3D0000020C6F1010C014603EB860A03EB8C0C4E
:10A3E000D8E730B51C4691B0054693F90030684671
:10A3F000FFF72EFDD4F8AC3069462846984711B0D7
:10A4000030BD13460A46FFF7ECBF2DE9F04793F93C
:10A41000006092B00446894610463146154698467B
:10A42000FFF7AAFE002840F091804246494602A864
:10A43000FFF7E7FF434602AA21460AA8FFF7D1FF2C
:10A4400002A908464246FFF7DCFF43462A46494632
:10A450004846FFF7C6FF08F104074246294628464A
:10A46000FFF7CFFF3B462A46214620460096FFF7DE
:10A47000EAFE3B462A46294628460096FFF7E3FEB9
:10A480003B462A46214628460096FFF7F5FE4346FE
:10A490002A4621462046FFF7A4FF3B462246214696
:10A4A00028460096FFF7CFFE3B4600962A462146F7
:10A4B0002046FFF7C8FE2368DB074AD533463A46F5
:10A4C00021462046FFF764FC314682462046FFF7CE
:10A4D000ADFE06F18043013B54F8230040EACA7008
:10A4E00044F82300424621462846FFF78AFF3B46B0
:10A4F0000AAA294628460096FFF7BEFE3B460AAA4E
:10A50000294628460096FFF7B7FE0AA908463B46AB
:10A510002A460096FFF7B0FE43460AAA2146204687
:10A52000FFF75FFF02AA3B46104621460096FFF761
:10A53000A3FE324629462046FFF757FE49462846E5
:10A54000FFF753FE02A94846FFF74FFE12B0BDE8E1
:10A55000F08731462046FFF769FEC3E72DE9F04159
:10A5600015468AB0044688461C22002103A802F042
:10A57000DFFA2E1D95F9007003232A464146204636
:10A580000293FFF73EFF334602AA2146204600977A
:10A59000FFF772FE2B46424621462046FFF721FF79
:10A5A0000097334605F1840221462046FFF74BFE13
:10A5B0000AB0BDE8F0810000F0B5082289B00C4671
:10A5C0000646FFF712FECB6A03930B6B04934B6BAB
:10A5D00005938B6B0693CB6B0793002708236A4682
:10A5E00069466846CDE901770097FFF7D1FB08235C
:10A5F00005466A4631463046FFF7CAFB236B039394
:10A60000636B0493A36B0593E36B0544CDE90637B5
:10A610006A46082369466846FFF7BAFB08230544E3
:10A620006A4631463046FFF7B3FB236A0093636AFC
:10A630000193A36A0293A36B0693E36B079305440C
:10A6400008236A4631463046CDE904770397FFF781
:10A650009FFB636A0093A36AA26B0193E36A029370
:10A660000492636BE26B0393CDE90523236A07939E
:10A67000054408236A4631463046FFF789FBE36A02
:10A680000093236B0193636B0293236A0693A36A7F
:10A690000793054408236A4631463046CDE90477DE
:10A6A0000397FFF7A5FB236B0093636B0193A36BE9
:10A6B0000293E36B0393636A0693E36A07932D1A8D
:10A6C00008236A4631463046CDE90477FFF790FB10
:10A6D000636B0093A36B0193E36B0293236A039371
:10A6E000636A0493A36ACDE90537236B07932D1A98
:10A6F00008236A4631463046FFF77AFBA36B009386
:10A70000E36BCDE90137636A0393A36A0493E36AB9
:10A71000CDE90537636B07932D1A08236A46314646
:10A720003046FFF765FB2D1A0D4C0FD435B90822C2
:10A7300031462046FFF765FD01280FD00823224649
:10A7400031463046FFF754FB2D1AEFE70823224627
:10A7500031463046FFF71CFB2D18F7D409B0F0BD89
:10A760005CCE0700F0B5154689B01C4607460E467C
:10A770001A4629466846FFF744FE23466A4639468C
:10A780003846FFF72EFE23462A4669466846FFF7FD
:10A7900028FE23466A4631463046FFF722FE09B0BE
:10A7A000F0BD2DE9F0438BB01446129D15F9046BF2
:10A7B00000961F46804689462B460246214602A83F
:10A7C000FFF75AFD02A9129A0846FFF71AFE129BDC
:10A7D00002AA41464046FFF704FE129B02AA214608
:10A7E0002046FFF7FEFD2B464A463946384600967E
:10A7F000FFF742FD129A394602A8FFF702FE02A9AE
:10A800002B46424608460096FFF736FD02A92B4626
:10A81000224608460096FFF72FFD2B46424621466A
:10A8200020460096FFF728FD129B224649464846DF
:10A83000FFF7D7FD2B4602AA414620460096FFF7B8
:10A840001BFD129B224639463846FFF7CAFD2B46B0
:10A850004A46394638460096FFF70EFD324602A9B1
:10A860002046FFF7C2FC0BB0BDE8F0832DE9F047AE
:10A870001F46B3F90230894613F11F0148BF03F1A7
:10A880003E014D11D91D48BF03F10E01CC10944279
:10A890004FFA85F828BF144641460646FFF761FC8B
:10A8A00022464946FFF767FAB7F90220E4009442CE
:10A8B0001FD9A41A06EB85010022C4F120058E429F
:10A8C0000ED32437424631463846FFF79AFC01281A
:10A8D0000FD043463A463046BDE8F047FFF788BA06
:10A8E00051F8040D20FA04F313430B6000FA05F24B
:10A8F000E5E7BDE8F087036870B513F0010506468B
:10A90000144605D013460A460146FFF741FA0546AC
:10A9100021463046FFF78AFC45B104F18042013AF6
:10A9200056F8223043F0004346F8223070BDF0B5AF
:10A930000F46A1B006461946384615461C46FFF795
:10A940001BFC20B13046FFF70CFC21B0F0BD2246C5
:10A9500039466846FFF749FC294608A8FFF745FC39
:10A9600010A82146FFF7FDFB012318A81093FFF75D
:10A97000F8FB224608A96846FFF743FC28B922469F
:10A9800010A93046FFF731FCDFE7009BDA0709D456
:10A9900021466846FFF74AFC2246294610A8FFF7E1
:10A9A000AAFFE6E7089BDB0707D4214608A8FFF7C4
:10A9B0003DFC2246294618A8F1E7002823461CDD65
:10A9C00008AA69466846FFF713FA21466846FFF76A
:10A9D0002DFC224618A910A8FFF713FC002805DA61
:10A9E00010A923462A460846FFF7D2F910A92346A4
:10A9F00018AA0846FFF7FCF9CEE708A96A460846F8
:10AA0000FFF7F6F9214608A8FFF710FC224610A927
:10AA100018A8FFF7F6FB002805DA18A923462A46EE
:10AA20000846FFF7B5F918A9234610AA0846FFF70C
:10AA3000DFF9BEE70048704758CE07002DE9F04F18
:10AA4000EDB01F46769E0490B6F9023096F90040AC
:10AA500013F11F0948BF03F13E0949F3471909F1F2
:10AA6000FF3824AB002543F828506CAB03EB880378
:10AA70004CA88A469346394696F9012043F8805CF3
:10AA800043F8605CFFF777F996F9012054A8B918EC
:10AA9000FFF771F921464CA8FFF76EFB0746002827
:10AAA00040F02D8154A8FFF767FB0290002840F08A
:10AAB000288106F124034A464CA918460393FFF760
:10AAC000A0FB012840F01F814A4654A90398FFF7D4
:10AAD00098FB0128069040F016811CAD0CAF4B4648
:10AAE000039A54A92846FFF722FF029B47F8283013
:10AAF0005A46514638463346FFF7B8FE394638467F
:10AB0000039BCDF800902A46FFF7C8FB0DF5B878F7
:10AB1000039BCDF800902A464CA914A8FFF7BEFB72
:10AB2000224640460499FFF760FBA30008EB030AA6
:10AB30000793049BA100591806F1440B5046FFF7F8
:10AB400054FB594634A8FFF750FBA3000BEB03015D
:10AB50003CA8FFF74AFB331D414634AA284600941F
:10AB60000593FFF789FB534642463CA934A800965B
:10AB7000FFF717FE2346321D29462846FFF7D7FE6A
:10AB80002A46514640463346FFF7ECFD029BCDE98D
:10AB9000083B049B49463846CDE90A38FFF705FBD8
:10ABA0004946804614A8FFF700FB8045B8BF8046A1
:10ABB0001FFA88F808F1FF3B0FFA8BFB594638461D
:10ABC000FFF7E9FA5946071C14A818BF0127FFF739
:10ABD000E2FA002814BF022300231F430DF1200ACC
:10ABE00022465AF8277024A83946FFF7FEFA0DF1DD
:10ABF000B00BA300F9185846FFF7F7FA214628468C
:10AC0000FFF7AFFAA8F10208069B2B600FFA88F84D
:10AC10000DF1900AB8F1000F23DA2346059A294670
:10AC20002846FFF784FE33462A4659465046FFF72A
:10AC300099FD4A4651460398FFF7E3FA012804D0EC
:10AC40004B46039A5046FFF7D3F8013C64B24CAA36
:10AC500023064AD5029BB3FA83F040096DB0BDE8E4
:10AC6000F08F33462A46D6F8A47059465046B84766
:10AC700041460CA8FFF78FFA4146071C14A818BFDD
:10AC80000127FFF788FA002814BF022300231F437F
:10AC900008AB53F827701FB32246394634A8FFF794
:10ACA000A4FA079B3CA8F918FFF79FFA33462A46F7
:10ACB0003CA934A8FFF756FD059B009434AA5146E1
:10ACC00044A8FFF7D9FA5B4652463CA934A800963F
:10ACD000FFF767FD334644AA29462846FFF781FB64
:10ACE00008F1FF380FFA88F894E752F824105AF860
:10ACF00024304B40029919430291013CA8E72846B1
:10AD0000ACE73846AAE70298A8E7007800F001000F
:10AD10007047000008B5074B4FF0FF32C3F88020A2
:10AD2000C3F8802101F092F84FF48050BDE808404C
:10AD300000F032B800E100E080F308880847C1F372
:10AD40000B0330B52BBBB0F5FE2F22D8000B013919
:10AD500000EB113101254FF08042814201D20020E9
:10AD600030BD00F01F03440905FA03F3032C05D896
:10AD7000DFE804F00206090CC2F800360130ECE707
:10AD8000C2F80436FAE7C2F81036F7E7C2F814360C
:10AD9000F4E70720E4E7000010B504461448C0F5C6
:10ADA000FE21FFF7CCFF08B1FEF7C5FA01F0A8FBC2
:10ADB000104B996901F6FF7121F47F6121F00F01B9
:10ADC00001440020FFF7BBFF08B1FEF7B4FAEFF330
:10ADD00005830023D4E9000183F3148883F31088EA
:10ADE00083F3118883F31388BDE81040FFF7A4BFF5
:10ADF00000700700447D002037B56FF07F42154C8E
:10AE0000057BD4F804358A4228BF0A46891A1344C0
:10AE10004A1E942A23F07F4305F5A8729BBF963BF8
:10AE200096314160416044F822300B4B4FF4F8609A
:10AE300043F001039847094BAA00134400221A600B
:10AE40001B680193019B4FF48033AB40C4F804337B
:10AE500003B030BD0040024010CF07004041024027
:10AE600018490A7884B0002A29D14FF08043A020E5
:10AE7000D3F81834DB035EBF134B01221A60134A68
:10AE80000023136012680392039A114A1360126838
:10AE90000292029A0F4A136012680192019A0E4AB6
:10AEA00082F82403102050600C4A0D48C2F808357F
:10AEB0000123036002201360C2F804030B7004B086
:10AEC000704700BF24650020080000400041024098
:10AED000404102404441024000E100E000400240A5
:10AEE00008400240284B1A6813B542B127490A6846
:10AEF00001320A6000221A601B680093009B244BF9
:10AF00001A68A2B100221A6022481B68027B0193D2
:10AF1000019B4FF4803393401F4AC2F808334168C5
:10AF2000044601BB8168D9B9236803B198471B4B1C
:10AF30001A6832B300221A6016481B68027F019318
:10AF4000019B4FF480339340134AC2F808334169A0
:10AF5000044659B1103002B0BDE81040FFF74CBFB5
:10AF6000FFF74AFFE0E7FFF747FFE0E7816911B12C
:10AF70001030FFF741FF23691BB102B0BDE810405C
:10AF8000184702B010BD00BF0441024020650020F8
:10AF900040410240845900200040024044410240A8
:10AFA00070B50B4B1C68227B4FF480339340094AE9
:10AFB0000E46C2F80833054640B1FFF751FF266040
:10AFC00029462046BDE87040FFF716BF70BD00BFA0
:10AFD000A45900200040024070B5074B1C6805468C
:10AFE0000E46A060FFF73CFF266029462046BDE8DC
:10AFF0007040FFF701BF00BFA8590020014B01229C
:10B000001A7070472565002070B5154DEA6A6E6AA2
:10B01000AC6CAC2A13D16B6B1C44F61AEB6AAC2BEC
:10B0200013D0324621460F4801F01EFDA8B100F0B2
:10B030004BF931462046BDE8704000F0E9BE002CD7
:10B04000ECD101F073FA0446E8E73246A4F58041FA
:10B05000044801F009FD0028E3D1002070BD00BFC5
:10B06000447D0020007007002DE9F74F8046894697
:10B07000A9EB0804240B02F6FF76154600F0FEF853
:10B08000082C28BF08242303DFF860B00193360B97
:10B090000DB92B4626E0B4422CBFB246A2464FF073
:10B0A0000002514640462CBF2F46019F00F098FEFB
:10B0B0000346B8B9FA1C22F003024946404600F0A4
:10B0C00081FE034670B9DBF83030ED1BB844B9445B
:10B0D0001F44CBF8307001F053F9A6EB0A06034683
:10B0E0000028D5D0184603B0BDE8F08F447D00207D
:10B0F00010B501F02BFA154A42F20403916CCC58BA
:10B1000003F1A34303F5471303F2D7539C4218D12D
:10B11000D2E90C32934216D0884204D10020BDE817
:10B12000104001F02DB9D21A02F6FF7222F47F62AC
:10B1300022F00F0219441844FFF796FF0028EDD0C3
:10B1400010BD0320FCE70020FAE700BF447D00208B
:10B1500070B5264CE36AA52B33D003D8012B0BD056
:10B16000002070BDAA2B30D0AC2BF9D1FFF7C0FF67
:10B1700048BBFFF749FF26E0A66C656A01F0C0F9FD
:10B18000864229D101F0BCF900222946FEF726F9B2
:10B19000A36A984202BF0123C4E90703A561002501
:10B1A000134801F0A1F9134B134800221A7001F063
:10B1B000E7F868B975B1236A012B14BF012002209A
:10B1C000CFE7FFF795FF0125EAE7FFF71DFFE6E769
:10B1D0000320C6E70120C4E7236BEA1AF1181844DC
:10B1E000FFF742FF0028DAD1CCE700BF447D002002
:10B1F000687D002025650020FDAF070040F6F8704F
:10B2000008B50368013302D10749FDF7EDFE40F6AA
:10B21000FC700368013305D14FF4FC21BDE8084000
:10B22000FDF7E2BE08BD00BF007007000A4AD2F871
:10B2300000347BB109480023D2F80815D940C9076A
:10B2400048BF03F5C07103F1010348BF42F8210074
:10B25000072BF1D1704700BF000001403546526E08
:10B26000FFF7E4BF044B002282B01A601B68019311
:10B27000019B02B0704700BF0001014038B50E4C81
:10B280002278BAB90D4BD3F800248AB1D3F804550B
:10B29000FFF7CCFF40F61650A842B8BF2846084931
:10B2A000A0F54860FFF798FE064B4FF480321A6015
:10B2B0000123237038BD00BF266500200000014037
:10B2C00061B2070000E100E0034BD3F800340BB19A
:10B2D000FFF7ACBF704700BF00000140044B186887
:10B2E000421C04BF034B1878831F584258417047D3
:10B2F00030010010E00F00F0064B1868083B1B7887
:10B30000062B05D1C0F30310C31E584258417047A5
:10B3100000207047E80F00F008B5FFF7DFFF28B105
:10B32000804B814A1B68C3F304231360FFF7E4FFDB
:10B3300010B17E4B7E4A1A60FFF7D0FF28B17D4BDB
:10B340007D4A1B68C3F342331360FFF7D5FF20B17A
:10B350007A4AD36823F08073D360FFF7BFFF40B110
:10B360004FF080430022C3F80C21C3F81021C3F82A
:10B370003825FFF7C1FF10B1714B03221A60FFF7A8
:10B38000BBFF40B16F4B05221A6001229A67002271
:10B390009A603F225A606C4B1A68511C0BBF6B4B72
:10B3A0006B4B1A781B6802BF08331B68C3F3031387
:10B3B000062A49D1033B012B46D94FF08052654BF9
:10B3C000D2F80414C3F82015D2F80814C3F82415D1
:10B3D000D2F80C14C3F82815D2F81014C3F82C15A1
:10B3E000D2F81414C3F83015D2F81814C3F8341571
:10B3F000D2F81C14C3F84015D2F82014C3F8441531
:10B40000D2F82414C3F84815D2F82814C3F84C1500
:10B41000D2F82C14C3F85015D2F83014C3F85415D0
:10B42000D2F83414C3F86015D2F83814C3F8641590
:10B43000D2F83C14C3F86815D2F84014C3F86C1560
:10B44000D2F84424C3F87025FFF748FF28B1424BD7
:10B45000424A1B6803F04F031360FFF73FFF48B1F8
:10B460004FF08043D3F80024D20744BF6FF00102AD
:10B47000C3F80024344B1B68062B09D1344B1B68DE
:10B48000033B022B81BF364A136843F48063136089
:10B49000344AD2F8883043F47003C2F88830BFF3DE
:10B4A0004F8FBFF36F8F4FF01023D3F80022002A85
:10B4B00003DBD3F80432002B2FDA2B4B0122C3F825
:10B4C0000425D3F80024002AFBD04FF010221521C8
:10B4D000C2F80012D3F80024002AFBD04FF010234A
:10B4E0001522C3F80422204B1A46D3F80014002971
:10B4F000FBD00021C3F80415D2F80034002BFBD098
:10B50000BFF34F8F1749194BCA6802F4E062134327
:10B51000CB60BFF34F8F00BFFDE7154B154A1A6094
:10B5200008BD00BF240300104035014074C007402F
:10B530000DF0ADBA440200103C050040F0ED00E013
:10B54000A00500401056004030010010E00F00F050
:10B550003401001000C0004058020010E40E00400A
:10B560003C17004000ED00E000E001400400FA0557
:10B57000AC5900200090D00313681F2B10B514465F
:10B5800007D900220830FCF773FC08B92023236098
:10B5900010BD48F21450FBE70830FCF745BC0830FA
:10B5A000FCF712BC831F012B10B5044602D8002003
:10B5B00000F082FF034B1B681BB12046BDE8104022
:10B5C000184710BD2865002008B5074B18600020FB
:10B5D000FFF7E8FF054800F057FF20B90348BDE832
:10B5E000084000F0C3BD08BD28650020A5B50700D0
:10B5F0006CDF70476DDF704772DF704773DF704735
:10B6000074DF704775DF704776DF70477ADF704709
:10B610007CDF70477DDF70477FDF704786DF7047D4
:10B620008FDF704790DF7047A8DF7047AADF704751
:10B63000ADDF7047AEDF7047B0DF7047B1DF7047F6
:10B64000B5DF704762DF704766DF704713DF704712
:10B650007FB50023CDF80A30ADF80E300A4BADF8B7
:10B6600006109B89ADF8083001238DF80A300DF1E2
:10B670000603CDE90430054B02A91888FFF7DAFF6D
:10B6800007B05DF804FB00BFF2750020B25900203E
:10B6900001460148FCF793B80CCC070030B51822DE
:10B6A0008DB000210DEB020001F042FA4FF4C863A7
:10B6B00008931623ADF806300023CDF80E30CDF8F0
:10B6C0001230ADF816301B4B0293022206210925D9
:10B6D0001A7099701A71032159220124D9705A7174
:10B6E0000DF10601FE2258198DF818408DF82D40F5
:10B6F000ADF80C505C709A71FFF78CFFB8B9BDF8CB
:10B7000006201D721119D971BDF80C301A440A4B6C
:10B71000ADF80C2002A906AA1846FFF76DFF30B954
:10B720001878FFF76DFF21461878FFF767FF0DB017
:10B7300030BD00BF06760020B0590020F0B5038868
:10B740001F2B8BB0044600F0C28029D8112B56D095
:10B7500006D8012B00F0CC80102B42D00BB0F0BDEE
:10B76000142B00F042811A2B34D0132BF6D1002376
:10B77000A14CADF812300223ADF8103004AA02AB90
:10B7800042F6052120880593FFF752FF08B1FDF727
:10B79000D2FD00231A4685212088FFF73DFF86E071
:10B7A000512B00F0AB800ED8232B00F08880502B5B
:10B7B00039D0212BD2D1002304A98088ADF81030D4
:10B7C000FFF72EFF73E0552B59D0562B00F08680E3
:10B7D000522BC3D100231A461946A088FFF72EFF2B
:10B7E00065E0854B82881A80844A12681C460AB13B
:10B7F0000120904782492088FFF704FFAEE77E4B87
:10B800004FF6FF721A807F4B1B685A0704D4FFF76C
:10B8100045FF08B1FDF78FFD784B1B68002B9DD0CD
:10B82000022098479AE7784EC288B3889A4295D109
:10B830007648FBF7A0FF054600288FD0228A04F146
:10B84000120101F04CF91822002104A801F070F94E
:10B8500008238DF810306E4B06936E4B0596CDE99C
:10B86000073504A8238AADF8243000F075FC0028C1
:10B870003FF474AF29466548FBF7A1FF6EE7C18826
:10B8800022291AD8CB1E9B070DD0CB1F9BB2013BA0
:10B890005A4202F0030203F0030301F1FF3158BFE3
:10B8A0005342C91A89B2544B1888FFF7C9FE0028C1
:10B8B0003FF454AFFDF73FFD50E72321F3E70022AB
:10B8C00004A98088CDE90422FFF7ACFEEFE74A4BDC
:10B8D00000F108011888FFF795FEE8E78379002B4F
:10B8E0007FF43CAF444B13211888FFF78DFEDEE751
:10B8F000414B00211888FFF7A7FED8E78379002B7A
:10B900003FF42CAF022B7FF429AF3F4900898A898D
:10B9100090420E467FF422AFA27B012A7FF41EAF35
:10B9200000220120CDE904228DF81600208AADF80E
:10B930001800314D608AADF81A0004F114008DF83A
:10B9400010300790ADF80A20ADF8083002AA01AB1C
:10B95000098A28880393FFF76BFE2F4660B91846C3
:10B96000FFF7D3F940B940F2FD1304A92888ADF8D8
:10B970001430FFF761FEF1E6002304A93888ADF822
:10B980001430FFF759FE014600287FF4E7AE182275
:10B9900004A801F0CDF8237D1D4A8DF81030022B4C
:10B9A0000596069218D0062B10D0012B10D11A4BF9
:10B9B0001A881A4B1A80637DD4F816200893012B3D
:10B9C000099205D1164800F077FD01E0637D0893E8
:10B9D00004A800F0C1FBC1E6A27D637D43EA022317
:10B9E0000D4A13800D4A1380F2E700231A461946C8
:10B9F0008088FFF713FE5AE7B25900202C7600200A
:10BA000006D1070028760020F27500200CCC070034
:10BA10008DBA070091B607003076002032760020FC
:10BA2000F8CB070014490A6838B512F0010321D099
:10BA3000124B98421ED0124B18884FF6FF73984253
:10BA400013D042F004020A601321FFF7DDFD90B924
:10BA50000C4DC82445F001054FF47A40A847013C3D
:10BA6000FAD1BDE8384000F0D9BE074B1878FFF78F
:10BA7000C7FDF6E7002038BD28760020F8CB070088
:10BA8000B259002000D10700B059002010B504467B
:10BA900086B01122002101A801F04AF82378082B72
:10BAA0000BD1374A374913880988013B9BB2138071
:10BAB000D9B1D3B9032311802370627823788DF82C
:10BAC00005306021012A8DF804108DF806200ED073
:10BAD0000B2A12D100F092F98DF80700002000F037
:10BAE00087F9042101A8FFF7B3FD06B010BD062BAE
:10BAF00005D0082B29D0032B27D00321F2E7E168DA
:10BB00008DF80710D4E90123080A8DF80800080C05
:10BB1000090E8DF80A10110A8DF80B208DF80C1003
:10BB2000110C120E8DF80E201A0A8DF80F308DF8B8
:10BB300010201A0C1B0E8DF80D108DF809008DF8D1
:10BB400011208DF812300F21CCE7D4E90123110A1E
:10BB50008DF807208DF80810110C120E8DF80A20B0
:10BB60001A0A8DF80B308DF80C201A0C1B0E8DF86C
:10BB700009108DF80D208DF80E300B21B2E700BFB3
:10BB800032760020307600202DE9F043444B95B00A
:10BB900005464FF6FF721A8001204FF659632A4678
:10BBA00002A98DF80A00ADF80830FFF73DFD044604
:10BBB000002871D13B4B04AA03F110071646186800
:10BBC0005968144603C40833BB422246F7D1A91C66
:10BBD0003046FFF737FD044600285DD101461C22A0
:10BBE0000DA800F0A5FF9DF83430ADF8044043F0F7
:10BBF00004038DF834300223ADF80C30AB788DF8A7
:10BC00000E3004F0F80343F003038DF806302023D0
:10BC1000CDE90A44ADF82C302B4601AE4FF01109A6
:10BC200003AF33F8040B0C9408AA0DA98DF8059006
:10BC3000CDE90876FFF7FAFCA046044660BB014652
:10BC40001C220DA800F074FF9DF83430ADF80440BC
:10BC500023F0180343F018038DF834300123ADF8B6
:10BC60000C30AB788DF80E301723CDE90A44ADF8CF
:10BC70002C302B4608F0E80848F0130833F80C0B7A
:10BC80000C9408AA0DA98DF805908DF80680CDE9D1
:10BC90000876FFF7CBFC0446204615B0BDE8F083DC
:10BCA000B2590020E4D0070030B5334C236813F0BC
:10BCB000010585B05DD1314B18603148FBF744FD7B
:10BCC000029500F0B6F800284CD12E48FFF7BEFCD4
:10BCD000002847D100F064FD002843D102A800F0FD
:10BCE00027FE00283ED102A9012000F02BFE0028EB
:10BCF00038D102A800F08EFE002833D100F09CFB62
:10BD000030B1214800F08CFB236843F0020323602C
:10BD1000112302A88DF80430FFF76CFC10BB9DF8CE
:10BD2000093002A801338DF80930FFF761FCC8B96A
:10BD300023689B0718D514498869043182B201A889
:10BD4000FFF766FC70B91148FFF760FC50B9104866
:10BD5000FFF71AFF30B9FFF7A1FC18B9236843F0C9
:10BD60000103236005B030BD0A4800F014FF094903
:10BD7000E4E70020F6E700BF287600202C760020BC
:10BD80000CCC0700007007002C65002006D10700CE
:10BD9000F2750020F4D0070043690BB1C068184762
:10BDA000704700000449054B0022904208BF194625
:10BDB0000348FBF71EBD00BF9CCC070070CC0700FA
:10BDC0006859002007B5009313460A460146034808
:10BDD000FBF713FD03B05DF804FB00BF68590020BA
:10BDE00013460A4601460148FBF70EBD685900207C
:10BDF000014B18700B20704734760020024B002254
:10BE000018781A70704700BF3476002018DF70472A
:10BE100030B585B0054610220C466846002100F07A
:10BE200087FEA408684601950294FFF7EFFF05B06E
:10BE300030BD1FB50023CDE90133039368460223CB
:10BE40000093FFF7E3FF05B05DF804FB4FF00053EC
:10BE50004FF480521A60002070470000014B06200A
:10BE60001B681847407600200A2803D90B38C0B257
:10BE7000FFF7BEBF7047000030B5044687B0002012
:10BE8000FBF7CAFC054630B1174A18212046FBF7DC
:10BE9000C3FA07B030BD01461822684600F048FEDC
:10BEA00004238DF80030114A114B116D1B68994223
:10BEB00011D1104B1868FDF75BFF8DF80100FFF7FB
:10BEC000D3FFD4E901138DF80100684698470A486A
:10BED00000F056FADDE701238DF801306846D4E919
:10BEE000011398472846F3E779BE0700447D0020F8
:10BEF000387600203C7600205DBE0700F0B5044691
:10BF000087B0162200210DF1020000F011FE237807
:10BF10008DF8003001220C2B8DF8012000F21081E9
:10BF20009A4012F4AD7F15D1510706D4D30440F1E5
:10BF30000781844B07201B689847D4E901136846A2
:10BF400098479DF80130012B00F0EF807D4B0520D4
:10BF50001B68E9E0062B7C4A01D0012B01D1216945
:10BF600011701178012904D0022954D000231370D4
:10BF700096E0013B072BE0D801A252F823F000BF66
:10BF8000A1BF07003BBF07000BC00700DFBF0700D2
:10BF90003BBF070005C007003BBF0700B9BF070054
:10BFA000684B03201B6898476069FDF7F1FCFFF7B9
:10BFB0005BFF8DF80100C0E7A18A2069FDF700FD55
:10BFC000FFF752FF614B8DF80100DA6B1B6C029397
:10BFD000E3680192002BB0D020699847ADE75C4937
:10BFE0005C48FDF713FDFFF73FFF01288DF80100C6
:10BFF000A3D1002000F0C4F900289ED00A238DF8B8
:10C0000001309AE74FF400730393504BDA6B1B6CCB
:10C010000192029391E7013B072B8ED801A252F8BF
:10C0200023F000BF45C007003BBF0700FBC007006F
:10C0300005C107003BBF07002FC107003BBF07003A
:10C04000A5C00700FDF7DCFC08B90823D7E7626943
:10C050000AB90323D3E7C2F30B0333B13B4B3C498B
:10C060005B6D096813448B42F3D1B2F5805F01D94F
:10C070000423C4E7354B3649586D096815188D42BD
:10C08000E3D85A64DA6C9A6418651863314B1B68FC
:10C09000002201211844FFF7A3FE00283FF44DAF12
:10C0A0000523ACE7FDF7ACFC0028CED0274DA18AD4
:10C0B000D5E914329B1A6A6C0B449342C9D8254BBC
:10C0C0002E6B1B68206905F148021E44FDF786F9B6
:10C0D000E368A28A216907463046FFF773FE08B17C
:10C0E000E36879E7A38A2A6BAF641A442A632A6D4E
:10C0F000029713442B6501931FE7144B9A6C02922D
:10C100001B6DF8E7114BD3E91402596C821A8A426D
:10C110009BD19A6C5865002120465964DA64FFF778
:10C12000ABFE084B1B680420984707B0F0BD074BD7
:10C130009A6C1B6D01934FF4805302920393FCE6BB
:10C1400002235CE740760020B4590020447D0020A3
:10C15000387600203C76002083681BB1024A182103
:10C16000FBF75AB907207047FDBE070038B50546F2
:10C17000C0B10120FFF716FE044648B9FDF7FAFBEF
:10C18000FDF73EFC30B9084B00201D60FFF730FE84
:10C19000204638BD05490648FDF738FC0128F2D095
:10C1A0000324F5E70724F3E74076002038760020E3
:10C1B0003C7600202DE9F04115464FF460720646AA
:10C1C00088461F4600F050FC28B915B90020BDE88C
:10C1D000F081A847FAE7002201213046FFF700FE70
:10C1E00070B94FF460724146384600F078FC2B4637
:10C1F0004FF4607239463046FFF7E4FD0028E5D081
:10C200000320E4E72DE9F0413D4C236801335CD085
:10C2100000225821201DFDF7E1F8D4F80080A8EB9A
:10C220000002D2F1000848EB0208364D364E2F6866
:10C230003B6801335ED000225821381DFDF7CEF84F
:10C240003B68834244D17C68012C0AD00022C32180
:10C2500007F51870FDF7C2F8D7F85C42231A5C4264
:10C260005C41B8F1000F35D04FF460722449264884
:10C2700000F035FC64B1296824485422043100F0F0
:10C280002EFC296822484FF432725C3100F027FC02
:10C290007468012C2CD11F49402201F5E47000F094
:10C2A0001EFC1D491C2201F5E47000F018FC1B491E
:10C2B00086F8A1420023042201F2862086F860322B
:10C2C00086F8E23200F00BFC10E04FF00008ACE71B
:10C2D0000024C6E724B14FF4607229680A48D5E704
:10C2E0004FF460720021084800F022FC02237360C2
:10C2F000BDE8F081B8F1000FF2D00024B4E700BF30
:10C3000000F00700B8590020447D0020487D00203F
:10C31000A07D0020A07E0020E07E0020607D002027
:10C3200070B50C4C054600225821201DFDF756F82B
:10C3300000222060C32104F51870FDF74FF82A464B
:10C34000C4F85C022146044B0448BDE87040FFF786
:10C3500031BF00BF447D00204476002000F007007C
:10C3600002460248024B0068FFF724BFB85900207C
:10C37000C47900200149FFF7F3BF00BF00F00700B8
:10C3800038B505460020FFF7CBFF044618B903492E
:10C390002846FFF7E5FF204638BD00BF447D00205A
:10C3A00010B5FFF7FFFC044628B9FFF72BFF204626
:10C3B000FFF7E6FF00B1032010BD000010B5084CE8
:10C3C0004FF40072FF2104F15C0000F0B1FB202269
:10C3D000002104F1380000F0ABFB0023236310BD03
:10C3E000447D002029DF704738B50C4D0446D5F850
:10C3F000643378B101330FD1002218210430FCF7E7
:10C40000EDFF21462060072205F55970BDE8384050
:10C41000FFF7E8BF0E2038BD0820FCE700F007005A
:10C4200008B528B11C22034900F059FB002008BDC3
:10C430000E20FCE764F3070010B5064C002218211B
:10C440002046FCF7CBFF54F8043C1B1A58425841D5
:10C4500010BD00BF68F3070010B50A4CD4F82433B0
:10C46000D4F864231340013309D04FF4FE20FCF7C5
:10C47000A3FDC92221464FF4FE20FCF7CBFD00208E
:10C4800010BD00BF447D0020F8B5094E094CA41B27
:10C490000746E4080025A54201D10020F8BD56F862
:10C4A0003530384698470028F8D10135F3E700BF0A
:10C4B000F8CB070000CC0700F8B5094E094CA41BC7
:10C4C0000746E40800250436A54201D10020F8BD46
:10C4D00056F83530384698470028F8D10135F3E74B
:10C4E000F8CB070000CC070008B50C22002100F0B3
:10C4F0001FFB024B00221A6308BD00BF447D0020D1
:10C5000043F204031A68084B9A4201BF43F208033E
:10C51000186800F6FF7020F47F600CBF20F00F0059
:10C520004FF48050704700BFDBE5B15108B5FFF70D
:10C53000E7FF054B9B69184400F6FF7020F47F600D
:10C5400020F00F0008BD00BF447D00204FF4805054
:10C55000704700002DE9F84F1F46224BDFF890A0EE
:10C560001E6A044615464FF0000843F204095FFABC
:10C5700088FBBBF1010F14D0BBF1020F1DD0FFF7F8
:10C58000D5FF65B1721E53425341174A101AA0429B
:10C5900000D3F1B1ABB1A0421BD2042020E02B4666
:10C5A000F3E7FFF7ADFF37B9D9F80030B3EB0A0373
:10C5B00018BF0123E9E75B46E7E701234FF480500A
:10C5C000E3E708F10108B8F1030FD0D1A042E4D3AA
:10C5D00002E0BBF1000F02D00448FFF785FF002006
:10C5E000BDE8F88F447D0020004007005C7D0020FE
:10C5F000DBE5B15138B1054B0360054B43600123C6
:10C600000372002070470E20704700BF3BC6070032
:10C6100015C6070069B10B78022B0CD1022804D093
:10C6200003280CBF11200820704703230B70002043
:10C6300070470E2070470820704710B50C4681B136
:10C640000B78042B04D8DFE803F00E05030E0E0070
:10C65000112010BDFFF7C8FE0028FAD10223237075
:10C66000F7E70E20F5E70820F3E7000070B5144B5C
:10C67000144A0C21D21AB2FBF1F2816911F8025C62
:10C68000044635B900690021914205D10123236098
:10C690000EE04FF0FF30F6E71E68AE420CD1461CAC
:10C6A00007D19D68D4E90001D4E90223A84720609E
:10C6B00070BD5E688642F4D001310C33E4E700BF00
:10C6C00000CC07000CCC07001EF0040F0CBFEFF3EA
:10C6D0000880EFF30980FFF7C9BF00BF10DF704784
:10C6E00011DF704713B5044609496846FBF7B8FAED
:10C6F000019808B902B010BDD0E900312046984732
:10C7000018B16846FBF7B6FAF2E71120F2E700BF6E
:10C7100014D1070013B5044607496846FBF7A0FA91
:10C72000019B0BB902B010BD2046D3E90021904710
:10C730006846FBF79FFAF3E72CD107000B4991F805
:10C7400016335A09EC231341DB0706D5084B9A68C8
:10C750003AB94FF480030B60704742F20200FCF7D5
:10C76000EABD1A6842F480021A60704700E100E0F6
:10C77000D0590020084B9A6822B11A6822F480022E
:10C780001A607047054B4FF48002C3F88020BFF356
:10C790004F8FBFF36F8F7047D059002000E100E04A
:10C7A000F7B5194F3C7864BB184E0125204635700B
:10C7B000FFF798FF112821D02046FFF7ABFF144B5D
:10C7C0008DF80340186801900DF10300FAF7BCFEE4
:10C7D000104901A8FFF782FF0446B0FA80F0400933
:10C7E00038709DF80300FAF7D3FE3CB90A4B347059
:10C7F0001C70FFF7A3FF2846FFF78CFF204603B00D
:10C80000F0BD0824FAE700BFC5800020C4800020E6
:10C810000ED1070031930700C6800020F7B5154FF1
:10C820003B781BB3144E01203070FFF75BFF1128DB
:10C830004FF000051CD00220FFF76CFF0DF1070040
:10C840008DF80750FAF780FEFFF74AFF04469DF87F
:10C8500007003D70FAF79CFE2CB93470FFF78AFF91
:10C860000320FFF757FF204603B0F0BD0824FAE786
:10C870002C46F8E7C5800020C4800020054B1B78BB
:10C8800033B1054B1B780BB1FFF7C8BFFFF788BF6B
:10C8900008207047C4800020C5800020014B187814
:10C8A000704700BFC580002007B508496846FBF700
:10C8B000D7F9019B13B903B05DF804FBD3E900205D
:10C8C00090476846FBF7D6F9F3E700BF20D1070091
:10C8D000FFF7EABF60DF704769DF704761DF7047CD
:10C8E00030B5114B1B7897B0E3B1104D4C240DF1CE
:10C8F000020103A8ADF80240FFF7F0FF70B9294626
:10C9000001A8FBF7ADF9029B002BF0D003A8D3E9F7
:10C910000021904701A8FBF7ADF9F4E7052801D005
:10C92000FCF709FD17B030BDC780002038D10700E3
:10C9300018B1034B0360002070470E20704700BF02
:10C9400068590020F0B5074685B00D4600295CD037
:10C950002F4B0B600C22002101A800F0E9F8012602
:10C9600050232A68ADF8083001A920208DF8047002
:10C970008DF80660FFF7B0FF0C22002101A800F03F
:10C98000D7F800242A688DF8056001A94020ADF889
:10C990000640FFF7A1FF0C22214601A800F0C8F8CD
:10C9A00023202A688DF8047001A9ADF80600FFF76E
:10C9B00093FF0C22214601A800F0BAF82A688DF8EE
:10C9C000046001A93046FFF787FF0C22214601A829
:10C9D00000F0AEF84FF4B0632A68019301A9A120DA
:10C9E000FFF77AFF0C22214601A800F0A1F89DF87C
:10C9F00004302A6864F3000301A9A0208DF80430F4
:10CA0000FFF76AFF204605B0F0BD0E20FBE700BF30
:10CA10006859002008B5FFF75DFF10B9014B0122EE
:10CA20001A7008BDC78000204BDF70471FB50D4C42
:10CA300001A8FFF7F9FF70B9214602A8FBF710F92A
:10CA4000039B002BF4D00198D3E90021904702A862
:10CA5000FBF710F9F4E7052801D0FCF76CFC04B0F3
:10CA600010BD00BF44D10700002A36D070B4134671
:10CA70000F2A1AD940EA010212F0030F01D05A1E00
:10CA800015E004680A689442F9D1043B041D0A1DAC
:10CA9000114620460434043206680D68AE42EED1D9
:10CAA00020461146043B042BF2D85A1E10D00478BD
:10CAB0000B789C420CD1431C4C1C02441846214666
:10CAC000934205D00133013406780D78AE42F5D09B
:10CAD00000780B78C01A70BC7047002070478446FD
